{
	"contract/base/RoleAdmin.sol": {
		"RoleAdmin": {
			"abi": [
				{
					"inputs": [],
					"stateMutability": "nonpayable",
					"type": "constructor"
				},
				{
					"anonymous": false,
					"inputs": [
						{
							"indexed": true,
							"internalType": "bytes32",
							"name": "role",
							"type": "bytes32"
						},
						{
							"indexed": true,
							"internalType": "bytes32",
							"name": "previousAdminRole",
							"type": "bytes32"
						},
						{
							"indexed": true,
							"internalType": "bytes32",
							"name": "newAdminRole",
							"type": "bytes32"
						}
					],
					"name": "RoleAdminChanged",
					"type": "event"
				},
				{
					"anonymous": false,
					"inputs": [
						{
							"indexed": true,
							"internalType": "bytes32",
							"name": "role",
							"type": "bytes32"
						},
						{
							"indexed": true,
							"internalType": "address",
							"name": "account",
							"type": "address"
						},
						{
							"indexed": true,
							"internalType": "address",
							"name": "sender",
							"type": "address"
						}
					],
					"name": "RoleGranted",
					"type": "event"
				},
				{
					"anonymous": false,
					"inputs": [
						{
							"indexed": true,
							"internalType": "bytes32",
							"name": "role",
							"type": "bytes32"
						},
						{
							"indexed": true,
							"internalType": "address",
							"name": "account",
							"type": "address"
						},
						{
							"indexed": true,
							"internalType": "address",
							"name": "sender",
							"type": "address"
						}
					],
					"name": "RoleRevoked",
					"type": "event"
				},
				{
					"inputs": [],
					"name": "DEFAULT_ADMIN_ROLE",
					"outputs": [
						{
							"internalType": "bytes32",
							"name": "",
							"type": "bytes32"
						}
					],
					"stateMutability": "view",
					"type": "function"
				},
				{
					"inputs": [
						{
							"internalType": "bytes32",
							"name": "role",
							"type": "bytes32"
						}
					],
					"name": "getRoleAdmin",
					"outputs": [
						{
							"internalType": "bytes32",
							"name": "",
							"type": "bytes32"
						}
					],
					"stateMutability": "view",
					"type": "function"
				},
				{
					"inputs": [
						{
							"internalType": "bytes32",
							"name": "role",
							"type": "bytes32"
						},
						{
							"internalType": "address",
							"name": "account",
							"type": "address"
						}
					],
					"name": "grantRole",
					"outputs": [],
					"stateMutability": "nonpayable",
					"type": "function"
				},
				{
					"inputs": [
						{
							"internalType": "bytes32",
							"name": "role",
							"type": "bytes32"
						},
						{
							"internalType": "address",
							"name": "account",
							"type": "address"
						}
					],
					"name": "hasRole",
					"outputs": [
						{
							"internalType": "bool",
							"name": "",
							"type": "bool"
						}
					],
					"stateMutability": "view",
					"type": "function"
				},
				{
					"inputs": [
						{
							"internalType": "bytes32",
							"name": "role",
							"type": "bytes32"
						},
						{
							"internalType": "address",
							"name": "account",
							"type": "address"
						}
					],
					"name": "renounceRole",
					"outputs": [],
					"stateMutability": "nonpayable",
					"type": "function"
				},
				{
					"inputs": [
						{
							"internalType": "bytes32",
							"name": "role",
							"type": "bytes32"
						},
						{
							"internalType": "address",
							"name": "account",
							"type": "address"
						}
					],
					"name": "revokeRole",
					"outputs": [],
					"stateMutability": "nonpayable",
					"type": "function"
				},
				{
					"inputs": [
						{
							"internalType": "bytes4",
							"name": "interfaceId",
							"type": "bytes4"
						}
					],
					"name": "supportsInterface",
					"outputs": [
						{
							"internalType": "bool",
							"name": "",
							"type": "bool"
						}
					],
					"stateMutability": "view",
					"type": "function"
				}
			],
			"devdoc": {
				"events": {
					"RoleAdminChanged(bytes32,bytes32,bytes32)": {
						"details": "Emitted when `newAdminRole` is set as ``role``'s admin role, replacing `previousAdminRole` `DEFAULT_ADMIN_ROLE` is the starting admin for all roles, despite {RoleAdminChanged} not being emitted signaling this. _Available since v3.1._"
					},
					"RoleGranted(bytes32,address,address)": {
						"details": "Emitted when `account` is granted `role`. `sender` is the account that originated the contract call, an admin role bearer except when using {AccessControl-_setupRole}."
					},
					"RoleRevoked(bytes32,address,address)": {
						"details": "Emitted when `account` is revoked `role`. `sender` is the account that originated the contract call:   - if using `revokeRole`, it is the admin role bearer   - if using `renounceRole`, it is the role bearer (i.e. `account`)"
					}
				},
				"kind": "dev",
				"methods": {
					"getRoleAdmin(bytes32)": {
						"details": "Returns the admin role that controls `role`. See {grantRole} and {revokeRole}. To change a role's admin, use {_setRoleAdmin}."
					},
					"grantRole(bytes32,address)": {
						"details": "Grants `role` to `account`. If `account` had not been already granted `role`, emits a {RoleGranted} event. Requirements: - the caller must have ``role``'s admin role. May emit a {RoleGranted} event."
					},
					"hasRole(bytes32,address)": {
						"details": "Returns `true` if `account` has been granted `role`."
					},
					"renounceRole(bytes32,address)": {
						"details": "Revokes `role` from the calling account. Roles are often managed via {grantRole} and {revokeRole}: this function's purpose is to provide a mechanism for accounts to lose their privileges if they are compromised (such as when a trusted device is misplaced). If the calling account had been revoked `role`, emits a {RoleRevoked} event. Requirements: - the caller must be `account`. May emit a {RoleRevoked} event."
					},
					"revokeRole(bytes32,address)": {
						"details": "Revokes `role` from `account`. If `account` had been granted `role`, emits a {RoleRevoked} event. Requirements: - the caller must have ``role``'s admin role. May emit a {RoleRevoked} event."
					},
					"supportsInterface(bytes4)": {
						"details": "See {IERC165-supportsInterface}."
					}
				},
				"version": 1
			},
			"evm": {
				"assembly": "    /* \"contract/base/RoleAdmin.sol\":126:233  contract RoleAdmin is AccessControl{... */\n  mstore(0x40, 0x80)\n    /* \"contract/base/RoleAdmin.sol\":170:230  constructor() {... */\n  callvalue\n  dup1\n  iszero\n  tag_1\n  jumpi\n  0x00\n  dup1\n  revert\ntag_1:\n  pop\n    /* \"contract/base/RoleAdmin.sol\":195:222  _grantRole(0x00,msg.sender) */\n  tag_4\n    /* \"contract/base/RoleAdmin.sol\":206:210  0x00 */\n  0x00\n    /* \"contract/base/RoleAdmin.sol\":195:222  _grantRole(0x00,msg.sender) */\n  dup1\n  shl\n    /* \"contract/base/RoleAdmin.sol\":211:221  msg.sender */\n  caller\n    /* \"contract/base/RoleAdmin.sol\":195:205  _grantRole */\n  shl(0x20, tag_5)\n    /* \"contract/base/RoleAdmin.sol\":195:222  _grantRole(0x00,msg.sender) */\n  0x20\n  shr\n  jump\t// in\ntag_4:\n    /* \"contract/base/RoleAdmin.sol\":126:233  contract RoleAdmin is AccessControl{... */\n  jump(tag_6)\n    /* \"@openzeppelin/contracts/access/AccessControl.sol\":7461:7694  function _grantRole(bytes32 role, address account) internal virtual {... */\ntag_5:\n    /* \"@openzeppelin/contracts/access/AccessControl.sol\":7544:7566  hasRole(role, account) */\n  tag_8\n    /* \"@openzeppelin/contracts/access/AccessControl.sol\":7552:7556  role */\n  dup3\n    /* \"@openzeppelin/contracts/access/AccessControl.sol\":7558:7565  account */\n  dup3\n    /* \"@openzeppelin/contracts/access/AccessControl.sol\":7544:7551  hasRole */\n  shl(0x20, tag_9)\n    /* \"@openzeppelin/contracts/access/AccessControl.sol\":7544:7566  hasRole(role, account) */\n  0x20\n  shr\n  jump\t// in\ntag_8:\n    /* \"@openzeppelin/contracts/access/AccessControl.sol\":7539:7688  if (!hasRole(role, account)) {... */\n  tag_10\n  jumpi\n    /* \"@openzeppelin/contracts/access/AccessControl.sol\":7614:7618  true */\n  0x01\n    /* \"@openzeppelin/contracts/access/AccessControl.sol\":7582:7588  _roles */\n  0x00\n    /* \"@openzeppelin/contracts/access/AccessControl.sol\":7582:7594  _roles[role] */\n  dup1\n    /* \"@openzeppelin/contracts/access/AccessControl.sol\":7589:7593  role */\n  dup5\n    /* \"@openzeppelin/contracts/access/AccessControl.sol\":7582:7594  _roles[role] */\n  dup2\n  mstore\n  0x20\n  add\n  swap1\n  dup2\n  mstore\n  0x20\n  add\n  0x00\n  keccak256\n    /* \"@openzeppelin/contracts/access/AccessControl.sol\":7582:7602  _roles[role].members */\n  0x00\n  add\n    /* \"@openzeppelin/contracts/access/AccessControl.sol\":7582:7611  _roles[role].members[account] */\n  0x00\n    /* \"@openzeppelin/contracts/access/AccessControl.sol\":7603:7610  account */\n  dup4\n    /* \"@openzeppelin/contracts/access/AccessControl.sol\":7582:7611  _roles[role].members[account] */\n  0xffffffffffffffffffffffffffffffffffffffff\n  and\n  0xffffffffffffffffffffffffffffffffffffffff\n  and\n  dup2\n  mstore\n  0x20\n  add\n  swap1\n  dup2\n  mstore\n  0x20\n  add\n  0x00\n  keccak256\n  0x00\n    /* \"@openzeppelin/contracts/access/AccessControl.sol\":7582:7618  _roles[role].members[account] = true */\n  0x0100\n  exp\n  dup2\n  sload\n  dup2\n  0xff\n  mul\n  not\n  and\n  swap1\n  dup4\n  iszero\n  iszero\n  mul\n  or\n  swap1\n  sstore\n  pop\n    /* \"@openzeppelin/contracts/access/AccessControl.sol\":7664:7676  _msgSender() */\n  tag_11\n    /* \"@openzeppelin/contracts/access/AccessControl.sol\":7664:7674  _msgSender */\n  shl(0x20, tag_12)\n    /* \"@openzeppelin/contracts/access/AccessControl.sol\":7664:7676  _msgSender() */\n  0x20\n  shr\n  jump\t// in\ntag_11:\n    /* \"@openzeppelin/contracts/access/AccessControl.sol\":7637:7677  RoleGranted(role, account, _msgSender()) */\n  0xffffffffffffffffffffffffffffffffffffffff\n  and\n    /* \"@openzeppelin/contracts/access/AccessControl.sol\":7655:7662  account */\n  dup2\n    /* \"@openzeppelin/contracts/access/AccessControl.sol\":7637:7677  RoleGranted(role, account, _msgSender()) */\n  0xffffffffffffffffffffffffffffffffffffffff\n  and\n    /* \"@openzeppelin/contracts/access/AccessControl.sol\":7649:7653  role */\n  dup4\n    /* \"@openzeppelin/contracts/access/AccessControl.sol\":7637:7677  RoleGranted(role, account, _msgSender()) */\n  0x2f8788117e7eff1d82e926ec794901d17c78024a50270940304540a733656f0d\n  mload(0x40)\n  mload(0x40)\n  dup1\n  swap2\n  sub\n  swap1\n  log4\n    /* \"@openzeppelin/contracts/access/AccessControl.sol\":7539:7688  if (!hasRole(role, account)) {... */\ntag_10:\n    /* \"@openzeppelin/contracts/access/AccessControl.sol\":7461:7694  function _grantRole(bytes32 role, address account) internal virtual {... */\n  pop\n  pop\n  jump\t// out\n    /* \"@openzeppelin/contracts/access/AccessControl.sol\":2895:3040  function hasRole(bytes32 role, address account) public view virtual override returns (bool) {... */\ntag_9:\n    /* \"@openzeppelin/contracts/access/AccessControl.sol\":2981:2985  bool */\n  0x00\n    /* \"@openzeppelin/contracts/access/AccessControl.sol\":3004:3010  _roles */\n  dup1\n    /* \"@openzeppelin/contracts/access/AccessControl.sol\":3004:3016  _roles[role] */\n  0x00\n    /* \"@openzeppelin/contracts/access/AccessControl.sol\":3011:3015  role */\n  dup5\n    /* \"@openzeppelin/contracts/access/AccessControl.sol\":3004:3016  _roles[role] */\n  dup2\n  mstore\n  0x20\n  add\n  swap1\n  dup2\n  mstore\n  0x20\n  add\n  0x00\n  keccak256\n    /* \"@openzeppelin/contracts/access/AccessControl.sol\":3004:3024  _roles[role].members */\n  0x00\n  add\n    /* \"@openzeppelin/contracts/access/AccessControl.sol\":3004:3033  _roles[role].members[account] */\n  0x00\n    /* \"@openzeppelin/contracts/access/AccessControl.sol\":3025:3032  account */\n  dup4\n    /* \"@openzeppelin/contracts/access/AccessControl.sol\":3004:3033  _roles[role].members[account] */\n  0xffffffffffffffffffffffffffffffffffffffff\n  and\n  0xffffffffffffffffffffffffffffffffffffffff\n  and\n  dup2\n  mstore\n  0x20\n  add\n  swap1\n  dup2\n  mstore\n  0x20\n  add\n  0x00\n  keccak256\n  0x00\n  swap1\n  sload\n  swap1\n  0x0100\n  exp\n  swap1\n  div\n  0xff\n  and\n    /* \"@openzeppelin/contracts/access/AccessControl.sol\":2997:3033  return _roles[role].members[account] */\n  swap1\n  pop\n    /* \"@openzeppelin/contracts/access/AccessControl.sol\":2895:3040  function hasRole(bytes32 role, address account) public view virtual override returns (bool) {... */\n  swap3\n  swap2\n  pop\n  pop\n  jump\t// out\n    /* \"@openzeppelin/contracts/utils/Context.sol\":640:736  function _msgSender() internal view virtual returns (address) {... */\ntag_12:\n    /* \"@openzeppelin/contracts/utils/Context.sol\":693:700  address */\n  0x00\n    /* \"@openzeppelin/contracts/utils/Context.sol\":719:729  msg.sender */\n  caller\n    /* \"@openzeppelin/contracts/utils/Context.sol\":712:729  return msg.sender */\n  swap1\n  pop\n    /* \"@openzeppelin/contracts/utils/Context.sol\":640:736  function _msgSender() internal view virtual returns (address) {... */\n  swap1\n  jump\t// out\n    /* \"contract/base/RoleAdmin.sol\":126:233  contract RoleAdmin is AccessControl{... */\ntag_6:\n  dataSize(sub_0)\n  dup1\n  dataOffset(sub_0)\n  0x00\n  codecopy\n  0x00\n  return\nstop\n\nsub_0: assembly {\n        /* \"contract/base/RoleAdmin.sol\":126:233  contract RoleAdmin is AccessControl{... */\n      mstore(0x40, 0x80)\n      callvalue\n      dup1\n      iszero\n      tag_1\n      jumpi\n      0x00\n      dup1\n      revert\n    tag_1:\n      pop\n      jumpi(tag_2, lt(calldatasize, 0x04))\n      shr(0xe0, calldataload(0x00))\n      dup1\n      0x36568abe\n      gt\n      tag_10\n      jumpi\n      dup1\n      0x36568abe\n      eq\n      tag_6\n      jumpi\n      dup1\n      0x91d14854\n      eq\n      tag_7\n      jumpi\n      dup1\n      0xa217fddf\n      eq\n      tag_8\n      jumpi\n      dup1\n      0xd547741f\n      eq\n      tag_9\n      jumpi\n      jump(tag_2)\n    tag_10:\n      dup1\n      0x01ffc9a7\n      eq\n      tag_3\n      jumpi\n      dup1\n      0x248a9ca3\n      eq\n      tag_4\n      jumpi\n      dup1\n      0x2f2ff15d\n      eq\n      tag_5\n      jumpi\n    tag_2:\n      0x00\n      dup1\n      revert\n        /* \"@openzeppelin/contracts/access/AccessControl.sol\":2606:2808  function supportsInterface(bytes4 interfaceId) public view virtual override returns (bool) {... */\n    tag_3:\n      tag_11\n      0x04\n      dup1\n      calldatasize\n      sub\n      dup2\n      add\n      swap1\n      tag_12\n      swap2\n      swap1\n      tag_13\n      jump\t// in\n    tag_12:\n      tag_14\n      jump\t// in\n    tag_11:\n      mload(0x40)\n      tag_15\n      swap2\n      swap1\n      tag_16\n      jump\t// in\n    tag_15:\n      mload(0x40)\n      dup1\n      swap2\n      sub\n      swap1\n      return\n        /* \"@openzeppelin/contracts/access/AccessControl.sol\":4378:4507  function getRoleAdmin(bytes32 role) public view virtual override returns (bytes32) {... */\n    tag_4:\n      tag_17\n      0x04\n      dup1\n      calldatasize\n      sub\n      dup2\n      add\n      swap1\n      tag_18\n      swap2\n      swap1\n      tag_19\n      jump\t// in\n    tag_18:\n      tag_20\n      jump\t// in\n    tag_17:\n      mload(0x40)\n      tag_21\n      swap2\n      swap1\n      tag_22\n      jump\t// in\n    tag_21:\n      mload(0x40)\n      dup1\n      swap2\n      sub\n      swap1\n      return\n        /* \"@openzeppelin/contracts/access/AccessControl.sol\":4803:4948  function grantRole(bytes32 role, address account) public virtual override onlyRole(getRoleAdmin(role)) {... */\n    tag_5:\n      tag_23\n      0x04\n      dup1\n      calldatasize\n      sub\n      dup2\n      add\n      swap1\n      tag_24\n      swap2\n      swap1\n      tag_25\n      jump\t// in\n    tag_24:\n      tag_26\n      jump\t// in\n    tag_23:\n      stop\n        /* \"@openzeppelin/contracts/access/AccessControl.sol\":5912:6126  function renounceRole(bytes32 role, address account) public virtual override {... */\n    tag_6:\n      tag_27\n      0x04\n      dup1\n      calldatasize\n      sub\n      dup2\n      add\n      swap1\n      tag_28\n      swap2\n      swap1\n      tag_25\n      jump\t// in\n    tag_28:\n      tag_29\n      jump\t// in\n    tag_27:\n      stop\n        /* \"@openzeppelin/contracts/access/AccessControl.sol\":2895:3040  function hasRole(bytes32 role, address account) public view virtual override returns (bool) {... */\n    tag_7:\n      tag_30\n      0x04\n      dup1\n      calldatasize\n      sub\n      dup2\n      add\n      swap1\n      tag_31\n      swap2\n      swap1\n      tag_25\n      jump\t// in\n    tag_31:\n      tag_32\n      jump\t// in\n    tag_30:\n      mload(0x40)\n      tag_33\n      swap2\n      swap1\n      tag_16\n      jump\t// in\n    tag_33:\n      mload(0x40)\n      dup1\n      swap2\n      sub\n      swap1\n      return\n        /* \"@openzeppelin/contracts/access/AccessControl.sol\":2027:2076  bytes32 public constant DEFAULT_ADMIN_ROLE = 0x00 */\n    tag_8:\n      tag_34\n      tag_35\n      jump\t// in\n    tag_34:\n      mload(0x40)\n      tag_36\n      swap2\n      swap1\n      tag_22\n      jump\t// in\n    tag_36:\n      mload(0x40)\n      dup1\n      swap2\n      sub\n      swap1\n      return\n        /* \"@openzeppelin/contracts/access/AccessControl.sol\":5228:5375  function revokeRole(bytes32 role, address account) public virtual override onlyRole(getRoleAdmin(role)) {... */\n    tag_9:\n      tag_37\n      0x04\n      dup1\n      calldatasize\n      sub\n      dup2\n      add\n      swap1\n      tag_38\n      swap2\n      swap1\n      tag_25\n      jump\t// in\n    tag_38:\n      tag_39\n      jump\t// in\n    tag_37:\n      stop\n        /* \"@openzeppelin/contracts/access/AccessControl.sol\":2606:2808  function supportsInterface(bytes4 interfaceId) public view virtual override returns (bool) {... */\n    tag_14:\n        /* \"@openzeppelin/contracts/access/AccessControl.sol\":2691:2695  bool */\n      0x00\n        /* \"@openzeppelin/contracts/access/AccessControl.sol\":2729:2761  type(IAccessControl).interfaceId */\n      0x7965db0b00000000000000000000000000000000000000000000000000000000\n        /* \"@openzeppelin/contracts/access/AccessControl.sol\":2714:2761  interfaceId == type(IAccessControl).interfaceId */\n      not(0xffffffffffffffffffffffffffffffffffffffffffffffffffffffff)\n      and\n        /* \"@openzeppelin/contracts/access/AccessControl.sol\":2714:2725  interfaceId */\n      dup3\n        /* \"@openzeppelin/contracts/access/AccessControl.sol\":2714:2761  interfaceId == type(IAccessControl).interfaceId */\n      not(0xffffffffffffffffffffffffffffffffffffffffffffffffffffffff)\n      and\n      eq\n        /* \"@openzeppelin/contracts/access/AccessControl.sol\":2714:2801  interfaceId == type(IAccessControl).interfaceId || super.supportsInterface(interfaceId) */\n      dup1\n      tag_41\n      jumpi\n      pop\n        /* \"@openzeppelin/contracts/access/AccessControl.sol\":2765:2801  super.supportsInterface(interfaceId) */\n      tag_42\n        /* \"@openzeppelin/contracts/access/AccessControl.sol\":2789:2800  interfaceId */\n      dup3\n        /* \"@openzeppelin/contracts/access/AccessControl.sol\":2765:2788  super.supportsInterface */\n      tag_43\n        /* \"@openzeppelin/contracts/access/AccessControl.sol\":2765:2801  super.supportsInterface(interfaceId) */\n      jump\t// in\n    tag_42:\n        /* \"@openzeppelin/contracts/access/AccessControl.sol\":2714:2801  interfaceId == type(IAccessControl).interfaceId || super.supportsInterface(interfaceId) */\n    tag_41:\n        /* \"@openzeppelin/contracts/access/AccessControl.sol\":2707:2801  return interfaceId == type(IAccessControl).interfaceId || super.supportsInterface(interfaceId) */\n      swap1\n      pop\n        /* \"@openzeppelin/contracts/access/AccessControl.sol\":2606:2808  function supportsInterface(bytes4 interfaceId) public view virtual override returns (bool) {... */\n      swap2\n      swap1\n      pop\n      jump\t// out\n        /* \"@openzeppelin/contracts/access/AccessControl.sol\":4378:4507  function getRoleAdmin(bytes32 role) public view virtual override returns (bytes32) {... */\n    tag_20:\n        /* \"@openzeppelin/contracts/access/AccessControl.sol\":4452:4459  bytes32 */\n      0x00\n        /* \"@openzeppelin/contracts/access/AccessControl.sol\":4478:4484  _roles */\n      dup1\n        /* \"@openzeppelin/contracts/access/AccessControl.sol\":4478:4490  _roles[role] */\n      0x00\n        /* \"@openzeppelin/contracts/access/AccessControl.sol\":4485:4489  role */\n      dup4\n        /* \"@openzeppelin/contracts/access/AccessControl.sol\":4478:4490  _roles[role] */\n      dup2\n      mstore\n      0x20\n      add\n      swap1\n      dup2\n      mstore\n      0x20\n      add\n      0x00\n      keccak256\n        /* \"@openzeppelin/contracts/access/AccessControl.sol\":4478:4500  _roles[role].adminRole */\n      0x01\n      add\n      sload\n        /* \"@openzeppelin/contracts/access/AccessControl.sol\":4471:4500  return _roles[role].adminRole */\n      swap1\n      pop\n        /* \"@openzeppelin/contracts/access/AccessControl.sol\":4378:4507  function getRoleAdmin(bytes32 role) public view virtual override returns (bytes32) {... */\n      swap2\n      swap1\n      pop\n      jump\t// out\n        /* \"@openzeppelin/contracts/access/AccessControl.sol\":4803:4948  function grantRole(bytes32 role, address account) public virtual override onlyRole(getRoleAdmin(role)) {... */\n    tag_26:\n        /* \"@openzeppelin/contracts/access/AccessControl.sol\":4886:4904  getRoleAdmin(role) */\n      tag_45\n        /* \"@openzeppelin/contracts/access/AccessControl.sol\":4899:4903  role */\n      dup3\n        /* \"@openzeppelin/contracts/access/AccessControl.sol\":4886:4898  getRoleAdmin */\n      tag_20\n        /* \"@openzeppelin/contracts/access/AccessControl.sol\":4886:4904  getRoleAdmin(role) */\n      jump\t// in\n    tag_45:\n        /* \"@openzeppelin/contracts/access/AccessControl.sol\":2505:2521  _checkRole(role) */\n      tag_47\n        /* \"@openzeppelin/contracts/access/AccessControl.sol\":2516:2520  role */\n      dup2\n        /* \"@openzeppelin/contracts/access/AccessControl.sol\":2505:2515  _checkRole */\n      tag_48\n        /* \"@openzeppelin/contracts/access/AccessControl.sol\":2505:2521  _checkRole(role) */\n      jump\t// in\n    tag_47:\n        /* \"@openzeppelin/contracts/access/AccessControl.sol\":4916:4941  _grantRole(role, account) */\n      tag_50\n        /* \"@openzeppelin/contracts/access/AccessControl.sol\":4927:4931  role */\n      dup4\n        /* \"@openzeppelin/contracts/access/AccessControl.sol\":4933:4940  account */\n      dup4\n        /* \"@openzeppelin/contracts/access/AccessControl.sol\":4916:4926  _grantRole */\n      tag_51\n        /* \"@openzeppelin/contracts/access/AccessControl.sol\":4916:4941  _grantRole(role, account) */\n      jump\t// in\n    tag_50:\n        /* \"@openzeppelin/contracts/access/AccessControl.sol\":4803:4948  function grantRole(bytes32 role, address account) public virtual override onlyRole(getRoleAdmin(role)) {... */\n      pop\n      pop\n      pop\n      jump\t// out\n        /* \"@openzeppelin/contracts/access/AccessControl.sol\":5912:6126  function renounceRole(bytes32 role, address account) public virtual override {... */\n    tag_29:\n        /* \"@openzeppelin/contracts/access/AccessControl.sol\":6018:6030  _msgSender() */\n      tag_53\n        /* \"@openzeppelin/contracts/access/AccessControl.sol\":6018:6028  _msgSender */\n      tag_54\n        /* \"@openzeppelin/contracts/access/AccessControl.sol\":6018:6030  _msgSender() */\n      jump\t// in\n    tag_53:\n        /* \"@openzeppelin/contracts/access/AccessControl.sol\":6007:6030  account == _msgSender() */\n      0xffffffffffffffffffffffffffffffffffffffff\n      and\n        /* \"@openzeppelin/contracts/access/AccessControl.sol\":6007:6014  account */\n      dup2\n        /* \"@openzeppelin/contracts/access/AccessControl.sol\":6007:6030  account == _msgSender() */\n      0xffffffffffffffffffffffffffffffffffffffff\n      and\n      eq\n        /* \"@openzeppelin/contracts/access/AccessControl.sol\":5999:6082  require(account == _msgSender(), \"AccessControl: can only renounce roles for self\") */\n      tag_55\n      jumpi\n      mload(0x40)\n      0x08c379a000000000000000000000000000000000000000000000000000000000\n      dup2\n      mstore\n      0x04\n      add\n      tag_56\n      swap1\n      tag_57\n      jump\t// in\n    tag_56:\n      mload(0x40)\n      dup1\n      swap2\n      sub\n      swap1\n      revert\n    tag_55:\n        /* \"@openzeppelin/contracts/access/AccessControl.sol\":6093:6119  _revokeRole(role, account) */\n      tag_58\n        /* \"@openzeppelin/contracts/access/AccessControl.sol\":6105:6109  role */\n      dup3\n        /* \"@openzeppelin/contracts/access/AccessControl.sol\":6111:6118  account */\n      dup3\n        /* \"@openzeppelin/contracts/access/AccessControl.sol\":6093:6104  _revokeRole */\n      tag_59\n        /* \"@openzeppelin/contracts/access/AccessControl.sol\":6093:6119  _revokeRole(role, account) */\n      jump\t// in\n    tag_58:\n        /* \"@openzeppelin/contracts/access/AccessControl.sol\":5912:6126  function renounceRole(bytes32 role, address account) public virtual override {... */\n      pop\n      pop\n      jump\t// out\n        /* \"@openzeppelin/contracts/access/AccessControl.sol\":2895:3040  function hasRole(bytes32 role, address account) public view virtual override returns (bool) {... */\n    tag_32:\n        /* \"@openzeppelin/contracts/access/AccessControl.sol\":2981:2985  bool */\n      0x00\n        /* \"@openzeppelin/contracts/access/AccessControl.sol\":3004:3010  _roles */\n      dup1\n        /* \"@openzeppelin/contracts/access/AccessControl.sol\":3004:3016  _roles[role] */\n      0x00\n        /* \"@openzeppelin/contracts/access/AccessControl.sol\":3011:3015  role */\n      dup5\n        /* \"@openzeppelin/contracts/access/AccessControl.sol\":3004:3016  _roles[role] */\n      dup2\n      mstore\n      0x20\n      add\n      swap1\n      dup2\n      mstore\n      0x20\n      add\n      0x00\n      keccak256\n        /* \"@openzeppelin/contracts/access/AccessControl.sol\":3004:3024  _roles[role].members */\n      0x00\n      add\n        /* \"@openzeppelin/contracts/access/AccessControl.sol\":3004:3033  _roles[role].members[account] */\n      0x00\n        /* \"@openzeppelin/contracts/access/AccessControl.sol\":3025:3032  account */\n      dup4\n        /* \"@openzeppelin/contracts/access/AccessControl.sol\":3004:3033  _roles[role].members[account] */\n      0xffffffffffffffffffffffffffffffffffffffff\n      and\n      0xffffffffffffffffffffffffffffffffffffffff\n      and\n      dup2\n      mstore\n      0x20\n      add\n      swap1\n      dup2\n      mstore\n      0x20\n      add\n      0x00\n      keccak256\n      0x00\n      swap1\n      sload\n      swap1\n      0x0100\n      exp\n      swap1\n      div\n      0xff\n      and\n        /* \"@openzeppelin/contracts/access/AccessControl.sol\":2997:3033  return _roles[role].members[account] */\n      swap1\n      pop\n        /* \"@openzeppelin/contracts/access/AccessControl.sol\":2895:3040  function hasRole(bytes32 role, address account) public view virtual override returns (bool) {... */\n      swap3\n      swap2\n      pop\n      pop\n      jump\t// out\n        /* \"@openzeppelin/contracts/access/AccessControl.sol\":2027:2076  bytes32 public constant DEFAULT_ADMIN_ROLE = 0x00 */\n    tag_35:\n        /* \"@openzeppelin/contracts/access/AccessControl.sol\":2072:2076  0x00 */\n      0x00\n        /* \"@openzeppelin/contracts/access/AccessControl.sol\":2027:2076  bytes32 public constant DEFAULT_ADMIN_ROLE = 0x00 */\n      dup1\n      shl\n      dup2\n      jump\t// out\n        /* \"@openzeppelin/contracts/access/AccessControl.sol\":5228:5375  function revokeRole(bytes32 role, address account) public virtual override onlyRole(getRoleAdmin(role)) {... */\n    tag_39:\n        /* \"@openzeppelin/contracts/access/AccessControl.sol\":5312:5330  getRoleAdmin(role) */\n      tag_61\n        /* \"@openzeppelin/contracts/access/AccessControl.sol\":5325:5329  role */\n      dup3\n        /* \"@openzeppelin/contracts/access/AccessControl.sol\":5312:5324  getRoleAdmin */\n      tag_20\n        /* \"@openzeppelin/contracts/access/AccessControl.sol\":5312:5330  getRoleAdmin(role) */\n      jump\t// in\n    tag_61:\n        /* \"@openzeppelin/contracts/access/AccessControl.sol\":2505:2521  _checkRole(role) */\n      tag_63\n        /* \"@openzeppelin/contracts/access/AccessControl.sol\":2516:2520  role */\n      dup2\n        /* \"@openzeppelin/contracts/access/AccessControl.sol\":2505:2515  _checkRole */\n      tag_48\n        /* \"@openzeppelin/contracts/access/AccessControl.sol\":2505:2521  _checkRole(role) */\n      jump\t// in\n    tag_63:\n        /* \"@openzeppelin/contracts/access/AccessControl.sol\":5342:5368  _revokeRole(role, account) */\n      tag_65\n        /* \"@openzeppelin/contracts/access/AccessControl.sol\":5354:5358  role */\n      dup4\n        /* \"@openzeppelin/contracts/access/AccessControl.sol\":5360:5367  account */\n      dup4\n        /* \"@openzeppelin/contracts/access/AccessControl.sol\":5342:5353  _revokeRole */\n      tag_59\n        /* \"@openzeppelin/contracts/access/AccessControl.sol\":5342:5368  _revokeRole(role, account) */\n      jump\t// in\n    tag_65:\n        /* \"@openzeppelin/contracts/access/AccessControl.sol\":5228:5375  function revokeRole(bytes32 role, address account) public virtual override onlyRole(getRoleAdmin(role)) {... */\n      pop\n      pop\n      pop\n      jump\t// out\n        /* \"@openzeppelin/contracts/utils/introspection/ERC165.sol\":829:984  function supportsInterface(bytes4 interfaceId) public view virtual override returns (bool) {... */\n    tag_43:\n        /* \"@openzeppelin/contracts/utils/introspection/ERC165.sol\":914:918  bool */\n      0x00\n        /* \"@openzeppelin/contracts/utils/introspection/ERC165.sol\":952:977  type(IERC165).interfaceId */\n      0x01ffc9a700000000000000000000000000000000000000000000000000000000\n        /* \"@openzeppelin/contracts/utils/introspection/ERC165.sol\":937:977  interfaceId == type(IERC165).interfaceId */\n      not(0xffffffffffffffffffffffffffffffffffffffffffffffffffffffff)\n      and\n        /* \"@openzeppelin/contracts/utils/introspection/ERC165.sol\":937:948  interfaceId */\n      dup3\n        /* \"@openzeppelin/contracts/utils/introspection/ERC165.sol\":937:977  interfaceId == type(IERC165).interfaceId */\n      not(0xffffffffffffffffffffffffffffffffffffffffffffffffffffffff)\n      and\n      eq\n        /* \"@openzeppelin/contracts/utils/introspection/ERC165.sol\":930:977  return interfaceId == type(IERC165).interfaceId */\n      swap1\n      pop\n        /* \"@openzeppelin/contracts/utils/introspection/ERC165.sol\":829:984  function supportsInterface(bytes4 interfaceId) public view virtual override returns (bool) {... */\n      swap2\n      swap1\n      pop\n      jump\t// out\n        /* \"@openzeppelin/contracts/access/AccessControl.sol\":3334:3437  function _checkRole(bytes32 role) internal view virtual {... */\n    tag_48:\n        /* \"@openzeppelin/contracts/access/AccessControl.sol\":3400:3430  _checkRole(role, _msgSender()) */\n      tag_68\n        /* \"@openzeppelin/contracts/access/AccessControl.sol\":3411:3415  role */\n      dup2\n        /* \"@openzeppelin/contracts/access/AccessControl.sol\":3417:3429  _msgSender() */\n      tag_69\n        /* \"@openzeppelin/contracts/access/AccessControl.sol\":3417:3427  _msgSender */\n      tag_54\n        /* \"@openzeppelin/contracts/access/AccessControl.sol\":3417:3429  _msgSender() */\n      jump\t// in\n    tag_69:\n        /* \"@openzeppelin/contracts/access/AccessControl.sol\":3400:3410  _checkRole */\n      tag_70\n        /* \"@openzeppelin/contracts/access/AccessControl.sol\":3400:3430  _checkRole(role, _msgSender()) */\n      jump\t// in\n    tag_68:\n        /* \"@openzeppelin/contracts/access/AccessControl.sol\":3334:3437  function _checkRole(bytes32 role) internal view virtual {... */\n      pop\n      jump\t// out\n        /* \"@openzeppelin/contracts/access/AccessControl.sol\":7461:7694  function _grantRole(bytes32 role, address account) internal virtual {... */\n    tag_51:\n        /* \"@openzeppelin/contracts/access/AccessControl.sol\":7544:7566  hasRole(role, account) */\n      tag_72\n        /* \"@openzeppelin/contracts/access/AccessControl.sol\":7552:7556  role */\n      dup3\n        /* \"@openzeppelin/contracts/access/AccessControl.sol\":7558:7565  account */\n      dup3\n        /* \"@openzeppelin/contracts/access/AccessControl.sol\":7544:7551  hasRole */\n      tag_32\n        /* \"@openzeppelin/contracts/access/AccessControl.sol\":7544:7566  hasRole(role, account) */\n      jump\t// in\n    tag_72:\n        /* \"@openzeppelin/contracts/access/AccessControl.sol\":7539:7688  if (!hasRole(role, account)) {... */\n      tag_73\n      jumpi\n        /* \"@openzeppelin/contracts/access/AccessControl.sol\":7614:7618  true */\n      0x01\n        /* \"@openzeppelin/contracts/access/AccessControl.sol\":7582:7588  _roles */\n      0x00\n        /* \"@openzeppelin/contracts/access/AccessControl.sol\":7582:7594  _roles[role] */\n      dup1\n        /* \"@openzeppelin/contracts/access/AccessControl.sol\":7589:7593  role */\n      dup5\n        /* \"@openzeppelin/contracts/access/AccessControl.sol\":7582:7594  _roles[role] */\n      dup2\n      mstore\n      0x20\n      add\n      swap1\n      dup2\n      mstore\n      0x20\n      add\n      0x00\n      keccak256\n        /* \"@openzeppelin/contracts/access/AccessControl.sol\":7582:7602  _roles[role].members */\n      0x00\n      add\n        /* \"@openzeppelin/contracts/access/AccessControl.sol\":7582:7611  _roles[role].members[account] */\n      0x00\n        /* \"@openzeppelin/contracts/access/AccessControl.sol\":7603:7610  account */\n      dup4\n        /* \"@openzeppelin/contracts/access/AccessControl.sol\":7582:7611  _roles[role].members[account] */\n      0xffffffffffffffffffffffffffffffffffffffff\n      and\n      0xffffffffffffffffffffffffffffffffffffffff\n      and\n      dup2\n      mstore\n      0x20\n      add\n      swap1\n      dup2\n      mstore\n      0x20\n      add\n      0x00\n      keccak256\n      0x00\n        /* \"@openzeppelin/contracts/access/AccessControl.sol\":7582:7618  _roles[role].members[account] = true */\n      0x0100\n      exp\n      dup2\n      sload\n      dup2\n      0xff\n      mul\n      not\n      and\n      swap1\n      dup4\n      iszero\n      iszero\n      mul\n      or\n      swap1\n      sstore\n      pop\n        /* \"@openzeppelin/contracts/access/AccessControl.sol\":7664:7676  _msgSender() */\n      tag_74\n        /* \"@openzeppelin/contracts/access/AccessControl.sol\":7664:7674  _msgSender */\n      tag_54\n        /* \"@openzeppelin/contracts/access/AccessControl.sol\":7664:7676  _msgSender() */\n      jump\t// in\n    tag_74:\n        /* \"@openzeppelin/contracts/access/AccessControl.sol\":7637:7677  RoleGranted(role, account, _msgSender()) */\n      0xffffffffffffffffffffffffffffffffffffffff\n      and\n        /* \"@openzeppelin/contracts/access/AccessControl.sol\":7655:7662  account */\n      dup2\n        /* \"@openzeppelin/contracts/access/AccessControl.sol\":7637:7677  RoleGranted(role, account, _msgSender()) */\n      0xffffffffffffffffffffffffffffffffffffffff\n      and\n        /* \"@openzeppelin/contracts/access/AccessControl.sol\":7649:7653  role */\n      dup4\n        /* \"@openzeppelin/contracts/access/AccessControl.sol\":7637:7677  RoleGranted(role, account, _msgSender()) */\n      0x2f8788117e7eff1d82e926ec794901d17c78024a50270940304540a733656f0d\n      mload(0x40)\n      mload(0x40)\n      dup1\n      swap2\n      sub\n      swap1\n      log4\n        /* \"@openzeppelin/contracts/access/AccessControl.sol\":7539:7688  if (!hasRole(role, account)) {... */\n    tag_73:\n        /* \"@openzeppelin/contracts/access/AccessControl.sol\":7461:7694  function _grantRole(bytes32 role, address account) internal virtual {... */\n      pop\n      pop\n      jump\t// out\n        /* \"@openzeppelin/contracts/utils/Context.sol\":640:736  function _msgSender() internal view virtual returns (address) {... */\n    tag_54:\n        /* \"@openzeppelin/contracts/utils/Context.sol\":693:700  address */\n      0x00\n        /* \"@openzeppelin/contracts/utils/Context.sol\":719:729  msg.sender */\n      caller\n        /* \"@openzeppelin/contracts/utils/Context.sol\":712:729  return msg.sender */\n      swap1\n      pop\n        /* \"@openzeppelin/contracts/utils/Context.sol\":640:736  function _msgSender() internal view virtual returns (address) {... */\n      swap1\n      jump\t// out\n        /* \"@openzeppelin/contracts/access/AccessControl.sol\":7865:8099  function _revokeRole(bytes32 role, address account) internal virtual {... */\n    tag_59:\n        /* \"@openzeppelin/contracts/access/AccessControl.sol\":7948:7970  hasRole(role, account) */\n      tag_77\n        /* \"@openzeppelin/contracts/access/AccessControl.sol\":7956:7960  role */\n      dup3\n        /* \"@openzeppelin/contracts/access/AccessControl.sol\":7962:7969  account */\n      dup3\n        /* \"@openzeppelin/contracts/access/AccessControl.sol\":7948:7955  hasRole */\n      tag_32\n        /* \"@openzeppelin/contracts/access/AccessControl.sol\":7948:7970  hasRole(role, account) */\n      jump\t// in\n    tag_77:\n        /* \"@openzeppelin/contracts/access/AccessControl.sol\":7944:8093  if (hasRole(role, account)) {... */\n      iszero\n      tag_78\n      jumpi\n        /* \"@openzeppelin/contracts/access/AccessControl.sol\":8018:8023  false */\n      0x00\n        /* \"@openzeppelin/contracts/access/AccessControl.sol\":7986:7992  _roles */\n      dup1\n        /* \"@openzeppelin/contracts/access/AccessControl.sol\":7986:7998  _roles[role] */\n      0x00\n        /* \"@openzeppelin/contracts/access/AccessControl.sol\":7993:7997  role */\n      dup5\n        /* \"@openzeppelin/contracts/access/AccessControl.sol\":7986:7998  _roles[role] */\n      dup2\n      mstore\n      0x20\n      add\n      swap1\n      dup2\n      mstore\n      0x20\n      add\n      0x00\n      keccak256\n        /* \"@openzeppelin/contracts/access/AccessControl.sol\":7986:8006  _roles[role].members */\n      0x00\n      add\n        /* \"@openzeppelin/contracts/access/AccessControl.sol\":7986:8015  _roles[role].members[account] */\n      0x00\n        /* \"@openzeppelin/contracts/access/AccessControl.sol\":8007:8014  account */\n      dup4\n        /* \"@openzeppelin/contracts/access/AccessControl.sol\":7986:8015  _roles[role].members[account] */\n      0xffffffffffffffffffffffffffffffffffffffff\n      and\n      0xffffffffffffffffffffffffffffffffffffffff\n      and\n      dup2\n      mstore\n      0x20\n      add\n      swap1\n      dup2\n      mstore\n      0x20\n      add\n      0x00\n      keccak256\n      0x00\n        /* \"@openzeppelin/contracts/access/AccessControl.sol\":7986:8023  _roles[role].members[account] = false */\n      0x0100\n      exp\n      dup2\n      sload\n      dup2\n      0xff\n      mul\n      not\n      and\n      swap1\n      dup4\n      iszero\n      iszero\n      mul\n      or\n      swap1\n      sstore\n      pop\n        /* \"@openzeppelin/contracts/access/AccessControl.sol\":8069:8081  _msgSender() */\n      tag_79\n        /* \"@openzeppelin/contracts/access/AccessControl.sol\":8069:8079  _msgSender */\n      tag_54\n        /* \"@openzeppelin/contracts/access/AccessControl.sol\":8069:8081  _msgSender() */\n      jump\t// in\n    tag_79:\n        /* \"@openzeppelin/contracts/access/AccessControl.sol\":8042:8082  RoleRevoked(role, account, _msgSender()) */\n      0xffffffffffffffffffffffffffffffffffffffff\n      and\n        /* \"@openzeppelin/contracts/access/AccessControl.sol\":8060:8067  account */\n      dup2\n        /* \"@openzeppelin/contracts/access/AccessControl.sol\":8042:8082  RoleRevoked(role, account, _msgSender()) */\n      0xffffffffffffffffffffffffffffffffffffffff\n      and\n        /* \"@openzeppelin/contracts/access/AccessControl.sol\":8054:8058  role */\n      dup4\n        /* \"@openzeppelin/contracts/access/AccessControl.sol\":8042:8082  RoleRevoked(role, account, _msgSender()) */\n      0xf6391f5c32d9c69d2a47ea670b442974b53935d1edc7fd64eb21e047a839171b\n      mload(0x40)\n      mload(0x40)\n      dup1\n      swap2\n      sub\n      swap1\n      log4\n        /* \"@openzeppelin/contracts/access/AccessControl.sol\":7944:8093  if (hasRole(role, account)) {... */\n    tag_78:\n        /* \"@openzeppelin/contracts/access/AccessControl.sol\":7865:8099  function _revokeRole(bytes32 role, address account) internal virtual {... */\n      pop\n      pop\n      jump\t// out\n        /* \"@openzeppelin/contracts/access/AccessControl.sol\":3718:4197  function _checkRole(bytes32 role, address account) internal view virtual {... */\n    tag_70:\n        /* \"@openzeppelin/contracts/access/AccessControl.sol\":3806:3828  hasRole(role, account) */\n      tag_81\n        /* \"@openzeppelin/contracts/access/AccessControl.sol\":3814:3818  role */\n      dup3\n        /* \"@openzeppelin/contracts/access/AccessControl.sol\":3820:3827  account */\n      dup3\n        /* \"@openzeppelin/contracts/access/AccessControl.sol\":3806:3813  hasRole */\n      tag_32\n        /* \"@openzeppelin/contracts/access/AccessControl.sol\":3806:3828  hasRole(role, account) */\n      jump\t// in\n    tag_81:\n        /* \"@openzeppelin/contracts/access/AccessControl.sol\":3801:4191  if (!hasRole(role, account)) {... */\n      tag_82\n      jumpi\n        /* \"@openzeppelin/contracts/access/AccessControl.sol\":3989:4017  Strings.toHexString(account) */\n      tag_83\n        /* \"@openzeppelin/contracts/access/AccessControl.sol\":4009:4016  account */\n      dup2\n        /* \"@openzeppelin/contracts/access/AccessControl.sol\":3989:4008  Strings.toHexString */\n      tag_84\n        /* \"@openzeppelin/contracts/access/AccessControl.sol\":3989:4017  Strings.toHexString(account) */\n      jump\t// in\n    tag_83:\n        /* \"@openzeppelin/contracts/access/AccessControl.sol\":4088:4126  Strings.toHexString(uint256(role), 32) */\n      tag_85\n        /* \"@openzeppelin/contracts/access/AccessControl.sol\":4116:4120  role */\n      dup4\n        /* \"@openzeppelin/contracts/access/AccessControl.sol\":4108:4121  uint256(role) */\n      0x00\n      shr\n        /* \"@openzeppelin/contracts/access/AccessControl.sol\":4123:4125  32 */\n      0x20\n        /* \"@openzeppelin/contracts/access/AccessControl.sol\":4088:4107  Strings.toHexString */\n      tag_86\n        /* \"@openzeppelin/contracts/access/AccessControl.sol\":4088:4126  Strings.toHexString(uint256(role), 32) */\n      jump\t// in\n    tag_85:\n        /* \"@openzeppelin/contracts/access/AccessControl.sol\":3896:4148  abi.encodePacked(... */\n      add(0x20, mload(0x40))\n      tag_87\n      swap3\n      swap2\n      swap1\n      tag_88\n      jump\t// in\n    tag_87:\n      mload(0x40)\n      0x20\n      dup2\n      dup4\n      sub\n      sub\n      dup2\n      mstore\n      swap1\n      0x40\n      mstore\n        /* \"@openzeppelin/contracts/access/AccessControl.sol\":3844:4180  revert(... */\n      mload(0x40)\n      0x08c379a000000000000000000000000000000000000000000000000000000000\n      dup2\n      mstore\n      0x04\n      add\n      tag_89\n      swap2\n      swap1\n      tag_90\n      jump\t// in\n    tag_89:\n      mload(0x40)\n      dup1\n      swap2\n      sub\n      swap1\n      revert\n        /* \"@openzeppelin/contracts/access/AccessControl.sol\":3801:4191  if (!hasRole(role, account)) {... */\n    tag_82:\n        /* \"@openzeppelin/contracts/access/AccessControl.sol\":3718:4197  function _checkRole(bytes32 role, address account) internal view virtual {... */\n      pop\n      pop\n      jump\t// out\n        /* \"@openzeppelin/contracts/utils/Strings.sol\":2102:2251  function toHexString(address addr) internal pure returns (string memory) {... */\n    tag_84:\n        /* \"@openzeppelin/contracts/utils/Strings.sol\":2160:2173  string memory */\n      0x60\n        /* \"@openzeppelin/contracts/utils/Strings.sol\":2192:2244  toHexString(uint256(uint160(addr)), _ADDRESS_LENGTH) */\n      tag_92\n        /* \"@openzeppelin/contracts/utils/Strings.sol\":2220:2224  addr */\n      dup3\n        /* \"@openzeppelin/contracts/utils/Strings.sol\":2204:2226  uint256(uint160(addr)) */\n      0xffffffffffffffffffffffffffffffffffffffff\n      and\n        /* \"@openzeppelin/contracts/utils/Strings.sol\":311:313  20 */\n      0x14\n        /* \"@openzeppelin/contracts/utils/Strings.sol\":2192:2244  toHexString(uint256(uint160(addr)), _ADDRESS_LENGTH) */\n      0xff\n      and\n        /* \"@openzeppelin/contracts/utils/Strings.sol\":2192:2203  toHexString */\n      tag_86\n        /* \"@openzeppelin/contracts/utils/Strings.sol\":2192:2244  toHexString(uint256(uint160(addr)), _ADDRESS_LENGTH) */\n      jump\t// in\n    tag_92:\n        /* \"@openzeppelin/contracts/utils/Strings.sol\":2185:2244  return toHexString(uint256(uint160(addr)), _ADDRESS_LENGTH) */\n      swap1\n      pop\n        /* \"@openzeppelin/contracts/utils/Strings.sol\":2102:2251  function toHexString(address addr) internal pure returns (string memory) {... */\n      swap2\n      swap1\n      pop\n      jump\t// out\n        /* \"@openzeppelin/contracts/utils/Strings.sol\":1513:1950  function toHexString(uint256 value, uint256 length) internal pure returns (string memory) {... */\n    tag_86:\n        /* \"@openzeppelin/contracts/utils/Strings.sol\":1588:1601  string memory */\n      0x60\n        /* \"@openzeppelin/contracts/utils/Strings.sol\":1613:1632  bytes memory buffer */\n      0x00\n        /* \"@openzeppelin/contracts/utils/Strings.sol\":1658:1659  2 */\n      0x02\n        /* \"@openzeppelin/contracts/utils/Strings.sol\":1649:1655  length */\n      dup4\n        /* \"@openzeppelin/contracts/utils/Strings.sol\":1645:1646  2 */\n      0x02\n        /* \"@openzeppelin/contracts/utils/Strings.sol\":1645:1655  2 * length */\n      tag_94\n      swap2\n      swap1\n      tag_95\n      jump\t// in\n    tag_94:\n        /* \"@openzeppelin/contracts/utils/Strings.sol\":1645:1659  2 * length + 2 */\n      tag_96\n      swap2\n      swap1\n      tag_97\n      jump\t// in\n    tag_96:\n        /* \"@openzeppelin/contracts/utils/Strings.sol\":1635:1660  new bytes(2 * length + 2) */\n      0xffffffffffffffff\n      dup2\n      gt\n      iszero\n      tag_98\n      jumpi\n      tag_99\n      tag_100\n      jump\t// in\n    tag_99:\n    tag_98:\n      mload(0x40)\n      swap1\n      dup1\n      dup3\n      mstore\n      dup1\n      0x1f\n      add\n      not(0x1f)\n      and\n      0x20\n      add\n      dup3\n      add\n      0x40\n      mstore\n      dup1\n      iszero\n      tag_101\n      jumpi\n      dup2\n      0x20\n      add\n      0x01\n      dup3\n      mul\n      dup1\n      calldatasize\n      dup4\n      calldatacopy\n      dup1\n      dup3\n      add\n      swap2\n      pop\n      pop\n      swap1\n      pop\n    tag_101:\n      pop\n        /* \"@openzeppelin/contracts/utils/Strings.sol\":1613:1660  bytes memory buffer = new bytes(2 * length + 2) */\n      swap1\n      pop\n        /* \"@openzeppelin/contracts/utils/Strings.sol\":1670:1685  buffer[0] = \"0\" */\n      0x3000000000000000000000000000000000000000000000000000000000000000\n        /* \"@openzeppelin/contracts/utils/Strings.sol\":1670:1676  buffer */\n      dup2\n        /* \"@openzeppelin/contracts/utils/Strings.sol\":1677:1678  0 */\n      0x00\n        /* \"@openzeppelin/contracts/utils/Strings.sol\":1670:1679  buffer[0] */\n      dup2\n      mload\n      dup2\n      lt\n      tag_102\n      jumpi\n      tag_103\n      tag_104\n      jump\t// in\n    tag_103:\n    tag_102:\n      0x20\n      add\n      add\n        /* \"@openzeppelin/contracts/utils/Strings.sol\":1670:1685  buffer[0] = \"0\" */\n      swap1\n      not(0xffffffffffffffffffffffffffffffffffffffffffffffffffffffffffffff)\n      and\n      swap1\n      dup2\n      0x00\n      byte\n      swap1\n      mstore8\n      pop\n        /* \"@openzeppelin/contracts/utils/Strings.sol\":1695:1710  buffer[1] = \"x\" */\n      0x7800000000000000000000000000000000000000000000000000000000000000\n        /* \"@openzeppelin/contracts/utils/Strings.sol\":1695:1701  buffer */\n      dup2\n        /* \"@openzeppelin/contracts/utils/Strings.sol\":1702:1703  1 */\n      0x01\n        /* \"@openzeppelin/contracts/utils/Strings.sol\":1695:1704  buffer[1] */\n      dup2\n      mload\n      dup2\n      lt\n      tag_105\n      jumpi\n      tag_106\n      tag_104\n      jump\t// in\n    tag_106:\n    tag_105:\n      0x20\n      add\n      add\n        /* \"@openzeppelin/contracts/utils/Strings.sol\":1695:1710  buffer[1] = \"x\" */\n      swap1\n      not(0xffffffffffffffffffffffffffffffffffffffffffffffffffffffffffffff)\n      and\n      swap1\n      dup2\n      0x00\n      byte\n      swap1\n      mstore8\n      pop\n        /* \"@openzeppelin/contracts/utils/Strings.sol\":1725:1734  uint256 i */\n      0x00\n        /* \"@openzeppelin/contracts/utils/Strings.sol\":1750:1751  1 */\n      0x01\n        /* \"@openzeppelin/contracts/utils/Strings.sol\":1741:1747  length */\n      dup5\n        /* \"@openzeppelin/contracts/utils/Strings.sol\":1737:1738  2 */\n      0x02\n        /* \"@openzeppelin/contracts/utils/Strings.sol\":1737:1747  2 * length */\n      tag_110\n      swap2\n      swap1\n      tag_95\n      jump\t// in\n    tag_110:\n        /* \"@openzeppelin/contracts/utils/Strings.sol\":1737:1751  2 * length + 1 */\n      tag_111\n      swap2\n      swap1\n      tag_97\n      jump\t// in\n    tag_111:\n        /* \"@openzeppelin/contracts/utils/Strings.sol\":1725:1751  uint256 i = 2 * length + 1 */\n      swap1\n      pop\n        /* \"@openzeppelin/contracts/utils/Strings.sol\":1720:1848  for (uint256 i = 2 * length + 1; i > 1; --i) {... */\n    tag_107:\n        /* \"@openzeppelin/contracts/utils/Strings.sol\":1757:1758  1 */\n      0x01\n        /* \"@openzeppelin/contracts/utils/Strings.sol\":1753:1754  i */\n      dup2\n        /* \"@openzeppelin/contracts/utils/Strings.sol\":1753:1758  i > 1 */\n      gt\n        /* \"@openzeppelin/contracts/utils/Strings.sol\":1720:1848  for (uint256 i = 2 * length + 1; i > 1; --i) {... */\n      iszero\n      tag_108\n      jumpi\n        /* \"@openzeppelin/contracts/utils/Strings.sol\":1791:1799  _SYMBOLS */\n      0x3031323334353637383961626364656600000000000000000000000000000000\n        /* \"@openzeppelin/contracts/utils/Strings.sol\":1808:1811  0xf */\n      0x0f\n        /* \"@openzeppelin/contracts/utils/Strings.sol\":1800:1805  value */\n      dup7\n        /* \"@openzeppelin/contracts/utils/Strings.sol\":1800:1811  value & 0xf */\n      and\n        /* \"@openzeppelin/contracts/utils/Strings.sol\":1791:1812  _SYMBOLS[value & 0xf] */\n      0x10\n      dup2\n      lt\n      tag_112\n      jumpi\n      tag_113\n      tag_104\n      jump\t// in\n    tag_113:\n    tag_112:\n      byte\n      0xf8\n      shl\n        /* \"@openzeppelin/contracts/utils/Strings.sol\":1779:1785  buffer */\n      dup3\n        /* \"@openzeppelin/contracts/utils/Strings.sol\":1786:1787  i */\n      dup3\n        /* \"@openzeppelin/contracts/utils/Strings.sol\":1779:1788  buffer[i] */\n      dup2\n      mload\n      dup2\n      lt\n      tag_114\n      jumpi\n      tag_115\n      tag_104\n      jump\t// in\n    tag_115:\n    tag_114:\n      0x20\n      add\n      add\n        /* \"@openzeppelin/contracts/utils/Strings.sol\":1779:1812  buffer[i] = _SYMBOLS[value & 0xf] */\n      swap1\n      not(0xffffffffffffffffffffffffffffffffffffffffffffffffffffffffffffff)\n      and\n      swap1\n      dup2\n      0x00\n      byte\n      swap1\n      mstore8\n      pop\n        /* \"@openzeppelin/contracts/utils/Strings.sol\":1836:1837  4 */\n      0x04\n        /* \"@openzeppelin/contracts/utils/Strings.sol\":1826:1837  value >>= 4 */\n      dup6\n      swap1\n      shr\n      swap5\n      pop\n        /* \"@openzeppelin/contracts/utils/Strings.sol\":1760:1763  --i */\n      dup1\n      tag_116\n      swap1\n      tag_117\n      jump\t// in\n    tag_116:\n      swap1\n      pop\n        /* \"@openzeppelin/contracts/utils/Strings.sol\":1720:1848  for (uint256 i = 2 * length + 1; i > 1; --i) {... */\n      jump(tag_107)\n    tag_108:\n      pop\n        /* \"@openzeppelin/contracts/utils/Strings.sol\":1874:1875  0 */\n      0x00\n        /* \"@openzeppelin/contracts/utils/Strings.sol\":1865:1870  value */\n      dup5\n        /* \"@openzeppelin/contracts/utils/Strings.sol\":1865:1875  value == 0 */\n      eq\n        /* \"@openzeppelin/contracts/utils/Strings.sol\":1857:1912  require(value == 0, \"Strings: hex length insufficient\") */\n      tag_118\n      jumpi\n      mload(0x40)\n      0x08c379a000000000000000000000000000000000000000000000000000000000\n      dup2\n      mstore\n      0x04\n      add\n      tag_119\n      swap1\n      tag_120\n      jump\t// in\n    tag_119:\n      mload(0x40)\n      dup1\n      swap2\n      sub\n      swap1\n      revert\n    tag_118:\n        /* \"@openzeppelin/contracts/utils/Strings.sol\":1936:1942  buffer */\n      dup1\n        /* \"@openzeppelin/contracts/utils/Strings.sol\":1922:1943  return string(buffer) */\n      swap2\n      pop\n      pop\n        /* \"@openzeppelin/contracts/utils/Strings.sol\":1513:1950  function toHexString(uint256 value, uint256 length) internal pure returns (string memory) {... */\n      swap3\n      swap2\n      pop\n      pop\n      jump\t// out\n        /* \"#utility.yul\":88:205   */\n    tag_122:\n        /* \"#utility.yul\":197:198   */\n      0x00\n        /* \"#utility.yul\":194:195   */\n      dup1\n        /* \"#utility.yul\":187:199   */\n      revert\n        /* \"#utility.yul\":334:483   */\n    tag_124:\n        /* \"#utility.yul\":370:377   */\n      0x00\n        /* \"#utility.yul\":410:476   */\n      0xffffffff00000000000000000000000000000000000000000000000000000000\n        /* \"#utility.yul\":403:408   */\n      dup3\n        /* \"#utility.yul\":399:477   */\n      and\n        /* \"#utility.yul\":388:477   */\n      swap1\n      pop\n        /* \"#utility.yul\":334:483   */\n      swap2\n      swap1\n      pop\n      jump\t// out\n        /* \"#utility.yul\":489:609   */\n    tag_125:\n        /* \"#utility.yul\":561:584   */\n      tag_160\n        /* \"#utility.yul\":578:583   */\n      dup2\n        /* \"#utility.yul\":561:584   */\n      tag_124\n      jump\t// in\n    tag_160:\n        /* \"#utility.yul\":554:559   */\n      dup2\n        /* \"#utility.yul\":551:585   */\n      eq\n        /* \"#utility.yul\":541:603   */\n      tag_161\n      jumpi\n        /* \"#utility.yul\":599:600   */\n      0x00\n        /* \"#utility.yul\":596:597   */\n      dup1\n        /* \"#utility.yul\":589:601   */\n      revert\n        /* \"#utility.yul\":541:603   */\n    tag_161:\n        /* \"#utility.yul\":489:609   */\n      pop\n      jump\t// out\n        /* \"#utility.yul\":615:752   */\n    tag_126:\n        /* \"#utility.yul\":660:665   */\n      0x00\n        /* \"#utility.yul\":698:704   */\n      dup2\n        /* \"#utility.yul\":685:705   */\n      calldataload\n        /* \"#utility.yul\":676:705   */\n      swap1\n      pop\n        /* \"#utility.yul\":714:746   */\n      tag_163\n        /* \"#utility.yul\":740:745   */\n      dup2\n        /* \"#utility.yul\":714:746   */\n      tag_125\n      jump\t// in\n    tag_163:\n        /* \"#utility.yul\":615:752   */\n      swap3\n      swap2\n      pop\n      pop\n      jump\t// out\n        /* \"#utility.yul\":758:1085   */\n    tag_13:\n        /* \"#utility.yul\":816:822   */\n      0x00\n        /* \"#utility.yul\":865:867   */\n      0x20\n        /* \"#utility.yul\":853:862   */\n      dup3\n        /* \"#utility.yul\":844:851   */\n      dup5\n        /* \"#utility.yul\":840:863   */\n      sub\n        /* \"#utility.yul\":836:868   */\n      slt\n        /* \"#utility.yul\":833:952   */\n      iszero\n      tag_165\n      jumpi\n        /* \"#utility.yul\":871:950   */\n      tag_166\n      tag_122\n      jump\t// in\n    tag_166:\n        /* \"#utility.yul\":833:952   */\n    tag_165:\n        /* \"#utility.yul\":991:992   */\n      0x00\n        /* \"#utility.yul\":1016:1068   */\n      tag_167\n        /* \"#utility.yul\":1060:1067   */\n      dup5\n        /* \"#utility.yul\":1051:1057   */\n      dup3\n        /* \"#utility.yul\":1040:1049   */\n      dup6\n        /* \"#utility.yul\":1036:1058   */\n      add\n        /* \"#utility.yul\":1016:1068   */\n      tag_126\n      jump\t// in\n    tag_167:\n        /* \"#utility.yul\":1006:1068   */\n      swap2\n      pop\n        /* \"#utility.yul\":962:1078   */\n      pop\n        /* \"#utility.yul\":758:1085   */\n      swap3\n      swap2\n      pop\n      pop\n      jump\t// out\n        /* \"#utility.yul\":1091:1181   */\n    tag_127:\n        /* \"#utility.yul\":1125:1132   */\n      0x00\n        /* \"#utility.yul\":1168:1173   */\n      dup2\n        /* \"#utility.yul\":1161:1174   */\n      iszero\n        /* \"#utility.yul\":1154:1175   */\n      iszero\n        /* \"#utility.yul\":1143:1175   */\n      swap1\n      pop\n        /* \"#utility.yul\":1091:1181   */\n      swap2\n      swap1\n      pop\n      jump\t// out\n        /* \"#utility.yul\":1187:1296   */\n    tag_128:\n        /* \"#utility.yul\":1268:1289   */\n      tag_170\n        /* \"#utility.yul\":1283:1288   */\n      dup2\n        /* \"#utility.yul\":1268:1289   */\n      tag_127\n      jump\t// in\n    tag_170:\n        /* \"#utility.yul\":1263:1266   */\n      dup3\n        /* \"#utility.yul\":1256:1290   */\n      mstore\n        /* \"#utility.yul\":1187:1296   */\n      pop\n      pop\n      jump\t// out\n        /* \"#utility.yul\":1302:1512   */\n    tag_16:\n        /* \"#utility.yul\":1389:1393   */\n      0x00\n        /* \"#utility.yul\":1427:1429   */\n      0x20\n        /* \"#utility.yul\":1416:1425   */\n      dup3\n        /* \"#utility.yul\":1412:1430   */\n      add\n        /* \"#utility.yul\":1404:1430   */\n      swap1\n      pop\n        /* \"#utility.yul\":1440:1505   */\n      tag_172\n        /* \"#utility.yul\":1502:1503   */\n      0x00\n        /* \"#utility.yul\":1491:1500   */\n      dup4\n        /* \"#utility.yul\":1487:1504   */\n      add\n        /* \"#utility.yul\":1478:1484   */\n      dup5\n        /* \"#utility.yul\":1440:1505   */\n      tag_128\n      jump\t// in\n    tag_172:\n        /* \"#utility.yul\":1302:1512   */\n      swap3\n      swap2\n      pop\n      pop\n      jump\t// out\n        /* \"#utility.yul\":1518:1595   */\n    tag_129:\n        /* \"#utility.yul\":1555:1562   */\n      0x00\n        /* \"#utility.yul\":1584:1589   */\n      dup2\n        /* \"#utility.yul\":1573:1589   */\n      swap1\n      pop\n        /* \"#utility.yul\":1518:1595   */\n      swap2\n      swap1\n      pop\n      jump\t// out\n        /* \"#utility.yul\":1601:1723   */\n    tag_130:\n        /* \"#utility.yul\":1674:1698   */\n      tag_175\n        /* \"#utility.yul\":1692:1697   */\n      dup2\n        /* \"#utility.yul\":1674:1698   */\n      tag_129\n      jump\t// in\n    tag_175:\n        /* \"#utility.yul\":1667:1672   */\n      dup2\n        /* \"#utility.yul\":1664:1699   */\n      eq\n        /* \"#utility.yul\":1654:1717   */\n      tag_176\n      jumpi\n        /* \"#utility.yul\":1713:1714   */\n      0x00\n        /* \"#utility.yul\":1710:1711   */\n      dup1\n        /* \"#utility.yul\":1703:1715   */\n      revert\n        /* \"#utility.yul\":1654:1717   */\n    tag_176:\n        /* \"#utility.yul\":1601:1723   */\n      pop\n      jump\t// out\n        /* \"#utility.yul\":1729:1868   */\n    tag_131:\n        /* \"#utility.yul\":1775:1780   */\n      0x00\n        /* \"#utility.yul\":1813:1819   */\n      dup2\n        /* \"#utility.yul\":1800:1820   */\n      calldataload\n        /* \"#utility.yul\":1791:1820   */\n      swap1\n      pop\n        /* \"#utility.yul\":1829:1862   */\n      tag_178\n        /* \"#utility.yul\":1856:1861   */\n      dup2\n        /* \"#utility.yul\":1829:1862   */\n      tag_130\n      jump\t// in\n    tag_178:\n        /* \"#utility.yul\":1729:1868   */\n      swap3\n      swap2\n      pop\n      pop\n      jump\t// out\n        /* \"#utility.yul\":1874:2203   */\n    tag_19:\n        /* \"#utility.yul\":1933:1939   */\n      0x00\n        /* \"#utility.yul\":1982:1984   */\n      0x20\n        /* \"#utility.yul\":1970:1979   */\n      dup3\n        /* \"#utility.yul\":1961:1968   */\n      dup5\n        /* \"#utility.yul\":1957:1980   */\n      sub\n        /* \"#utility.yul\":1953:1985   */\n      slt\n        /* \"#utility.yul\":1950:2069   */\n      iszero\n      tag_180\n      jumpi\n        /* \"#utility.yul\":1988:2067   */\n      tag_181\n      tag_122\n      jump\t// in\n    tag_181:\n        /* \"#utility.yul\":1950:2069   */\n    tag_180:\n        /* \"#utility.yul\":2108:2109   */\n      0x00\n        /* \"#utility.yul\":2133:2186   */\n      tag_182\n        /* \"#utility.yul\":2178:2185   */\n      dup5\n        /* \"#utility.yul\":2169:2175   */\n      dup3\n        /* \"#utility.yul\":2158:2167   */\n      dup6\n        /* \"#utility.yul\":2154:2176   */\n      add\n        /* \"#utility.yul\":2133:2186   */\n      tag_131\n      jump\t// in\n    tag_182:\n        /* \"#utility.yul\":2123:2186   */\n      swap2\n      pop\n        /* \"#utility.yul\":2079:2196   */\n      pop\n        /* \"#utility.yul\":1874:2203   */\n      swap3\n      swap2\n      pop\n      pop\n      jump\t// out\n        /* \"#utility.yul\":2209:2327   */\n    tag_132:\n        /* \"#utility.yul\":2296:2320   */\n      tag_184\n        /* \"#utility.yul\":2314:2319   */\n      dup2\n        /* \"#utility.yul\":2296:2320   */\n      tag_129\n      jump\t// in\n    tag_184:\n        /* \"#utility.yul\":2291:2294   */\n      dup3\n        /* \"#utility.yul\":2284:2321   */\n      mstore\n        /* \"#utility.yul\":2209:2327   */\n      pop\n      pop\n      jump\t// out\n        /* \"#utility.yul\":2333:2555   */\n    tag_22:\n        /* \"#utility.yul\":2426:2430   */\n      0x00\n        /* \"#utility.yul\":2464:2466   */\n      0x20\n        /* \"#utility.yul\":2453:2462   */\n      dup3\n        /* \"#utility.yul\":2449:2467   */\n      add\n        /* \"#utility.yul\":2441:2467   */\n      swap1\n      pop\n        /* \"#utility.yul\":2477:2548   */\n      tag_186\n        /* \"#utility.yul\":2545:2546   */\n      0x00\n        /* \"#utility.yul\":2534:2543   */\n      dup4\n        /* \"#utility.yul\":2530:2547   */\n      add\n        /* \"#utility.yul\":2521:2527   */\n      dup5\n        /* \"#utility.yul\":2477:2548   */\n      tag_132\n      jump\t// in\n    tag_186:\n        /* \"#utility.yul\":2333:2555   */\n      swap3\n      swap2\n      pop\n      pop\n      jump\t// out\n        /* \"#utility.yul\":2561:2687   */\n    tag_133:\n        /* \"#utility.yul\":2598:2605   */\n      0x00\n        /* \"#utility.yul\":2638:2680   */\n      0xffffffffffffffffffffffffffffffffffffffff\n        /* \"#utility.yul\":2631:2636   */\n      dup3\n        /* \"#utility.yul\":2627:2681   */\n      and\n        /* \"#utility.yul\":2616:2681   */\n      swap1\n      pop\n        /* \"#utility.yul\":2561:2687   */\n      swap2\n      swap1\n      pop\n      jump\t// out\n        /* \"#utility.yul\":2693:2789   */\n    tag_134:\n        /* \"#utility.yul\":2730:2737   */\n      0x00\n        /* \"#utility.yul\":2759:2783   */\n      tag_189\n        /* \"#utility.yul\":2777:2782   */\n      dup3\n        /* \"#utility.yul\":2759:2783   */\n      tag_133\n      jump\t// in\n    tag_189:\n        /* \"#utility.yul\":2748:2783   */\n      swap1\n      pop\n        /* \"#utility.yul\":2693:2789   */\n      swap2\n      swap1\n      pop\n      jump\t// out\n        /* \"#utility.yul\":2795:2917   */\n    tag_135:\n        /* \"#utility.yul\":2868:2892   */\n      tag_191\n        /* \"#utility.yul\":2886:2891   */\n      dup2\n        /* \"#utility.yul\":2868:2892   */\n      tag_134\n      jump\t// in\n    tag_191:\n        /* \"#utility.yul\":2861:2866   */\n      dup2\n        /* \"#utility.yul\":2858:2893   */\n      eq\n        /* \"#utility.yul\":2848:2911   */\n      tag_192\n      jumpi\n        /* \"#utility.yul\":2907:2908   */\n      0x00\n        /* \"#utility.yul\":2904:2905   */\n      dup1\n        /* \"#utility.yul\":2897:2909   */\n      revert\n        /* \"#utility.yul\":2848:2911   */\n    tag_192:\n        /* \"#utility.yul\":2795:2917   */\n      pop\n      jump\t// out\n        /* \"#utility.yul\":2923:3062   */\n    tag_136:\n        /* \"#utility.yul\":2969:2974   */\n      0x00\n        /* \"#utility.yul\":3007:3013   */\n      dup2\n        /* \"#utility.yul\":2994:3014   */\n      calldataload\n        /* \"#utility.yul\":2985:3014   */\n      swap1\n      pop\n        /* \"#utility.yul\":3023:3056   */\n      tag_194\n        /* \"#utility.yul\":3050:3055   */\n      dup2\n        /* \"#utility.yul\":3023:3056   */\n      tag_135\n      jump\t// in\n    tag_194:\n        /* \"#utility.yul\":2923:3062   */\n      swap3\n      swap2\n      pop\n      pop\n      jump\t// out\n        /* \"#utility.yul\":3068:3542   */\n    tag_25:\n        /* \"#utility.yul\":3136:3142   */\n      0x00\n        /* \"#utility.yul\":3144:3150   */\n      dup1\n        /* \"#utility.yul\":3193:3195   */\n      0x40\n        /* \"#utility.yul\":3181:3190   */\n      dup4\n        /* \"#utility.yul\":3172:3179   */\n      dup6\n        /* \"#utility.yul\":3168:3191   */\n      sub\n        /* \"#utility.yul\":3164:3196   */\n      slt\n        /* \"#utility.yul\":3161:3280   */\n      iszero\n      tag_196\n      jumpi\n        /* \"#utility.yul\":3199:3278   */\n      tag_197\n      tag_122\n      jump\t// in\n    tag_197:\n        /* \"#utility.yul\":3161:3280   */\n    tag_196:\n        /* \"#utility.yul\":3319:3320   */\n      0x00\n        /* \"#utility.yul\":3344:3397   */\n      tag_198\n        /* \"#utility.yul\":3389:3396   */\n      dup6\n        /* \"#utility.yul\":3380:3386   */\n      dup3\n        /* \"#utility.yul\":3369:3378   */\n      dup7\n        /* \"#utility.yul\":3365:3387   */\n      add\n        /* \"#utility.yul\":3344:3397   */\n      tag_131\n      jump\t// in\n    tag_198:\n        /* \"#utility.yul\":3334:3397   */\n      swap3\n      pop\n        /* \"#utility.yul\":3290:3407   */\n      pop\n        /* \"#utility.yul\":3446:3448   */\n      0x20\n        /* \"#utility.yul\":3472:3525   */\n      tag_199\n        /* \"#utility.yul\":3517:3524   */\n      dup6\n        /* \"#utility.yul\":3508:3514   */\n      dup3\n        /* \"#utility.yul\":3497:3506   */\n      dup7\n        /* \"#utility.yul\":3493:3515   */\n      add\n        /* \"#utility.yul\":3472:3525   */\n      tag_136\n      jump\t// in\n    tag_199:\n        /* \"#utility.yul\":3462:3525   */\n      swap2\n      pop\n        /* \"#utility.yul\":3417:3535   */\n      pop\n        /* \"#utility.yul\":3068:3542   */\n      swap3\n      pop\n      swap3\n      swap1\n      pop\n      jump\t// out\n        /* \"#utility.yul\":3548:3717   */\n    tag_137:\n        /* \"#utility.yul\":3632:3643   */\n      0x00\n        /* \"#utility.yul\":3666:3672   */\n      dup3\n        /* \"#utility.yul\":3661:3664   */\n      dup3\n        /* \"#utility.yul\":3654:3673   */\n      mstore\n        /* \"#utility.yul\":3706:3710   */\n      0x20\n        /* \"#utility.yul\":3701:3704   */\n      dup3\n        /* \"#utility.yul\":3697:3711   */\n      add\n        /* \"#utility.yul\":3682:3711   */\n      swap1\n      pop\n        /* \"#utility.yul\":3548:3717   */\n      swap3\n      swap2\n      pop\n      pop\n      jump\t// out\n        /* \"#utility.yul\":3723:3957   */\n    tag_138:\n        /* \"#utility.yul\":3863:3897   */\n      0x416363657373436f6e74726f6c3a2063616e206f6e6c792072656e6f756e6365\n        /* \"#utility.yul\":3859:3860   */\n      0x00\n        /* \"#utility.yul\":3851:3857   */\n      dup3\n        /* \"#utility.yul\":3847:3861   */\n      add\n        /* \"#utility.yul\":3840:3898   */\n      mstore\n        /* \"#utility.yul\":3932:3949   */\n      0x20726f6c657320666f722073656c660000000000000000000000000000000000\n        /* \"#utility.yul\":3927:3929   */\n      0x20\n        /* \"#utility.yul\":3919:3925   */\n      dup3\n        /* \"#utility.yul\":3915:3930   */\n      add\n        /* \"#utility.yul\":3908:3950   */\n      mstore\n        /* \"#utility.yul\":3723:3957   */\n      pop\n      jump\t// out\n        /* \"#utility.yul\":3963:4329   */\n    tag_139:\n        /* \"#utility.yul\":4105:4108   */\n      0x00\n        /* \"#utility.yul\":4126:4193   */\n      tag_203\n        /* \"#utility.yul\":4190:4192   */\n      0x2f\n        /* \"#utility.yul\":4185:4188   */\n      dup4\n        /* \"#utility.yul\":4126:4193   */\n      tag_137\n      jump\t// in\n    tag_203:\n        /* \"#utility.yul\":4119:4193   */\n      swap2\n      pop\n        /* \"#utility.yul\":4202:4295   */\n      tag_204\n        /* \"#utility.yul\":4291:4294   */\n      dup3\n        /* \"#utility.yul\":4202:4295   */\n      tag_138\n      jump\t// in\n    tag_204:\n        /* \"#utility.yul\":4320:4322   */\n      0x40\n        /* \"#utility.yul\":4315:4318   */\n      dup3\n        /* \"#utility.yul\":4311:4323   */\n      add\n        /* \"#utility.yul\":4304:4323   */\n      swap1\n      pop\n        /* \"#utility.yul\":3963:4329   */\n      swap2\n      swap1\n      pop\n      jump\t// out\n        /* \"#utility.yul\":4335:4754   */\n    tag_57:\n        /* \"#utility.yul\":4501:4505   */\n      0x00\n        /* \"#utility.yul\":4539:4541   */\n      0x20\n        /* \"#utility.yul\":4528:4537   */\n      dup3\n        /* \"#utility.yul\":4524:4542   */\n      add\n        /* \"#utility.yul\":4516:4542   */\n      swap1\n      pop\n        /* \"#utility.yul\":4588:4597   */\n      dup2\n        /* \"#utility.yul\":4582:4586   */\n      dup2\n        /* \"#utility.yul\":4578:4598   */\n      sub\n        /* \"#utility.yul\":4574:4575   */\n      0x00\n        /* \"#utility.yul\":4563:4572   */\n      dup4\n        /* \"#utility.yul\":4559:4576   */\n      add\n        /* \"#utility.yul\":4552:4599   */\n      mstore\n        /* \"#utility.yul\":4616:4747   */\n      tag_206\n        /* \"#utility.yul\":4742:4746   */\n      dup2\n        /* \"#utility.yul\":4616:4747   */\n      tag_139\n      jump\t// in\n    tag_206:\n        /* \"#utility.yul\":4608:4747   */\n      swap1\n      pop\n        /* \"#utility.yul\":4335:4754   */\n      swap2\n      swap1\n      pop\n      jump\t// out\n        /* \"#utility.yul\":4760:4908   */\n    tag_140:\n        /* \"#utility.yul\":4862:4873   */\n      0x00\n        /* \"#utility.yul\":4899:4902   */\n      dup2\n        /* \"#utility.yul\":4884:4902   */\n      swap1\n      pop\n        /* \"#utility.yul\":4760:4908   */\n      swap3\n      swap2\n      pop\n      pop\n      jump\t// out\n        /* \"#utility.yul\":4914:5087   */\n    tag_141:\n        /* \"#utility.yul\":5054:5079   */\n      0x416363657373436f6e74726f6c3a206163636f756e7420000000000000000000\n        /* \"#utility.yul\":5050:5051   */\n      0x00\n        /* \"#utility.yul\":5042:5048   */\n      dup3\n        /* \"#utility.yul\":5038:5052   */\n      add\n        /* \"#utility.yul\":5031:5080   */\n      mstore\n        /* \"#utility.yul\":4914:5087   */\n      pop\n      jump\t// out\n        /* \"#utility.yul\":5093:5495   */\n    tag_142:\n        /* \"#utility.yul\":5253:5256   */\n      0x00\n        /* \"#utility.yul\":5274:5359   */\n      tag_210\n        /* \"#utility.yul\":5356:5358   */\n      0x17\n        /* \"#utility.yul\":5351:5354   */\n      dup4\n        /* \"#utility.yul\":5274:5359   */\n      tag_140\n      jump\t// in\n    tag_210:\n        /* \"#utility.yul\":5267:5359   */\n      swap2\n      pop\n        /* \"#utility.yul\":5368:5461   */\n      tag_211\n        /* \"#utility.yul\":5457:5460   */\n      dup3\n        /* \"#utility.yul\":5368:5461   */\n      tag_141\n      jump\t// in\n    tag_211:\n        /* \"#utility.yul\":5486:5488   */\n      0x17\n        /* \"#utility.yul\":5481:5484   */\n      dup3\n        /* \"#utility.yul\":5477:5489   */\n      add\n        /* \"#utility.yul\":5470:5489   */\n      swap1\n      pop\n        /* \"#utility.yul\":5093:5495   */\n      swap2\n      swap1\n      pop\n      jump\t// out\n        /* \"#utility.yul\":5501:5600   */\n    tag_143:\n        /* \"#utility.yul\":5553:5559   */\n      0x00\n        /* \"#utility.yul\":5587:5592   */\n      dup2\n        /* \"#utility.yul\":5581:5593   */\n      mload\n        /* \"#utility.yul\":5571:5593   */\n      swap1\n      pop\n        /* \"#utility.yul\":5501:5600   */\n      swap2\n      swap1\n      pop\n      jump\t// out\n        /* \"#utility.yul\":5606:5852   */\n    tag_144:\n        /* \"#utility.yul\":5687:5688   */\n      0x00\n        /* \"#utility.yul\":5697:5810   */\n    tag_214:\n        /* \"#utility.yul\":5711:5717   */\n      dup4\n        /* \"#utility.yul\":5708:5709   */\n      dup2\n        /* \"#utility.yul\":5705:5718   */\n      lt\n        /* \"#utility.yul\":5697:5810   */\n      iszero\n      tag_216\n      jumpi\n        /* \"#utility.yul\":5796:5797   */\n      dup1\n        /* \"#utility.yul\":5791:5794   */\n      dup3\n        /* \"#utility.yul\":5787:5798   */\n      add\n        /* \"#utility.yul\":5781:5799   */\n      mload\n        /* \"#utility.yul\":5777:5778   */\n      dup2\n        /* \"#utility.yul\":5772:5775   */\n      dup5\n        /* \"#utility.yul\":5768:5779   */\n      add\n        /* \"#utility.yul\":5761:5800   */\n      mstore\n        /* \"#utility.yul\":5733:5735   */\n      0x20\n        /* \"#utility.yul\":5730:5731   */\n      dup2\n        /* \"#utility.yul\":5726:5736   */\n      add\n        /* \"#utility.yul\":5721:5736   */\n      swap1\n      pop\n        /* \"#utility.yul\":5697:5810   */\n      jump(tag_214)\n    tag_216:\n        /* \"#utility.yul\":5844:5845   */\n      0x00\n        /* \"#utility.yul\":5835:5841   */\n      dup5\n        /* \"#utility.yul\":5830:5833   */\n      dup5\n        /* \"#utility.yul\":5826:5842   */\n      add\n        /* \"#utility.yul\":5819:5846   */\n      mstore\n        /* \"#utility.yul\":5668:5852   */\n      pop\n        /* \"#utility.yul\":5606:5852   */\n      pop\n      pop\n      pop\n      jump\t// out\n        /* \"#utility.yul\":5858:6248   */\n    tag_145:\n        /* \"#utility.yul\":5964:5967   */\n      0x00\n        /* \"#utility.yul\":5992:6031   */\n      tag_218\n        /* \"#utility.yul\":6025:6030   */\n      dup3\n        /* \"#utility.yul\":5992:6031   */\n      tag_143\n      jump\t// in\n    tag_218:\n        /* \"#utility.yul\":6047:6136   */\n      tag_219\n        /* \"#utility.yul\":6129:6135   */\n      dup2\n        /* \"#utility.yul\":6124:6127   */\n      dup6\n        /* \"#utility.yul\":6047:6136   */\n      tag_140\n      jump\t// in\n    tag_219:\n        /* \"#utility.yul\":6040:6136   */\n      swap4\n      pop\n        /* \"#utility.yul\":6145:6210   */\n      tag_220\n        /* \"#utility.yul\":6203:6209   */\n      dup2\n        /* \"#utility.yul\":6198:6201   */\n      dup6\n        /* \"#utility.yul\":6191:6195   */\n      0x20\n        /* \"#utility.yul\":6184:6189   */\n      dup7\n        /* \"#utility.yul\":6180:6196   */\n      add\n        /* \"#utility.yul\":6145:6210   */\n      tag_144\n      jump\t// in\n    tag_220:\n        /* \"#utility.yul\":6235:6241   */\n      dup1\n        /* \"#utility.yul\":6230:6233   */\n      dup5\n        /* \"#utility.yul\":6226:6242   */\n      add\n        /* \"#utility.yul\":6219:6242   */\n      swap2\n      pop\n        /* \"#utility.yul\":5968:6248   */\n      pop\n        /* \"#utility.yul\":5858:6248   */\n      swap3\n      swap2\n      pop\n      pop\n      jump\t// out\n        /* \"#utility.yul\":6254:6421   */\n    tag_146:\n        /* \"#utility.yul\":6394:6413   */\n      0x206973206d697373696e6720726f6c6520000000000000000000000000000000\n        /* \"#utility.yul\":6390:6391   */\n      0x00\n        /* \"#utility.yul\":6382:6388   */\n      dup3\n        /* \"#utility.yul\":6378:6392   */\n      add\n        /* \"#utility.yul\":6371:6414   */\n      mstore\n        /* \"#utility.yul\":6254:6421   */\n      pop\n      jump\t// out\n        /* \"#utility.yul\":6427:6829   */\n    tag_147:\n        /* \"#utility.yul\":6587:6590   */\n      0x00\n        /* \"#utility.yul\":6608:6693   */\n      tag_223\n        /* \"#utility.yul\":6690:6692   */\n      0x11\n        /* \"#utility.yul\":6685:6688   */\n      dup4\n        /* \"#utility.yul\":6608:6693   */\n      tag_140\n      jump\t// in\n    tag_223:\n        /* \"#utility.yul\":6601:6693   */\n      swap2\n      pop\n        /* \"#utility.yul\":6702:6795   */\n      tag_224\n        /* \"#utility.yul\":6791:6794   */\n      dup3\n        /* \"#utility.yul\":6702:6795   */\n      tag_146\n      jump\t// in\n    tag_224:\n        /* \"#utility.yul\":6820:6822   */\n      0x11\n        /* \"#utility.yul\":6815:6818   */\n      dup3\n        /* \"#utility.yul\":6811:6823   */\n      add\n        /* \"#utility.yul\":6804:6823   */\n      swap1\n      pop\n        /* \"#utility.yul\":6427:6829   */\n      swap2\n      swap1\n      pop\n      jump\t// out\n        /* \"#utility.yul\":6835:7802   */\n    tag_88:\n        /* \"#utility.yul\":7217:7220   */\n      0x00\n        /* \"#utility.yul\":7239:7387   */\n      tag_226\n        /* \"#utility.yul\":7383:7386   */\n      dup3\n        /* \"#utility.yul\":7239:7387   */\n      tag_142\n      jump\t// in\n    tag_226:\n        /* \"#utility.yul\":7232:7387   */\n      swap2\n      pop\n        /* \"#utility.yul\":7404:7499   */\n      tag_227\n        /* \"#utility.yul\":7495:7498   */\n      dup3\n        /* \"#utility.yul\":7486:7492   */\n      dup6\n        /* \"#utility.yul\":7404:7499   */\n      tag_145\n      jump\t// in\n    tag_227:\n        /* \"#utility.yul\":7397:7499   */\n      swap2\n      pop\n        /* \"#utility.yul\":7516:7664   */\n      tag_228\n        /* \"#utility.yul\":7660:7663   */\n      dup3\n        /* \"#utility.yul\":7516:7664   */\n      tag_147\n      jump\t// in\n    tag_228:\n        /* \"#utility.yul\":7509:7664   */\n      swap2\n      pop\n        /* \"#utility.yul\":7681:7776   */\n      tag_229\n        /* \"#utility.yul\":7772:7775   */\n      dup3\n        /* \"#utility.yul\":7763:7769   */\n      dup5\n        /* \"#utility.yul\":7681:7776   */\n      tag_145\n      jump\t// in\n    tag_229:\n        /* \"#utility.yul\":7674:7776   */\n      swap2\n      pop\n        /* \"#utility.yul\":7793:7796   */\n      dup2\n        /* \"#utility.yul\":7786:7796   */\n      swap1\n      pop\n        /* \"#utility.yul\":6835:7802   */\n      swap4\n      swap3\n      pop\n      pop\n      pop\n      jump\t// out\n        /* \"#utility.yul\":7808:7910   */\n    tag_148:\n        /* \"#utility.yul\":7849:7855   */\n      0x00\n        /* \"#utility.yul\":7900:7902   */\n      0x1f\n        /* \"#utility.yul\":7896:7903   */\n      not\n        /* \"#utility.yul\":7891:7893   */\n      0x1f\n        /* \"#utility.yul\":7884:7889   */\n      dup4\n        /* \"#utility.yul\":7880:7894   */\n      add\n        /* \"#utility.yul\":7876:7904   */\n      and\n        /* \"#utility.yul\":7866:7904   */\n      swap1\n      pop\n        /* \"#utility.yul\":7808:7910   */\n      swap2\n      swap1\n      pop\n      jump\t// out\n        /* \"#utility.yul\":7916:8293   */\n    tag_149:\n        /* \"#utility.yul\":8004:8007   */\n      0x00\n        /* \"#utility.yul\":8032:8071   */\n      tag_232\n        /* \"#utility.yul\":8065:8070   */\n      dup3\n        /* \"#utility.yul\":8032:8071   */\n      tag_143\n      jump\t// in\n    tag_232:\n        /* \"#utility.yul\":8087:8158   */\n      tag_233\n        /* \"#utility.yul\":8151:8157   */\n      dup2\n        /* \"#utility.yul\":8146:8149   */\n      dup6\n        /* \"#utility.yul\":8087:8158   */\n      tag_137\n      jump\t// in\n    tag_233:\n        /* \"#utility.yul\":8080:8158   */\n      swap4\n      pop\n        /* \"#utility.yul\":8167:8232   */\n      tag_234\n        /* \"#utility.yul\":8225:8231   */\n      dup2\n        /* \"#utility.yul\":8220:8223   */\n      dup6\n        /* \"#utility.yul\":8213:8217   */\n      0x20\n        /* \"#utility.yul\":8206:8211   */\n      dup7\n        /* \"#utility.yul\":8202:8218   */\n      add\n        /* \"#utility.yul\":8167:8232   */\n      tag_144\n      jump\t// in\n    tag_234:\n        /* \"#utility.yul\":8257:8286   */\n      tag_235\n        /* \"#utility.yul\":8279:8285   */\n      dup2\n        /* \"#utility.yul\":8257:8286   */\n      tag_148\n      jump\t// in\n    tag_235:\n        /* \"#utility.yul\":8252:8255   */\n      dup5\n        /* \"#utility.yul\":8248:8287   */\n      add\n        /* \"#utility.yul\":8241:8287   */\n      swap2\n      pop\n        /* \"#utility.yul\":8008:8293   */\n      pop\n        /* \"#utility.yul\":7916:8293   */\n      swap3\n      swap2\n      pop\n      pop\n      jump\t// out\n        /* \"#utility.yul\":8299:8612   */\n    tag_90:\n        /* \"#utility.yul\":8412:8416   */\n      0x00\n        /* \"#utility.yul\":8450:8452   */\n      0x20\n        /* \"#utility.yul\":8439:8448   */\n      dup3\n        /* \"#utility.yul\":8435:8453   */\n      add\n        /* \"#utility.yul\":8427:8453   */\n      swap1\n      pop\n        /* \"#utility.yul\":8499:8508   */\n      dup2\n        /* \"#utility.yul\":8493:8497   */\n      dup2\n        /* \"#utility.yul\":8489:8509   */\n      sub\n        /* \"#utility.yul\":8485:8486   */\n      0x00\n        /* \"#utility.yul\":8474:8483   */\n      dup4\n        /* \"#utility.yul\":8470:8487   */\n      add\n        /* \"#utility.yul\":8463:8510   */\n      mstore\n        /* \"#utility.yul\":8527:8605   */\n      tag_237\n        /* \"#utility.yul\":8600:8604   */\n      dup2\n        /* \"#utility.yul\":8591:8597   */\n      dup5\n        /* \"#utility.yul\":8527:8605   */\n      tag_149\n      jump\t// in\n    tag_237:\n        /* \"#utility.yul\":8519:8605   */\n      swap1\n      pop\n        /* \"#utility.yul\":8299:8612   */\n      swap3\n      swap2\n      pop\n      pop\n      jump\t// out\n        /* \"#utility.yul\":8618:8695   */\n    tag_150:\n        /* \"#utility.yul\":8655:8662   */\n      0x00\n        /* \"#utility.yul\":8684:8689   */\n      dup2\n        /* \"#utility.yul\":8673:8689   */\n      swap1\n      pop\n        /* \"#utility.yul\":8618:8695   */\n      swap2\n      swap1\n      pop\n      jump\t// out\n        /* \"#utility.yul\":8701:8881   */\n    tag_151:\n        /* \"#utility.yul\":8749:8826   */\n      0x4e487b7100000000000000000000000000000000000000000000000000000000\n        /* \"#utility.yul\":8746:8747   */\n      0x00\n        /* \"#utility.yul\":8739:8827   */\n      mstore\n        /* \"#utility.yul\":8846:8850   */\n      0x11\n        /* \"#utility.yul\":8843:8844   */\n      0x04\n        /* \"#utility.yul\":8836:8851   */\n      mstore\n        /* \"#utility.yul\":8870:8874   */\n      0x24\n        /* \"#utility.yul\":8867:8868   */\n      0x00\n        /* \"#utility.yul\":8860:8875   */\n      revert\n        /* \"#utility.yul\":8887:9297   */\n    tag_95:\n        /* \"#utility.yul\":8927:8934   */\n      0x00\n        /* \"#utility.yul\":8950:8970   */\n      tag_241\n        /* \"#utility.yul\":8968:8969   */\n      dup3\n        /* \"#utility.yul\":8950:8970   */\n      tag_150\n      jump\t// in\n    tag_241:\n        /* \"#utility.yul\":8945:8970   */\n      swap2\n      pop\n        /* \"#utility.yul\":8984:9004   */\n      tag_242\n        /* \"#utility.yul\":9002:9003   */\n      dup4\n        /* \"#utility.yul\":8984:9004   */\n      tag_150\n      jump\t// in\n    tag_242:\n        /* \"#utility.yul\":8979:9004   */\n      swap3\n      pop\n        /* \"#utility.yul\":9039:9040   */\n      dup3\n        /* \"#utility.yul\":9036:9037   */\n      dup3\n        /* \"#utility.yul\":9032:9041   */\n      mul\n        /* \"#utility.yul\":9061:9091   */\n      tag_243\n        /* \"#utility.yul\":9079:9090   */\n      dup2\n        /* \"#utility.yul\":9061:9091   */\n      tag_150\n      jump\t// in\n    tag_243:\n        /* \"#utility.yul\":9050:9091   */\n      swap2\n      pop\n        /* \"#utility.yul\":9240:9241   */\n      dup3\n        /* \"#utility.yul\":9231:9238   */\n      dup3\n        /* \"#utility.yul\":9227:9242   */\n      div\n        /* \"#utility.yul\":9224:9225   */\n      dup5\n        /* \"#utility.yul\":9221:9243   */\n      eq\n        /* \"#utility.yul\":9201:9202   */\n      dup4\n        /* \"#utility.yul\":9194:9203   */\n      iszero\n        /* \"#utility.yul\":9174:9257   */\n      or\n        /* \"#utility.yul\":9151:9290   */\n      tag_244\n      jumpi\n        /* \"#utility.yul\":9270:9288   */\n      tag_245\n      tag_151\n      jump\t// in\n    tag_245:\n        /* \"#utility.yul\":9151:9290   */\n    tag_244:\n        /* \"#utility.yul\":8935:9297   */\n      pop\n        /* \"#utility.yul\":8887:9297   */\n      swap3\n      swap2\n      pop\n      pop\n      jump\t// out\n        /* \"#utility.yul\":9303:9494   */\n    tag_97:\n        /* \"#utility.yul\":9343:9346   */\n      0x00\n        /* \"#utility.yul\":9362:9382   */\n      tag_247\n        /* \"#utility.yul\":9380:9381   */\n      dup3\n        /* \"#utility.yul\":9362:9382   */\n      tag_150\n      jump\t// in\n    tag_247:\n        /* \"#utility.yul\":9357:9382   */\n      swap2\n      pop\n        /* \"#utility.yul\":9396:9416   */\n      tag_248\n        /* \"#utility.yul\":9414:9415   */\n      dup4\n        /* \"#utility.yul\":9396:9416   */\n      tag_150\n      jump\t// in\n    tag_248:\n        /* \"#utility.yul\":9391:9416   */\n      swap3\n      pop\n        /* \"#utility.yul\":9439:9440   */\n      dup3\n        /* \"#utility.yul\":9436:9437   */\n      dup3\n        /* \"#utility.yul\":9432:9441   */\n      add\n        /* \"#utility.yul\":9425:9441   */\n      swap1\n      pop\n        /* \"#utility.yul\":9460:9463   */\n      dup1\n        /* \"#utility.yul\":9457:9458   */\n      dup3\n        /* \"#utility.yul\":9454:9464   */\n      gt\n        /* \"#utility.yul\":9451:9487   */\n      iszero\n      tag_249\n      jumpi\n        /* \"#utility.yul\":9467:9485   */\n      tag_250\n      tag_151\n      jump\t// in\n    tag_250:\n        /* \"#utility.yul\":9451:9487   */\n    tag_249:\n        /* \"#utility.yul\":9303:9494   */\n      swap3\n      swap2\n      pop\n      pop\n      jump\t// out\n        /* \"#utility.yul\":9500:9680   */\n    tag_100:\n        /* \"#utility.yul\":9548:9625   */\n      0x4e487b7100000000000000000000000000000000000000000000000000000000\n        /* \"#utility.yul\":9545:9546   */\n      0x00\n        /* \"#utility.yul\":9538:9626   */\n      mstore\n        /* \"#utility.yul\":9645:9649   */\n      0x41\n        /* \"#utility.yul\":9642:9643   */\n      0x04\n        /* \"#utility.yul\":9635:9650   */\n      mstore\n        /* \"#utility.yul\":9669:9673   */\n      0x24\n        /* \"#utility.yul\":9666:9667   */\n      0x00\n        /* \"#utility.yul\":9659:9674   */\n      revert\n        /* \"#utility.yul\":9686:9866   */\n    tag_104:\n        /* \"#utility.yul\":9734:9811   */\n      0x4e487b7100000000000000000000000000000000000000000000000000000000\n        /* \"#utility.yul\":9731:9732   */\n      0x00\n        /* \"#utility.yul\":9724:9812   */\n      mstore\n        /* \"#utility.yul\":9831:9835   */\n      0x32\n        /* \"#utility.yul\":9828:9829   */\n      0x04\n        /* \"#utility.yul\":9821:9836   */\n      mstore\n        /* \"#utility.yul\":9855:9859   */\n      0x24\n        /* \"#utility.yul\":9852:9853   */\n      0x00\n        /* \"#utility.yul\":9845:9860   */\n      revert\n        /* \"#utility.yul\":9872:10043   */\n    tag_117:\n        /* \"#utility.yul\":9911:9914   */\n      0x00\n        /* \"#utility.yul\":9934:9958   */\n      tag_254\n        /* \"#utility.yul\":9952:9957   */\n      dup3\n        /* \"#utility.yul\":9934:9958   */\n      tag_150\n      jump\t// in\n    tag_254:\n        /* \"#utility.yul\":9925:9958   */\n      swap2\n      pop\n        /* \"#utility.yul\":9980:9984   */\n      0x00\n        /* \"#utility.yul\":9973:9978   */\n      dup3\n        /* \"#utility.yul\":9970:9985   */\n      sub\n        /* \"#utility.yul\":9967:10008   */\n      tag_255\n      jumpi\n        /* \"#utility.yul\":9988:10006   */\n      tag_256\n      tag_151\n      jump\t// in\n    tag_256:\n        /* \"#utility.yul\":9967:10008   */\n    tag_255:\n        /* \"#utility.yul\":10035:10036   */\n      0x01\n        /* \"#utility.yul\":10028:10033   */\n      dup3\n        /* \"#utility.yul\":10024:10037   */\n      sub\n        /* \"#utility.yul\":10017:10037   */\n      swap1\n      pop\n        /* \"#utility.yul\":9872:10043   */\n      swap2\n      swap1\n      pop\n      jump\t// out\n        /* \"#utility.yul\":10049:10231   */\n    tag_152:\n        /* \"#utility.yul\":10189:10223   */\n      0x537472696e67733a20686578206c656e67746820696e73756666696369656e74\n        /* \"#utility.yul\":10185:10186   */\n      0x00\n        /* \"#utility.yul\":10177:10183   */\n      dup3\n        /* \"#utility.yul\":10173:10187   */\n      add\n        /* \"#utility.yul\":10166:10224   */\n      mstore\n        /* \"#utility.yul\":10049:10231   */\n      pop\n      jump\t// out\n        /* \"#utility.yul\":10237:10603   */\n    tag_153:\n        /* \"#utility.yul\":10379:10382   */\n      0x00\n        /* \"#utility.yul\":10400:10467   */\n      tag_259\n        /* \"#utility.yul\":10464:10466   */\n      0x20\n        /* \"#utility.yul\":10459:10462   */\n      dup4\n        /* \"#utility.yul\":10400:10467   */\n      tag_137\n      jump\t// in\n    tag_259:\n        /* \"#utility.yul\":10393:10467   */\n      swap2\n      pop\n        /* \"#utility.yul\":10476:10569   */\n      tag_260\n        /* \"#utility.yul\":10565:10568   */\n      dup3\n        /* \"#utility.yul\":10476:10569   */\n      tag_152\n      jump\t// in\n    tag_260:\n        /* \"#utility.yul\":10594:10596   */\n      0x20\n        /* \"#utility.yul\":10589:10592   */\n      dup3\n        /* \"#utility.yul\":10585:10597   */\n      add\n        /* \"#utility.yul\":10578:10597   */\n      swap1\n      pop\n        /* \"#utility.yul\":10237:10603   */\n      swap2\n      swap1\n      pop\n      jump\t// out\n        /* \"#utility.yul\":10609:11028   */\n    tag_120:\n        /* \"#utility.yul\":10775:10779   */\n      0x00\n        /* \"#utility.yul\":10813:10815   */\n      0x20\n        /* \"#utility.yul\":10802:10811   */\n      dup3\n        /* \"#utility.yul\":10798:10816   */\n      add\n        /* \"#utility.yul\":10790:10816   */\n      swap1\n      pop\n        /* \"#utility.yul\":10862:10871   */\n      dup2\n        /* \"#utility.yul\":10856:10860   */\n      dup2\n        /* \"#utility.yul\":10852:10872   */\n      sub\n        /* \"#utility.yul\":10848:10849   */\n      0x00\n        /* \"#utility.yul\":10837:10846   */\n      dup4\n        /* \"#utility.yul\":10833:10850   */\n      add\n        /* \"#utility.yul\":10826:10873   */\n      mstore\n        /* \"#utility.yul\":10890:11021   */\n      tag_262\n        /* \"#utility.yul\":11016:11020   */\n      dup2\n        /* \"#utility.yul\":10890:11021   */\n      tag_153\n      jump\t// in\n    tag_262:\n        /* \"#utility.yul\":10882:11021   */\n      swap1\n      pop\n        /* \"#utility.yul\":10609:11028   */\n      swap2\n      swap1\n      pop\n      jump\t// out\n\n    auxdata: 0xa26469706673582212200c274ce2647b19a208957b708ba58a2a6e4a77fa28bba2201340991e0b49cf1764736f6c63430008130033\n}\n",
				"bytecode": {
					"linkReferences": {},
					"object": "608060405234801561001057600080fd5b506100246000801b3361002960201b60201c565b610187565b610039828261011560201b60201c565b61011157600160008084815260200190815260200160002060000160008373ffffffffffffffffffffffffffffffffffffffff1673ffffffffffffffffffffffffffffffffffffffff16815260200190815260200160002060006101000a81548160ff0219169083151502179055506100b661017f60201b60201c565b73ffffffffffffffffffffffffffffffffffffffff168173ffffffffffffffffffffffffffffffffffffffff16837f2f8788117e7eff1d82e926ec794901d17c78024a50270940304540a733656f0d60405160405180910390a45b5050565b600080600084815260200190815260200160002060000160008373ffffffffffffffffffffffffffffffffffffffff1673ffffffffffffffffffffffffffffffffffffffff16815260200190815260200160002060009054906101000a900460ff16905092915050565b600033905090565b610e9d806101966000396000f3fe608060405234801561001057600080fd5b506004361061007d5760003560e01c806336568abe1161005b57806336568abe146100fe57806391d148541461011a578063a217fddf1461014a578063d547741f146101685761007d565b806301ffc9a714610082578063248a9ca3146100b25780632f2ff15d146100e2575b600080fd5b61009c600480360381019061009791906108e5565b610184565b6040516100a9919061092d565b60405180910390f35b6100cc60048036038101906100c7919061097e565b6101fe565b6040516100d991906109ba565b60405180910390f35b6100fc60048036038101906100f79190610a33565b61021d565b005b61011860048036038101906101139190610a33565b61023e565b005b610134600480360381019061012f9190610a33565b6102c1565b604051610141919061092d565b60405180910390f35b61015261032b565b60405161015f91906109ba565b60405180910390f35b610182600480360381019061017d9190610a33565b610332565b005b60007f7965db0b000000000000000000000000000000000000000000000000000000007bffffffffffffffffffffffffffffffffffffffffffffffffffffffff1916827bffffffffffffffffffffffffffffffffffffffffffffffffffffffff191614806101f757506101f682610353565b5b9050919050565b6000806000838152602001908152602001600020600101549050919050565b610226826101fe565b61022f816103bd565b61023983836103d1565b505050565b6102466104b1565b73ffffffffffffffffffffffffffffffffffffffff168173ffffffffffffffffffffffffffffffffffffffff16146102b3576040517f08c379a00000000000000000000000000000000000000000000000000000000081526004016102aa90610af6565b60405180910390fd5b6102bd82826104b9565b5050565b600080600084815260200190815260200160002060000160008373ffffffffffffffffffffffffffffffffffffffff1673ffffffffffffffffffffffffffffffffffffffff16815260200190815260200160002060009054906101000a900460ff16905092915050565b6000801b81565b61033b826101fe565b610344816103bd565b61034e83836104b9565b505050565b60007f01ffc9a7000000000000000000000000000000000000000000000000000000007bffffffffffffffffffffffffffffffffffffffffffffffffffffffff1916827bffffffffffffffffffffffffffffffffffffffffffffffffffffffff1916149050919050565b6103ce816103c96104b1565b61059a565b50565b6103db82826102c1565b6104ad57600160008084815260200190815260200160002060000160008373ffffffffffffffffffffffffffffffffffffffff1673ffffffffffffffffffffffffffffffffffffffff16815260200190815260200160002060006101000a81548160ff0219169083151502179055506104526104b1565b73ffffffffffffffffffffffffffffffffffffffff168173ffffffffffffffffffffffffffffffffffffffff16837f2f8788117e7eff1d82e926ec794901d17c78024a50270940304540a733656f0d60405160405180910390a45b5050565b600033905090565b6104c382826102c1565b1561059657600080600084815260200190815260200160002060000160008373ffffffffffffffffffffffffffffffffffffffff1673ffffffffffffffffffffffffffffffffffffffff16815260200190815260200160002060006101000a81548160ff02191690831515021790555061053b6104b1565b73ffffffffffffffffffffffffffffffffffffffff168173ffffffffffffffffffffffffffffffffffffffff16837ff6391f5c32d9c69d2a47ea670b442974b53935d1edc7fd64eb21e047a839171b60405160405180910390a45b5050565b6105a482826102c1565b61061b576105b18161061f565b6105bf8360001c602061064c565b6040516020016105d0929190610c1f565b6040516020818303038152906040526040517f08c379a00000000000000000000000000000000000000000000000000000000081526004016106129190610ca3565b60405180910390fd5b5050565b60606106458273ffffffffffffffffffffffffffffffffffffffff16601460ff1661064c565b9050919050565b60606000600283600261065f9190610cfe565b6106699190610d40565b67ffffffffffffffff81111561068257610681610d74565b5b6040519080825280601f01601f1916602001820160405280156106b45781602001600182028036833780820191505090505b5090507f3000000000000000000000000000000000000000000000000000000000000000816000815181106106ec576106eb610da3565b5b60200101907effffffffffffffffffffffffffffffffffffffffffffffffffffffffffffff1916908160001a9053507f7800000000000000000000000000000000000000000000000000000000000000816001815181106107505761074f610da3565b5b60200101907effffffffffffffffffffffffffffffffffffffffffffffffffffffffffffff1916908160001a905350600060018460026107909190610cfe565b61079a9190610d40565b90505b600181111561083a577f3031323334353637383961626364656600000000000000000000000000000000600f8616601081106107dc576107db610da3565b5b1a60f81b8282815181106107f3576107f2610da3565b5b60200101907effffffffffffffffffffffffffffffffffffffffffffffffffffffffffffff1916908160001a905350600485901c94508061083390610dd2565b905061079d565b506000841461087e576040517f08c379a000000000000000000000000000000000000000000000000000000000815260040161087590610e47565b60405180910390fd5b8091505092915050565b600080fd5b60007fffffffff0000000000000000000000000000000000000000000000000000000082169050919050565b6108c28161088d565b81146108cd57600080fd5b50565b6000813590506108df816108b9565b92915050565b6000602082840312156108fb576108fa610888565b5b6000610909848285016108d0565b91505092915050565b60008115159050919050565b61092781610912565b82525050565b6000602082019050610942600083018461091e565b92915050565b6000819050919050565b61095b81610948565b811461096657600080fd5b50565b60008135905061097881610952565b92915050565b60006020828403121561099457610993610888565b5b60006109a284828501610969565b91505092915050565b6109b481610948565b82525050565b60006020820190506109cf60008301846109ab565b92915050565b600073ffffffffffffffffffffffffffffffffffffffff82169050919050565b6000610a00826109d5565b9050919050565b610a10816109f5565b8114610a1b57600080fd5b50565b600081359050610a2d81610a07565b92915050565b60008060408385031215610a4a57610a49610888565b5b6000610a5885828601610969565b9250506020610a6985828601610a1e565b9150509250929050565b600082825260208201905092915050565b7f416363657373436f6e74726f6c3a2063616e206f6e6c792072656e6f756e636560008201527f20726f6c657320666f722073656c660000000000000000000000000000000000602082015250565b6000610ae0602f83610a73565b9150610aeb82610a84565b604082019050919050565b60006020820190508181036000830152610b0f81610ad3565b9050919050565b600081905092915050565b7f416363657373436f6e74726f6c3a206163636f756e7420000000000000000000600082015250565b6000610b57601783610b16565b9150610b6282610b21565b601782019050919050565b600081519050919050565b60005b83811015610b96578082015181840152602081019050610b7b565b60008484015250505050565b6000610bad82610b6d565b610bb78185610b16565b9350610bc7818560208601610b78565b80840191505092915050565b7f206973206d697373696e6720726f6c6520000000000000000000000000000000600082015250565b6000610c09601183610b16565b9150610c1482610bd3565b601182019050919050565b6000610c2a82610b4a565b9150610c368285610ba2565b9150610c4182610bfc565b9150610c4d8284610ba2565b91508190509392505050565b6000601f19601f8301169050919050565b6000610c7582610b6d565b610c7f8185610a73565b9350610c8f818560208601610b78565b610c9881610c59565b840191505092915050565b60006020820190508181036000830152610cbd8184610c6a565b905092915050565b6000819050919050565b7f4e487b7100000000000000000000000000000000000000000000000000000000600052601160045260246000fd5b6000610d0982610cc5565b9150610d1483610cc5565b9250828202610d2281610cc5565b91508282048414831517610d3957610d38610ccf565b5b5092915050565b6000610d4b82610cc5565b9150610d5683610cc5565b9250828201905080821115610d6e57610d6d610ccf565b5b92915050565b7f4e487b7100000000000000000000000000000000000000000000000000000000600052604160045260246000fd5b7f4e487b7100000000000000000000000000000000000000000000000000000000600052603260045260246000fd5b6000610ddd82610cc5565b915060008203610df057610def610ccf565b5b600182039050919050565b7f537472696e67733a20686578206c656e67746820696e73756666696369656e74600082015250565b6000610e31602083610a73565b9150610e3c82610dfb565b602082019050919050565b60006020820190508181036000830152610e6081610e24565b905091905056fea26469706673582212200c274ce2647b19a208957b708ba58a2a6e4a77fa28bba2201340991e0b49cf1764736f6c63430008130033",
					"opcodes": "PUSH1 0x80 PUSH1 0x40 MSTORE CALLVALUE DUP1 ISZERO PUSH2 0x10 JUMPI PUSH1 0x0 DUP1 REVERT JUMPDEST POP PUSH2 0x24 PUSH1 0x0 DUP1 SHL CALLER PUSH2 0x29 PUSH1 0x20 SHL PUSH1 0x20 SHR JUMP JUMPDEST PUSH2 0x187 JUMP JUMPDEST PUSH2 0x39 DUP3 DUP3 PUSH2 0x115 PUSH1 0x20 SHL PUSH1 0x20 SHR JUMP JUMPDEST PUSH2 0x111 JUMPI PUSH1 0x1 PUSH1 0x0 DUP1 DUP5 DUP2 MSTORE PUSH1 0x20 ADD SWAP1 DUP2 MSTORE PUSH1 0x20 ADD PUSH1 0x0 KECCAK256 PUSH1 0x0 ADD PUSH1 0x0 DUP4 PUSH20 0xFFFFFFFFFFFFFFFFFFFFFFFFFFFFFFFFFFFFFFFF AND PUSH20 0xFFFFFFFFFFFFFFFFFFFFFFFFFFFFFFFFFFFFFFFF AND DUP2 MSTORE PUSH1 0x20 ADD SWAP1 DUP2 MSTORE PUSH1 0x20 ADD PUSH1 0x0 KECCAK256 PUSH1 0x0 PUSH2 0x100 EXP DUP2 SLOAD DUP2 PUSH1 0xFF MUL NOT AND SWAP1 DUP4 ISZERO ISZERO MUL OR SWAP1 SSTORE POP PUSH2 0xB6 PUSH2 0x17F PUSH1 0x20 SHL PUSH1 0x20 SHR JUMP JUMPDEST PUSH20 0xFFFFFFFFFFFFFFFFFFFFFFFFFFFFFFFFFFFFFFFF AND DUP2 PUSH20 0xFFFFFFFFFFFFFFFFFFFFFFFFFFFFFFFFFFFFFFFF AND DUP4 PUSH32 0x2F8788117E7EFF1D82E926EC794901D17C78024A50270940304540A733656F0D PUSH1 0x40 MLOAD PUSH1 0x40 MLOAD DUP1 SWAP2 SUB SWAP1 LOG4 JUMPDEST POP POP JUMP JUMPDEST PUSH1 0x0 DUP1 PUSH1 0x0 DUP5 DUP2 MSTORE PUSH1 0x20 ADD SWAP1 DUP2 MSTORE PUSH1 0x20 ADD PUSH1 0x0 KECCAK256 PUSH1 0x0 ADD PUSH1 0x0 DUP4 PUSH20 0xFFFFFFFFFFFFFFFFFFFFFFFFFFFFFFFFFFFFFFFF AND PUSH20 0xFFFFFFFFFFFFFFFFFFFFFFFFFFFFFFFFFFFFFFFF AND DUP2 MSTORE PUSH1 0x20 ADD SWAP1 DUP2 MSTORE PUSH1 0x20 ADD PUSH1 0x0 KECCAK256 PUSH1 0x0 SWAP1 SLOAD SWAP1 PUSH2 0x100 EXP SWAP1 DIV PUSH1 0xFF AND SWAP1 POP SWAP3 SWAP2 POP POP JUMP JUMPDEST PUSH1 0x0 CALLER SWAP1 POP SWAP1 JUMP JUMPDEST PUSH2 0xE9D DUP1 PUSH2 0x196 PUSH1 0x0 CODECOPY PUSH1 0x0 RETURN INVALID PUSH1 0x80 PUSH1 0x40 MSTORE CALLVALUE DUP1 ISZERO PUSH2 0x10 JUMPI PUSH1 0x0 DUP1 REVERT JUMPDEST POP PUSH1 0x4 CALLDATASIZE LT PUSH2 0x7D JUMPI PUSH1 0x0 CALLDATALOAD PUSH1 0xE0 SHR DUP1 PUSH4 0x36568ABE GT PUSH2 0x5B JUMPI DUP1 PUSH4 0x36568ABE EQ PUSH2 0xFE JUMPI DUP1 PUSH4 0x91D14854 EQ PUSH2 0x11A JUMPI DUP1 PUSH4 0xA217FDDF EQ PUSH2 0x14A JUMPI DUP1 PUSH4 0xD547741F EQ PUSH2 0x168 JUMPI PUSH2 0x7D JUMP JUMPDEST DUP1 PUSH4 0x1FFC9A7 EQ PUSH2 0x82 JUMPI DUP1 PUSH4 0x248A9CA3 EQ PUSH2 0xB2 JUMPI DUP1 PUSH4 0x2F2FF15D EQ PUSH2 0xE2 JUMPI JUMPDEST PUSH1 0x0 DUP1 REVERT JUMPDEST PUSH2 0x9C PUSH1 0x4 DUP1 CALLDATASIZE SUB DUP2 ADD SWAP1 PUSH2 0x97 SWAP2 SWAP1 PUSH2 0x8E5 JUMP JUMPDEST PUSH2 0x184 JUMP JUMPDEST PUSH1 0x40 MLOAD PUSH2 0xA9 SWAP2 SWAP1 PUSH2 0x92D JUMP JUMPDEST PUSH1 0x40 MLOAD DUP1 SWAP2 SUB SWAP1 RETURN JUMPDEST PUSH2 0xCC PUSH1 0x4 DUP1 CALLDATASIZE SUB DUP2 ADD SWAP1 PUSH2 0xC7 SWAP2 SWAP1 PUSH2 0x97E JUMP JUMPDEST PUSH2 0x1FE JUMP JUMPDEST PUSH1 0x40 MLOAD PUSH2 0xD9 SWAP2 SWAP1 PUSH2 0x9BA JUMP JUMPDEST PUSH1 0x40 MLOAD DUP1 SWAP2 SUB SWAP1 RETURN JUMPDEST PUSH2 0xFC PUSH1 0x4 DUP1 CALLDATASIZE SUB DUP2 ADD SWAP1 PUSH2 0xF7 SWAP2 SWAP1 PUSH2 0xA33 JUMP JUMPDEST PUSH2 0x21D JUMP JUMPDEST STOP JUMPDEST PUSH2 0x118 PUSH1 0x4 DUP1 CALLDATASIZE SUB DUP2 ADD SWAP1 PUSH2 0x113 SWAP2 SWAP1 PUSH2 0xA33 JUMP JUMPDEST PUSH2 0x23E JUMP JUMPDEST STOP JUMPDEST PUSH2 0x134 PUSH1 0x4 DUP1 CALLDATASIZE SUB DUP2 ADD SWAP1 PUSH2 0x12F SWAP2 SWAP1 PUSH2 0xA33 JUMP JUMPDEST PUSH2 0x2C1 JUMP JUMPDEST PUSH1 0x40 MLOAD PUSH2 0x141 SWAP2 SWAP1 PUSH2 0x92D JUMP JUMPDEST PUSH1 0x40 MLOAD DUP1 SWAP2 SUB SWAP1 RETURN JUMPDEST PUSH2 0x152 PUSH2 0x32B JUMP JUMPDEST PUSH1 0x40 MLOAD PUSH2 0x15F SWAP2 SWAP1 PUSH2 0x9BA JUMP JUMPDEST PUSH1 0x40 MLOAD DUP1 SWAP2 SUB SWAP1 RETURN JUMPDEST PUSH2 0x182 PUSH1 0x4 DUP1 CALLDATASIZE SUB DUP2 ADD SWAP1 PUSH2 0x17D SWAP2 SWAP1 PUSH2 0xA33 JUMP JUMPDEST PUSH2 0x332 JUMP JUMPDEST STOP JUMPDEST PUSH1 0x0 PUSH32 0x7965DB0B00000000000000000000000000000000000000000000000000000000 PUSH28 0xFFFFFFFFFFFFFFFFFFFFFFFFFFFFFFFFFFFFFFFFFFFFFFFFFFFFFFFF NOT AND DUP3 PUSH28 0xFFFFFFFFFFFFFFFFFFFFFFFFFFFFFFFFFFFFFFFFFFFFFFFFFFFFFFFF NOT AND EQ DUP1 PUSH2 0x1F7 JUMPI POP PUSH2 0x1F6 DUP3 PUSH2 0x353 JUMP JUMPDEST JUMPDEST SWAP1 POP SWAP2 SWAP1 POP JUMP JUMPDEST PUSH1 0x0 DUP1 PUSH1 0x0 DUP4 DUP2 MSTORE PUSH1 0x20 ADD SWAP1 DUP2 MSTORE PUSH1 0x20 ADD PUSH1 0x0 KECCAK256 PUSH1 0x1 ADD SLOAD SWAP1 POP SWAP2 SWAP1 POP JUMP JUMPDEST PUSH2 0x226 DUP3 PUSH2 0x1FE JUMP JUMPDEST PUSH2 0x22F DUP2 PUSH2 0x3BD JUMP JUMPDEST PUSH2 0x239 DUP4 DUP4 PUSH2 0x3D1 JUMP JUMPDEST POP POP POP JUMP JUMPDEST PUSH2 0x246 PUSH2 0x4B1 JUMP JUMPDEST PUSH20 0xFFFFFFFFFFFFFFFFFFFFFFFFFFFFFFFFFFFFFFFF AND DUP2 PUSH20 0xFFFFFFFFFFFFFFFFFFFFFFFFFFFFFFFFFFFFFFFF AND EQ PUSH2 0x2B3 JUMPI PUSH1 0x40 MLOAD PUSH32 0x8C379A000000000000000000000000000000000000000000000000000000000 DUP2 MSTORE PUSH1 0x4 ADD PUSH2 0x2AA SWAP1 PUSH2 0xAF6 JUMP JUMPDEST PUSH1 0x40 MLOAD DUP1 SWAP2 SUB SWAP1 REVERT JUMPDEST PUSH2 0x2BD DUP3 DUP3 PUSH2 0x4B9 JUMP JUMPDEST POP POP JUMP JUMPDEST PUSH1 0x0 DUP1 PUSH1 0x0 DUP5 DUP2 MSTORE PUSH1 0x20 ADD SWAP1 DUP2 MSTORE PUSH1 0x20 ADD PUSH1 0x0 KECCAK256 PUSH1 0x0 ADD PUSH1 0x0 DUP4 PUSH20 0xFFFFFFFFFFFFFFFFFFFFFFFFFFFFFFFFFFFFFFFF AND PUSH20 0xFFFFFFFFFFFFFFFFFFFFFFFFFFFFFFFFFFFFFFFF AND DUP2 MSTORE PUSH1 0x20 ADD SWAP1 DUP2 MSTORE PUSH1 0x20 ADD PUSH1 0x0 KECCAK256 PUSH1 0x0 SWAP1 SLOAD SWAP1 PUSH2 0x100 EXP SWAP1 DIV PUSH1 0xFF AND SWAP1 POP SWAP3 SWAP2 POP POP JUMP JUMPDEST PUSH1 0x0 DUP1 SHL DUP2 JUMP JUMPDEST PUSH2 0x33B DUP3 PUSH2 0x1FE JUMP JUMPDEST PUSH2 0x344 DUP2 PUSH2 0x3BD JUMP JUMPDEST PUSH2 0x34E DUP4 DUP4 PUSH2 0x4B9 JUMP JUMPDEST POP POP POP JUMP JUMPDEST PUSH1 0x0 PUSH32 0x1FFC9A700000000000000000000000000000000000000000000000000000000 PUSH28 0xFFFFFFFFFFFFFFFFFFFFFFFFFFFFFFFFFFFFFFFFFFFFFFFFFFFFFFFF NOT AND DUP3 PUSH28 0xFFFFFFFFFFFFFFFFFFFFFFFFFFFFFFFFFFFFFFFFFFFFFFFFFFFFFFFF NOT AND EQ SWAP1 POP SWAP2 SWAP1 POP JUMP JUMPDEST PUSH2 0x3CE DUP2 PUSH2 0x3C9 PUSH2 0x4B1 JUMP JUMPDEST PUSH2 0x59A JUMP JUMPDEST POP JUMP JUMPDEST PUSH2 0x3DB DUP3 DUP3 PUSH2 0x2C1 JUMP JUMPDEST PUSH2 0x4AD JUMPI PUSH1 0x1 PUSH1 0x0 DUP1 DUP5 DUP2 MSTORE PUSH1 0x20 ADD SWAP1 DUP2 MSTORE PUSH1 0x20 ADD PUSH1 0x0 KECCAK256 PUSH1 0x0 ADD PUSH1 0x0 DUP4 PUSH20 0xFFFFFFFFFFFFFFFFFFFFFFFFFFFFFFFFFFFFFFFF AND PUSH20 0xFFFFFFFFFFFFFFFFFFFFFFFFFFFFFFFFFFFFFFFF AND DUP2 MSTORE PUSH1 0x20 ADD SWAP1 DUP2 MSTORE PUSH1 0x20 ADD PUSH1 0x0 KECCAK256 PUSH1 0x0 PUSH2 0x100 EXP DUP2 SLOAD DUP2 PUSH1 0xFF MUL NOT AND SWAP1 DUP4 ISZERO ISZERO MUL OR SWAP1 SSTORE POP PUSH2 0x452 PUSH2 0x4B1 JUMP JUMPDEST PUSH20 0xFFFFFFFFFFFFFFFFFFFFFFFFFFFFFFFFFFFFFFFF AND DUP2 PUSH20 0xFFFFFFFFFFFFFFFFFFFFFFFFFFFFFFFFFFFFFFFF AND DUP4 PUSH32 0x2F8788117E7EFF1D82E926EC794901D17C78024A50270940304540A733656F0D PUSH1 0x40 MLOAD PUSH1 0x40 MLOAD DUP1 SWAP2 SUB SWAP1 LOG4 JUMPDEST POP POP JUMP JUMPDEST PUSH1 0x0 CALLER SWAP1 POP SWAP1 JUMP JUMPDEST PUSH2 0x4C3 DUP3 DUP3 PUSH2 0x2C1 JUMP JUMPDEST ISZERO PUSH2 0x596 JUMPI PUSH1 0x0 DUP1 PUSH1 0x0 DUP5 DUP2 MSTORE PUSH1 0x20 ADD SWAP1 DUP2 MSTORE PUSH1 0x20 ADD PUSH1 0x0 KECCAK256 PUSH1 0x0 ADD PUSH1 0x0 DUP4 PUSH20 0xFFFFFFFFFFFFFFFFFFFFFFFFFFFFFFFFFFFFFFFF AND PUSH20 0xFFFFFFFFFFFFFFFFFFFFFFFFFFFFFFFFFFFFFFFF AND DUP2 MSTORE PUSH1 0x20 ADD SWAP1 DUP2 MSTORE PUSH1 0x20 ADD PUSH1 0x0 KECCAK256 PUSH1 0x0 PUSH2 0x100 EXP DUP2 SLOAD DUP2 PUSH1 0xFF MUL NOT AND SWAP1 DUP4 ISZERO ISZERO MUL OR SWAP1 SSTORE POP PUSH2 0x53B PUSH2 0x4B1 JUMP JUMPDEST PUSH20 0xFFFFFFFFFFFFFFFFFFFFFFFFFFFFFFFFFFFFFFFF AND DUP2 PUSH20 0xFFFFFFFFFFFFFFFFFFFFFFFFFFFFFFFFFFFFFFFF AND DUP4 PUSH32 0xF6391F5C32D9C69D2A47EA670B442974B53935D1EDC7FD64EB21E047A839171B PUSH1 0x40 MLOAD PUSH1 0x40 MLOAD DUP1 SWAP2 SUB SWAP1 LOG4 JUMPDEST POP POP JUMP JUMPDEST PUSH2 0x5A4 DUP3 DUP3 PUSH2 0x2C1 JUMP JUMPDEST PUSH2 0x61B JUMPI PUSH2 0x5B1 DUP2 PUSH2 0x61F JUMP JUMPDEST PUSH2 0x5BF DUP4 PUSH1 0x0 SHR PUSH1 0x20 PUSH2 0x64C JUMP JUMPDEST PUSH1 0x40 MLOAD PUSH1 0x20 ADD PUSH2 0x5D0 SWAP3 SWAP2 SWAP1 PUSH2 0xC1F JUMP JUMPDEST PUSH1 0x40 MLOAD PUSH1 0x20 DUP2 DUP4 SUB SUB DUP2 MSTORE SWAP1 PUSH1 0x40 MSTORE PUSH1 0x40 MLOAD PUSH32 0x8C379A000000000000000000000000000000000000000000000000000000000 DUP2 MSTORE PUSH1 0x4 ADD PUSH2 0x612 SWAP2 SWAP1 PUSH2 0xCA3 JUMP JUMPDEST PUSH1 0x40 MLOAD DUP1 SWAP2 SUB SWAP1 REVERT JUMPDEST POP POP JUMP JUMPDEST PUSH1 0x60 PUSH2 0x645 DUP3 PUSH20 0xFFFFFFFFFFFFFFFFFFFFFFFFFFFFFFFFFFFFFFFF AND PUSH1 0x14 PUSH1 0xFF AND PUSH2 0x64C JUMP JUMPDEST SWAP1 POP SWAP2 SWAP1 POP JUMP JUMPDEST PUSH1 0x60 PUSH1 0x0 PUSH1 0x2 DUP4 PUSH1 0x2 PUSH2 0x65F SWAP2 SWAP1 PUSH2 0xCFE JUMP JUMPDEST PUSH2 0x669 SWAP2 SWAP1 PUSH2 0xD40 JUMP JUMPDEST PUSH8 0xFFFFFFFFFFFFFFFF DUP2 GT ISZERO PUSH2 0x682 JUMPI PUSH2 0x681 PUSH2 0xD74 JUMP JUMPDEST JUMPDEST PUSH1 0x40 MLOAD SWAP1 DUP1 DUP3 MSTORE DUP1 PUSH1 0x1F ADD PUSH1 0x1F NOT AND PUSH1 0x20 ADD DUP3 ADD PUSH1 0x40 MSTORE DUP1 ISZERO PUSH2 0x6B4 JUMPI DUP2 PUSH1 0x20 ADD PUSH1 0x1 DUP3 MUL DUP1 CALLDATASIZE DUP4 CALLDATACOPY DUP1 DUP3 ADD SWAP2 POP POP SWAP1 POP JUMPDEST POP SWAP1 POP PUSH32 0x3000000000000000000000000000000000000000000000000000000000000000 DUP2 PUSH1 0x0 DUP2 MLOAD DUP2 LT PUSH2 0x6EC JUMPI PUSH2 0x6EB PUSH2 0xDA3 JUMP JUMPDEST JUMPDEST PUSH1 0x20 ADD ADD SWAP1 PUSH31 0xFFFFFFFFFFFFFFFFFFFFFFFFFFFFFFFFFFFFFFFFFFFFFFFFFFFFFFFFFFFFFF NOT AND SWAP1 DUP2 PUSH1 0x0 BYTE SWAP1 MSTORE8 POP PUSH32 0x7800000000000000000000000000000000000000000000000000000000000000 DUP2 PUSH1 0x1 DUP2 MLOAD DUP2 LT PUSH2 0x750 JUMPI PUSH2 0x74F PUSH2 0xDA3 JUMP JUMPDEST JUMPDEST PUSH1 0x20 ADD ADD SWAP1 PUSH31 0xFFFFFFFFFFFFFFFFFFFFFFFFFFFFFFFFFFFFFFFFFFFFFFFFFFFFFFFFFFFFFF NOT AND SWAP1 DUP2 PUSH1 0x0 BYTE SWAP1 MSTORE8 POP PUSH1 0x0 PUSH1 0x1 DUP5 PUSH1 0x2 PUSH2 0x790 SWAP2 SWAP1 PUSH2 0xCFE JUMP JUMPDEST PUSH2 0x79A SWAP2 SWAP1 PUSH2 0xD40 JUMP JUMPDEST SWAP1 POP JUMPDEST PUSH1 0x1 DUP2 GT ISZERO PUSH2 0x83A JUMPI PUSH32 0x3031323334353637383961626364656600000000000000000000000000000000 PUSH1 0xF DUP7 AND PUSH1 0x10 DUP2 LT PUSH2 0x7DC JUMPI PUSH2 0x7DB PUSH2 0xDA3 JUMP JUMPDEST JUMPDEST BYTE PUSH1 0xF8 SHL DUP3 DUP3 DUP2 MLOAD DUP2 LT PUSH2 0x7F3 JUMPI PUSH2 0x7F2 PUSH2 0xDA3 JUMP JUMPDEST JUMPDEST PUSH1 0x20 ADD ADD SWAP1 PUSH31 0xFFFFFFFFFFFFFFFFFFFFFFFFFFFFFFFFFFFFFFFFFFFFFFFFFFFFFFFFFFFFFF NOT AND SWAP1 DUP2 PUSH1 0x0 BYTE SWAP1 MSTORE8 POP PUSH1 0x4 DUP6 SWAP1 SHR SWAP5 POP DUP1 PUSH2 0x833 SWAP1 PUSH2 0xDD2 JUMP JUMPDEST SWAP1 POP PUSH2 0x79D JUMP JUMPDEST POP PUSH1 0x0 DUP5 EQ PUSH2 0x87E JUMPI PUSH1 0x40 MLOAD PUSH32 0x8C379A000000000000000000000000000000000000000000000000000000000 DUP2 MSTORE PUSH1 0x4 ADD PUSH2 0x875 SWAP1 PUSH2 0xE47 JUMP JUMPDEST PUSH1 0x40 MLOAD DUP1 SWAP2 SUB SWAP1 REVERT JUMPDEST DUP1 SWAP2 POP POP SWAP3 SWAP2 POP POP JUMP JUMPDEST PUSH1 0x0 DUP1 REVERT JUMPDEST PUSH1 0x0 PUSH32 0xFFFFFFFF00000000000000000000000000000000000000000000000000000000 DUP3 AND SWAP1 POP SWAP2 SWAP1 POP JUMP JUMPDEST PUSH2 0x8C2 DUP2 PUSH2 0x88D JUMP JUMPDEST DUP2 EQ PUSH2 0x8CD JUMPI PUSH1 0x0 DUP1 REVERT JUMPDEST POP JUMP JUMPDEST PUSH1 0x0 DUP2 CALLDATALOAD SWAP1 POP PUSH2 0x8DF DUP2 PUSH2 0x8B9 JUMP JUMPDEST SWAP3 SWAP2 POP POP JUMP JUMPDEST PUSH1 0x0 PUSH1 0x20 DUP3 DUP5 SUB SLT ISZERO PUSH2 0x8FB JUMPI PUSH2 0x8FA PUSH2 0x888 JUMP JUMPDEST JUMPDEST PUSH1 0x0 PUSH2 0x909 DUP5 DUP3 DUP6 ADD PUSH2 0x8D0 JUMP JUMPDEST SWAP2 POP POP SWAP3 SWAP2 POP POP JUMP JUMPDEST PUSH1 0x0 DUP2 ISZERO ISZERO SWAP1 POP SWAP2 SWAP1 POP JUMP JUMPDEST PUSH2 0x927 DUP2 PUSH2 0x912 JUMP JUMPDEST DUP3 MSTORE POP POP JUMP JUMPDEST PUSH1 0x0 PUSH1 0x20 DUP3 ADD SWAP1 POP PUSH2 0x942 PUSH1 0x0 DUP4 ADD DUP5 PUSH2 0x91E JUMP JUMPDEST SWAP3 SWAP2 POP POP JUMP JUMPDEST PUSH1 0x0 DUP2 SWAP1 POP SWAP2 SWAP1 POP JUMP JUMPDEST PUSH2 0x95B DUP2 PUSH2 0x948 JUMP JUMPDEST DUP2 EQ PUSH2 0x966 JUMPI PUSH1 0x0 DUP1 REVERT JUMPDEST POP JUMP JUMPDEST PUSH1 0x0 DUP2 CALLDATALOAD SWAP1 POP PUSH2 0x978 DUP2 PUSH2 0x952 JUMP JUMPDEST SWAP3 SWAP2 POP POP JUMP JUMPDEST PUSH1 0x0 PUSH1 0x20 DUP3 DUP5 SUB SLT ISZERO PUSH2 0x994 JUMPI PUSH2 0x993 PUSH2 0x888 JUMP JUMPDEST JUMPDEST PUSH1 0x0 PUSH2 0x9A2 DUP5 DUP3 DUP6 ADD PUSH2 0x969 JUMP JUMPDEST SWAP2 POP POP SWAP3 SWAP2 POP POP JUMP JUMPDEST PUSH2 0x9B4 DUP2 PUSH2 0x948 JUMP JUMPDEST DUP3 MSTORE POP POP JUMP JUMPDEST PUSH1 0x0 PUSH1 0x20 DUP3 ADD SWAP1 POP PUSH2 0x9CF PUSH1 0x0 DUP4 ADD DUP5 PUSH2 0x9AB JUMP JUMPDEST SWAP3 SWAP2 POP POP JUMP JUMPDEST PUSH1 0x0 PUSH20 0xFFFFFFFFFFFFFFFFFFFFFFFFFFFFFFFFFFFFFFFF DUP3 AND SWAP1 POP SWAP2 SWAP1 POP JUMP JUMPDEST PUSH1 0x0 PUSH2 0xA00 DUP3 PUSH2 0x9D5 JUMP JUMPDEST SWAP1 POP SWAP2 SWAP1 POP JUMP JUMPDEST PUSH2 0xA10 DUP2 PUSH2 0x9F5 JUMP JUMPDEST DUP2 EQ PUSH2 0xA1B JUMPI PUSH1 0x0 DUP1 REVERT JUMPDEST POP JUMP JUMPDEST PUSH1 0x0 DUP2 CALLDATALOAD SWAP1 POP PUSH2 0xA2D DUP2 PUSH2 0xA07 JUMP JUMPDEST SWAP3 SWAP2 POP POP JUMP JUMPDEST PUSH1 0x0 DUP1 PUSH1 0x40 DUP4 DUP6 SUB SLT ISZERO PUSH2 0xA4A JUMPI PUSH2 0xA49 PUSH2 0x888 JUMP JUMPDEST JUMPDEST PUSH1 0x0 PUSH2 0xA58 DUP6 DUP3 DUP7 ADD PUSH2 0x969 JUMP JUMPDEST SWAP3 POP POP PUSH1 0x20 PUSH2 0xA69 DUP6 DUP3 DUP7 ADD PUSH2 0xA1E JUMP JUMPDEST SWAP2 POP POP SWAP3 POP SWAP3 SWAP1 POP JUMP JUMPDEST PUSH1 0x0 DUP3 DUP3 MSTORE PUSH1 0x20 DUP3 ADD SWAP1 POP SWAP3 SWAP2 POP POP JUMP JUMPDEST PUSH32 0x416363657373436F6E74726F6C3A2063616E206F6E6C792072656E6F756E6365 PUSH1 0x0 DUP3 ADD MSTORE PUSH32 0x20726F6C657320666F722073656C660000000000000000000000000000000000 PUSH1 0x20 DUP3 ADD MSTORE POP JUMP JUMPDEST PUSH1 0x0 PUSH2 0xAE0 PUSH1 0x2F DUP4 PUSH2 0xA73 JUMP JUMPDEST SWAP2 POP PUSH2 0xAEB DUP3 PUSH2 0xA84 JUMP JUMPDEST PUSH1 0x40 DUP3 ADD SWAP1 POP SWAP2 SWAP1 POP JUMP JUMPDEST PUSH1 0x0 PUSH1 0x20 DUP3 ADD SWAP1 POP DUP2 DUP2 SUB PUSH1 0x0 DUP4 ADD MSTORE PUSH2 0xB0F DUP2 PUSH2 0xAD3 JUMP JUMPDEST SWAP1 POP SWAP2 SWAP1 POP JUMP JUMPDEST PUSH1 0x0 DUP2 SWAP1 POP SWAP3 SWAP2 POP POP JUMP JUMPDEST PUSH32 0x416363657373436F6E74726F6C3A206163636F756E7420000000000000000000 PUSH1 0x0 DUP3 ADD MSTORE POP JUMP JUMPDEST PUSH1 0x0 PUSH2 0xB57 PUSH1 0x17 DUP4 PUSH2 0xB16 JUMP JUMPDEST SWAP2 POP PUSH2 0xB62 DUP3 PUSH2 0xB21 JUMP JUMPDEST PUSH1 0x17 DUP3 ADD SWAP1 POP SWAP2 SWAP1 POP JUMP JUMPDEST PUSH1 0x0 DUP2 MLOAD SWAP1 POP SWAP2 SWAP1 POP JUMP JUMPDEST PUSH1 0x0 JUMPDEST DUP4 DUP2 LT ISZERO PUSH2 0xB96 JUMPI DUP1 DUP3 ADD MLOAD DUP2 DUP5 ADD MSTORE PUSH1 0x20 DUP2 ADD SWAP1 POP PUSH2 0xB7B JUMP JUMPDEST PUSH1 0x0 DUP5 DUP5 ADD MSTORE POP POP POP POP JUMP JUMPDEST PUSH1 0x0 PUSH2 0xBAD DUP3 PUSH2 0xB6D JUMP JUMPDEST PUSH2 0xBB7 DUP2 DUP6 PUSH2 0xB16 JUMP JUMPDEST SWAP4 POP PUSH2 0xBC7 DUP2 DUP6 PUSH1 0x20 DUP7 ADD PUSH2 0xB78 JUMP JUMPDEST DUP1 DUP5 ADD SWAP2 POP POP SWAP3 SWAP2 POP POP JUMP JUMPDEST PUSH32 0x206973206D697373696E6720726F6C6520000000000000000000000000000000 PUSH1 0x0 DUP3 ADD MSTORE POP JUMP JUMPDEST PUSH1 0x0 PUSH2 0xC09 PUSH1 0x11 DUP4 PUSH2 0xB16 JUMP JUMPDEST SWAP2 POP PUSH2 0xC14 DUP3 PUSH2 0xBD3 JUMP JUMPDEST PUSH1 0x11 DUP3 ADD SWAP1 POP SWAP2 SWAP1 POP JUMP JUMPDEST PUSH1 0x0 PUSH2 0xC2A DUP3 PUSH2 0xB4A JUMP JUMPDEST SWAP2 POP PUSH2 0xC36 DUP3 DUP6 PUSH2 0xBA2 JUMP JUMPDEST SWAP2 POP PUSH2 0xC41 DUP3 PUSH2 0xBFC JUMP JUMPDEST SWAP2 POP PUSH2 0xC4D DUP3 DUP5 PUSH2 0xBA2 JUMP JUMPDEST SWAP2 POP DUP2 SWAP1 POP SWAP4 SWAP3 POP POP POP JUMP JUMPDEST PUSH1 0x0 PUSH1 0x1F NOT PUSH1 0x1F DUP4 ADD AND SWAP1 POP SWAP2 SWAP1 POP JUMP JUMPDEST PUSH1 0x0 PUSH2 0xC75 DUP3 PUSH2 0xB6D JUMP JUMPDEST PUSH2 0xC7F DUP2 DUP6 PUSH2 0xA73 JUMP JUMPDEST SWAP4 POP PUSH2 0xC8F DUP2 DUP6 PUSH1 0x20 DUP7 ADD PUSH2 0xB78 JUMP JUMPDEST PUSH2 0xC98 DUP2 PUSH2 0xC59 JUMP JUMPDEST DUP5 ADD SWAP2 POP POP SWAP3 SWAP2 POP POP JUMP JUMPDEST PUSH1 0x0 PUSH1 0x20 DUP3 ADD SWAP1 POP DUP2 DUP2 SUB PUSH1 0x0 DUP4 ADD MSTORE PUSH2 0xCBD DUP2 DUP5 PUSH2 0xC6A JUMP JUMPDEST SWAP1 POP SWAP3 SWAP2 POP POP JUMP JUMPDEST PUSH1 0x0 DUP2 SWAP1 POP SWAP2 SWAP1 POP JUMP JUMPDEST PUSH32 0x4E487B7100000000000000000000000000000000000000000000000000000000 PUSH1 0x0 MSTORE PUSH1 0x11 PUSH1 0x4 MSTORE PUSH1 0x24 PUSH1 0x0 REVERT JUMPDEST PUSH1 0x0 PUSH2 0xD09 DUP3 PUSH2 0xCC5 JUMP JUMPDEST SWAP2 POP PUSH2 0xD14 DUP4 PUSH2 0xCC5 JUMP JUMPDEST SWAP3 POP DUP3 DUP3 MUL PUSH2 0xD22 DUP2 PUSH2 0xCC5 JUMP JUMPDEST SWAP2 POP DUP3 DUP3 DIV DUP5 EQ DUP4 ISZERO OR PUSH2 0xD39 JUMPI PUSH2 0xD38 PUSH2 0xCCF JUMP JUMPDEST JUMPDEST POP SWAP3 SWAP2 POP POP JUMP JUMPDEST PUSH1 0x0 PUSH2 0xD4B DUP3 PUSH2 0xCC5 JUMP JUMPDEST SWAP2 POP PUSH2 0xD56 DUP4 PUSH2 0xCC5 JUMP JUMPDEST SWAP3 POP DUP3 DUP3 ADD SWAP1 POP DUP1 DUP3 GT ISZERO PUSH2 0xD6E JUMPI PUSH2 0xD6D PUSH2 0xCCF JUMP JUMPDEST JUMPDEST SWAP3 SWAP2 POP POP JUMP JUMPDEST PUSH32 0x4E487B7100000000000000000000000000000000000000000000000000000000 PUSH1 0x0 MSTORE PUSH1 0x41 PUSH1 0x4 MSTORE PUSH1 0x24 PUSH1 0x0 REVERT JUMPDEST PUSH32 0x4E487B7100000000000000000000000000000000000000000000000000000000 PUSH1 0x0 MSTORE PUSH1 0x32 PUSH1 0x4 MSTORE PUSH1 0x24 PUSH1 0x0 REVERT JUMPDEST PUSH1 0x0 PUSH2 0xDDD DUP3 PUSH2 0xCC5 JUMP JUMPDEST SWAP2 POP PUSH1 0x0 DUP3 SUB PUSH2 0xDF0 JUMPI PUSH2 0xDEF PUSH2 0xCCF JUMP JUMPDEST JUMPDEST PUSH1 0x1 DUP3 SUB SWAP1 POP SWAP2 SWAP1 POP JUMP JUMPDEST PUSH32 0x537472696E67733A20686578206C656E67746820696E73756666696369656E74 PUSH1 0x0 DUP3 ADD MSTORE POP JUMP JUMPDEST PUSH1 0x0 PUSH2 0xE31 PUSH1 0x20 DUP4 PUSH2 0xA73 JUMP JUMPDEST SWAP2 POP PUSH2 0xE3C DUP3 PUSH2 0xDFB JUMP JUMPDEST PUSH1 0x20 DUP3 ADD SWAP1 POP SWAP2 SWAP1 POP JUMP JUMPDEST PUSH1 0x0 PUSH1 0x20 DUP3 ADD SWAP1 POP DUP2 DUP2 SUB PUSH1 0x0 DUP4 ADD MSTORE PUSH2 0xE60 DUP2 PUSH2 0xE24 JUMP JUMPDEST SWAP1 POP SWAP2 SWAP1 POP JUMP INVALID LOG2 PUSH5 0x6970667358 0x22 SLT KECCAK256 0xC 0x27 0x4C 0xE2 PUSH5 0x7B19A20895 PUSH28 0x708BA58A2A6E4A77FA28BBA2201340991E0B49CF1764736F6C634300 ADDMOD SGT STOP CALLER "
				},
				"gasEstimates": {
					"creation": {
						"codeDepositCost": "748200",
						"executionCost": "infinite",
						"totalCost": "infinite"
					},
					"external": {
						"DEFAULT_ADMIN_ROLE()": "379",
						"getRoleAdmin(bytes32)": "infinite",
						"grantRole(bytes32,address)": "infinite",
						"hasRole(bytes32,address)": "3162",
						"renounceRole(bytes32,address)": "infinite",
						"revokeRole(bytes32,address)": "infinite",
						"supportsInterface(bytes4)": "728"
					}
				},
				"methodIdentifiers": {
					"DEFAULT_ADMIN_ROLE()": "a217fddf",
					"getRoleAdmin(bytes32)": "248a9ca3",
					"grantRole(bytes32,address)": "2f2ff15d",
					"hasRole(bytes32,address)": "91d14854",
					"renounceRole(bytes32,address)": "36568abe",
					"revokeRole(bytes32,address)": "d547741f",
					"supportsInterface(bytes4)": "01ffc9a7"
				}
			},
			"storageLayout": {
				"storage": [
					{
						"astId": 24,
						"contract": "contract/base/RoleAdmin.sol:RoleAdmin",
						"label": "_roles",
						"offset": 0,
						"slot": "0",
						"type": "t_mapping(t_bytes32,t_struct(RoleData)19_storage)"
					}
				],
				"types": {
					"t_address": {
						"encoding": "inplace",
						"label": "address",
						"numberOfBytes": "20"
					},
					"t_bool": {
						"encoding": "inplace",
						"label": "bool",
						"numberOfBytes": "1"
					},
					"t_bytes32": {
						"encoding": "inplace",
						"label": "bytes32",
						"numberOfBytes": "32"
					},
					"t_mapping(t_address,t_bool)": {
						"encoding": "mapping",
						"key": "t_address",
						"label": "mapping(address => bool)",
						"numberOfBytes": "32",
						"value": "t_bool"
					},
					"t_mapping(t_bytes32,t_struct(RoleData)19_storage)": {
						"encoding": "mapping",
						"key": "t_bytes32",
						"label": "mapping(bytes32 => struct AccessControl.RoleData)",
						"numberOfBytes": "32",
						"value": "t_struct(RoleData)19_storage"
					},
					"t_struct(RoleData)19_storage": {
						"encoding": "inplace",
						"label": "struct AccessControl.RoleData",
						"members": [
							{
								"astId": 16,
								"contract": "contract/base/RoleAdmin.sol:RoleAdmin",
								"label": "members",
								"offset": 0,
								"slot": "0",
								"type": "t_mapping(t_address,t_bool)"
							},
							{
								"astId": 18,
								"contract": "contract/base/RoleAdmin.sol:RoleAdmin",
								"label": "adminRole",
								"offset": 0,
								"slot": "1",
								"type": "t_bytes32"
							}
						],
						"numberOfBytes": "64"
					}
				}
			},
			"userdoc": {
				"kind": "user",
				"methods": {},
				"version": 1
			}
		}
	}
}