{
	"contract/base/PledgeContract.sol": {
		"PledgeContract": {
			"abi": [
				{
					"inputs": [
						{
							"internalType": "address",
							"name": "own",
							"type": "address"
						}
					],
					"name": "balanceOf",
					"outputs": [
						{
							"internalType": "uint256",
							"name": "",
							"type": "uint256"
						}
					],
					"stateMutability": "view",
					"type": "function"
				},
				{
					"inputs": [],
					"name": "getBlock",
					"outputs": [
						{
							"internalType": "uint256",
							"name": "",
							"type": "uint256"
						}
					],
					"stateMutability": "view",
					"type": "function"
				},
				{
					"inputs": [],
					"name": "outAmount",
					"outputs": [],
					"stateMutability": "payable",
					"type": "function"
				},
				{
					"inputs": [],
					"name": "pledge",
					"outputs": [],
					"stateMutability": "payable",
					"type": "function"
				},
				{
					"inputs": [],
					"name": "totalSupply",
					"outputs": [
						{
							"internalType": "uint256",
							"name": "",
							"type": "uint256"
						}
					],
					"stateMutability": "view",
					"type": "function"
				},
				{
					"stateMutability": "payable",
					"type": "receive"
				}
			],
			"devdoc": {
				"kind": "dev",
				"methods": {},
				"version": 1
			},
			"evm": {
				"assembly": "    /* \"contract/base/PledgeContract.sol\":67:1087  contract PledgeContract{... */\n  mstore(0x40, 0x80)\n  callvalue\n  dup1\n  iszero\n  tag_1\n  jumpi\n  0x00\n  dup1\n  revert\ntag_1:\n  pop\n  dataSize(sub_0)\n  dup1\n  dataOffset(sub_0)\n  0x00\n  codecopy\n  0x00\n  return\nstop\n\nsub_0: assembly {\n        /* \"contract/base/PledgeContract.sol\":67:1087  contract PledgeContract{... */\n      mstore(0x40, 0x80)\n      jumpi(tag_1, lt(calldatasize, 0x04))\n      shr(0xe0, calldataload(0x00))\n      dup1\n      0x18160ddd\n      eq\n      tag_3\n      jumpi\n      dup1\n      0x2e97766d\n      eq\n      tag_4\n      jumpi\n      dup1\n      0x70a08231\n      eq\n      tag_5\n      jumpi\n      dup1\n      0x88ffe867\n      eq\n      tag_6\n      jumpi\n      dup1\n      0xe0b95720\n      eq\n      tag_7\n      jumpi\n      jump(tag_2)\n    tag_1:\n      jumpi(tag_2, calldatasize)\n        /* \"contract/base/PledgeContract.sol\":225:233  pledge() */\n      tag_10\n        /* \"contract/base/PledgeContract.sol\":225:231  pledge */\n      tag_11\n        /* \"contract/base/PledgeContract.sol\":225:233  pledge() */\n      jump\t// in\n    tag_10:\n        /* \"contract/base/PledgeContract.sol\":67:1087  contract PledgeContract{... */\n      stop\n    tag_2:\n      0x00\n      dup1\n      revert\n        /* \"contract/base/PledgeContract.sol\":486:576  function totalSupply() public view returns (uint256){... */\n    tag_3:\n      callvalue\n      dup1\n      iszero\n      tag_12\n      jumpi\n      0x00\n      dup1\n      revert\n    tag_12:\n      pop\n      tag_13\n      tag_14\n      jump\t// in\n    tag_13:\n      mload(0x40)\n      tag_15\n      swap2\n      swap1\n      tag_16\n      jump\t// in\n    tag_15:\n      mload(0x40)\n      dup1\n      swap2\n      sub\n      swap1\n      return\n        /* \"contract/base/PledgeContract.sol\":882:972  function getBlock() public view returns (uint256){... */\n    tag_4:\n      callvalue\n      dup1\n      iszero\n      tag_17\n      jumpi\n      0x00\n      dup1\n      revert\n    tag_17:\n      pop\n      tag_18\n      tag_19\n      jump\t// in\n    tag_18:\n      mload(0x40)\n      tag_20\n      swap2\n      swap1\n      tag_16\n      jump\t// in\n    tag_20:\n      mload(0x40)\n      dup1\n      swap2\n      sub\n      swap1\n      return\n        /* \"contract/base/PledgeContract.sol\":377:478  function balanceOf(address own) public view returns (uint256){... */\n    tag_5:\n      callvalue\n      dup1\n      iszero\n      tag_21\n      jumpi\n      0x00\n      dup1\n      revert\n    tag_21:\n      pop\n      tag_22\n      0x04\n      dup1\n      calldatasize\n      sub\n      dup2\n      add\n      swap1\n      tag_23\n      swap2\n      swap1\n      tag_24\n      jump\t// in\n    tag_23:\n      tag_25\n      jump\t// in\n    tag_22:\n      mload(0x40)\n      tag_26\n      swap2\n      swap1\n      tag_16\n      jump\t// in\n    tag_26:\n      mload(0x40)\n      dup1\n      swap2\n      sub\n      swap1\n      return\n        /* \"contract/base/PledgeContract.sol\":249:369  function pledge() public payable{... */\n    tag_6:\n      tag_27\n      tag_11\n      jump\t// in\n    tag_27:\n      stop\n        /* \"contract/base/PledgeContract.sol\":584:874  function outAmount() public payable canOut(){... */\n    tag_7:\n      tag_28\n      tag_29\n      jump\t// in\n    tag_28:\n      stop\n        /* \"contract/base/PledgeContract.sol\":249:369  function pledge() public payable{... */\n    tag_11:\n        /* \"contract/base/PledgeContract.sol\":317:326  msg.value */\n      callvalue\n        /* \"contract/base/PledgeContract.sol\":292:301  _balances */\n      0x01\n        /* \"contract/base/PledgeContract.sol\":292:313  _balances[msg.sender] */\n      0x00\n        /* \"contract/base/PledgeContract.sol\":302:312  msg.sender */\n      caller\n        /* \"contract/base/PledgeContract.sol\":292:313  _balances[msg.sender] */\n      0xffffffffffffffffffffffffffffffffffffffff\n      and\n      0xffffffffffffffffffffffffffffffffffffffff\n      and\n      dup2\n      mstore\n      0x20\n      add\n      swap1\n      dup2\n      mstore\n      0x20\n      add\n      0x00\n      keccak256\n      0x00\n        /* \"contract/base/PledgeContract.sol\":292:326  _balances[msg.sender] += msg.value */\n      dup3\n      dup3\n      sload\n      tag_31\n      swap2\n      swap1\n      tag_32\n      jump\t// in\n    tag_31:\n      swap3\n      pop\n      pop\n      dup2\n      swap1\n      sstore\n      pop\n        /* \"contract/base/PledgeContract.sol\":352:361  msg.value */\n      callvalue\n        /* \"contract/base/PledgeContract.sol\":337:349  _totalSupply */\n      0x00\n      dup1\n        /* \"contract/base/PledgeContract.sol\":337:361  _totalSupply +=msg.value */\n      dup3\n      dup3\n      sload\n      tag_33\n      swap2\n      swap1\n      tag_32\n      jump\t// in\n    tag_33:\n      swap3\n      pop\n      pop\n      dup2\n      swap1\n      sstore\n      pop\n        /* \"contract/base/PledgeContract.sol\":249:369  function pledge() public payable{... */\n      jump\t// out\n        /* \"contract/base/PledgeContract.sol\":486:576  function totalSupply() public view returns (uint256){... */\n    tag_14:\n        /* \"contract/base/PledgeContract.sol\":530:537  uint256 */\n      0x00\n        /* \"contract/base/PledgeContract.sol\":556:568  _totalSupply */\n      dup1\n      sload\n        /* \"contract/base/PledgeContract.sol\":549:568  return _totalSupply */\n      swap1\n      pop\n        /* \"contract/base/PledgeContract.sol\":486:576  function totalSupply() public view returns (uint256){... */\n      swap1\n      jump\t// out\n        /* \"contract/base/PledgeContract.sol\":882:972  function getBlock() public view returns (uint256){... */\n    tag_19:\n        /* \"contract/base/PledgeContract.sol\":923:930  uint256 */\n      0x00\n        /* \"contract/base/PledgeContract.sol\":949:964  block.timestamp */\n      timestamp\n        /* \"contract/base/PledgeContract.sol\":942:964  return block.timestamp */\n      swap1\n      pop\n        /* \"contract/base/PledgeContract.sol\":882:972  function getBlock() public view returns (uint256){... */\n      swap1\n      jump\t// out\n        /* \"contract/base/PledgeContract.sol\":377:478  function balanceOf(address own) public view returns (uint256){... */\n    tag_25:\n        /* \"contract/base/PledgeContract.sol\":430:437  uint256 */\n      0x00\n        /* \"contract/base/PledgeContract.sol\":456:465  _balances */\n      0x01\n        /* \"contract/base/PledgeContract.sol\":456:470  _balances[own] */\n      0x00\n        /* \"contract/base/PledgeContract.sol\":466:469  own */\n      dup4\n        /* \"contract/base/PledgeContract.sol\":456:470  _balances[own] */\n      0xffffffffffffffffffffffffffffffffffffffff\n      and\n      0xffffffffffffffffffffffffffffffffffffffff\n      and\n      dup2\n      mstore\n      0x20\n      add\n      swap1\n      dup2\n      mstore\n      0x20\n      add\n      0x00\n      keccak256\n      sload\n        /* \"contract/base/PledgeContract.sol\":449:470  return _balances[own] */\n      swap1\n      pop\n        /* \"contract/base/PledgeContract.sol\":377:478  function balanceOf(address own) public view returns (uint256){... */\n      swap2\n      swap1\n      pop\n      jump\t// out\n        /* \"contract/base/PledgeContract.sol\":584:874  function outAmount() public payable canOut(){... */\n    tag_29:\n        /* \"contract/base/PledgeContract.sol\":1035:1045  1681469400 */\n      0x64392fd8\n        /* \"contract/base/PledgeContract.sol\":1016:1031  block.timestamp */\n      timestamp\n        /* \"contract/base/PledgeContract.sol\":1016:1045  block.timestamp >= 1681469400 */\n      lt\n      iszero\n        /* \"contract/base/PledgeContract.sol\":1008:1060  require(block.timestamp >= 1681469400,\"not can out\") */\n      tag_38\n      jumpi\n      mload(0x40)\n      0x08c379a000000000000000000000000000000000000000000000000000000000\n      dup2\n      mstore\n      0x04\n      add\n      tag_39\n      swap1\n      tag_40\n      jump\t// in\n    tag_39:\n      mload(0x40)\n      dup1\n      swap2\n      sub\n      swap1\n      revert\n    tag_38:\n        /* \"contract/base/PledgeContract.sol\":639:653  uint256 amount */\n      0x00\n        /* \"contract/base/PledgeContract.sol\":656:665  _balances */\n      0x01\n        /* \"contract/base/PledgeContract.sol\":656:677  _balances[msg.sender] */\n      0x00\n        /* \"contract/base/PledgeContract.sol\":666:676  msg.sender */\n      caller\n        /* \"contract/base/PledgeContract.sol\":656:677  _balances[msg.sender] */\n      0xffffffffffffffffffffffffffffffffffffffff\n      and\n      0xffffffffffffffffffffffffffffffffffffffff\n      and\n      dup2\n      mstore\n      0x20\n      add\n      swap1\n      dup2\n      mstore\n      0x20\n      add\n      0x00\n      keccak256\n      sload\n        /* \"contract/base/PledgeContract.sol\":639:677  uint256 amount = _balances[msg.sender] */\n      swap1\n      pop\n        /* \"contract/base/PledgeContract.sol\":703:704  0 */\n      0x00\n        /* \"contract/base/PledgeContract.sol\":696:702  amount */\n      dup2\n        /* \"contract/base/PledgeContract.sol\":696:704  amount>0 */\n      gt\n        /* \"contract/base/PledgeContract.sol\":688:723  require(amount>0,\"not can lt zero\") */\n      tag_42\n      jumpi\n      mload(0x40)\n      0x08c379a000000000000000000000000000000000000000000000000000000000\n      dup2\n      mstore\n      0x04\n      add\n      tag_43\n      swap1\n      tag_44\n      jump\t// in\n    tag_43:\n      mload(0x40)\n      dup1\n      swap2\n      sub\n      swap1\n      revert\n    tag_42:\n        /* \"contract/base/PledgeContract.sol\":750:756  amount */\n      dup1\n        /* \"contract/base/PledgeContract.sol\":734:746  _totalSupply */\n      0x00\n      dup1\n        /* \"contract/base/PledgeContract.sol\":734:756  _totalSupply -= amount */\n      dup3\n      dup3\n      sload\n      tag_45\n      swap2\n      swap1\n      tag_46\n      jump\t// in\n    tag_45:\n      swap3\n      pop\n      pop\n      dup2\n      swap1\n      sstore\n      pop\n        /* \"contract/base/PledgeContract.sol\":768:777  bool sent */\n      0x00\n        /* \"contract/base/PledgeContract.sol\":789:799  msg.sender */\n      caller\n        /* \"contract/base/PledgeContract.sol\":781:805  address(msg.sender).call */\n      0xffffffffffffffffffffffffffffffffffffffff\n      and\n        /* \"contract/base/PledgeContract.sol\":812:818  amount */\n      dup3\n        /* \"contract/base/PledgeContract.sol\":781:823  address(msg.sender).call{value:amount}(\"\") */\n      mload(0x40)\n      tag_47\n      swap1\n      tag_48\n      jump\t// in\n    tag_47:\n      0x00\n      mload(0x40)\n      dup1\n      dup4\n      sub\n      dup2\n      dup6\n      dup8\n      gas\n      call\n      swap3\n      pop\n      pop\n      pop\n      returndatasize\n      dup1\n      0x00\n      dup2\n      eq\n      tag_51\n      jumpi\n      mload(0x40)\n      swap2\n      pop\n      and(add(returndatasize, 0x3f), not(0x1f))\n      dup3\n      add\n      0x40\n      mstore\n      returndatasize\n      dup3\n      mstore\n      returndatasize\n      0x00\n      0x20\n      dup5\n      add\n      returndatacopy\n      jump(tag_50)\n    tag_51:\n      0x60\n      swap2\n      pop\n    tag_50:\n      pop\n        /* \"contract/base/PledgeContract.sol\":767:823  (bool sent,)= address(msg.sender).call{value:amount}(\"\") */\n      pop\n      swap1\n      pop\n        /* \"contract/base/PledgeContract.sol\":842:846  sent */\n      dup1\n        /* \"contract/base/PledgeContract.sol\":834:864  require(sent,\"not out amount\") */\n      tag_52\n      jumpi\n      mload(0x40)\n      0x08c379a000000000000000000000000000000000000000000000000000000000\n      dup2\n      mstore\n      0x04\n      add\n      tag_53\n      swap1\n      tag_54\n      jump\t// in\n    tag_53:\n      mload(0x40)\n      dup1\n      swap2\n      sub\n      swap1\n      revert\n    tag_52:\n        /* \"contract/base/PledgeContract.sol\":628:874  {... */\n      pop\n      pop\n        /* \"contract/base/PledgeContract.sol\":584:874  function outAmount() public payable canOut(){... */\n      jump\t// out\n        /* \"#utility.yul\":7:84   */\n    tag_55:\n        /* \"#utility.yul\":44:51   */\n      0x00\n        /* \"#utility.yul\":73:78   */\n      dup2\n        /* \"#utility.yul\":62:78   */\n      swap1\n      pop\n        /* \"#utility.yul\":7:84   */\n      swap2\n      swap1\n      pop\n      jump\t// out\n        /* \"#utility.yul\":90:208   */\n    tag_56:\n        /* \"#utility.yul\":177:201   */\n      tag_78\n        /* \"#utility.yul\":195:200   */\n      dup2\n        /* \"#utility.yul\":177:201   */\n      tag_55\n      jump\t// in\n    tag_78:\n        /* \"#utility.yul\":172:175   */\n      dup3\n        /* \"#utility.yul\":165:202   */\n      mstore\n        /* \"#utility.yul\":90:208   */\n      pop\n      pop\n      jump\t// out\n        /* \"#utility.yul\":214:436   */\n    tag_16:\n        /* \"#utility.yul\":307:311   */\n      0x00\n        /* \"#utility.yul\":345:347   */\n      0x20\n        /* \"#utility.yul\":334:343   */\n      dup3\n        /* \"#utility.yul\":330:348   */\n      add\n        /* \"#utility.yul\":322:348   */\n      swap1\n      pop\n        /* \"#utility.yul\":358:429   */\n      tag_80\n        /* \"#utility.yul\":426:427   */\n      0x00\n        /* \"#utility.yul\":415:424   */\n      dup4\n        /* \"#utility.yul\":411:428   */\n      add\n        /* \"#utility.yul\":402:408   */\n      dup5\n        /* \"#utility.yul\":358:429   */\n      tag_56\n      jump\t// in\n    tag_80:\n        /* \"#utility.yul\":214:436   */\n      swap3\n      swap2\n      pop\n      pop\n      jump\t// out\n        /* \"#utility.yul\":523:640   */\n    tag_58:\n        /* \"#utility.yul\":632:633   */\n      0x00\n        /* \"#utility.yul\":629:630   */\n      dup1\n        /* \"#utility.yul\":622:634   */\n      revert\n        /* \"#utility.yul\":769:895   */\n    tag_60:\n        /* \"#utility.yul\":806:813   */\n      0x00\n        /* \"#utility.yul\":846:888   */\n      0xffffffffffffffffffffffffffffffffffffffff\n        /* \"#utility.yul\":839:844   */\n      dup3\n        /* \"#utility.yul\":835:889   */\n      and\n        /* \"#utility.yul\":824:889   */\n      swap1\n      pop\n        /* \"#utility.yul\":769:895   */\n      swap2\n      swap1\n      pop\n      jump\t// out\n        /* \"#utility.yul\":901:997   */\n    tag_61:\n        /* \"#utility.yul\":938:945   */\n      0x00\n        /* \"#utility.yul\":967:991   */\n      tag_86\n        /* \"#utility.yul\":985:990   */\n      dup3\n        /* \"#utility.yul\":967:991   */\n      tag_60\n      jump\t// in\n    tag_86:\n        /* \"#utility.yul\":956:991   */\n      swap1\n      pop\n        /* \"#utility.yul\":901:997   */\n      swap2\n      swap1\n      pop\n      jump\t// out\n        /* \"#utility.yul\":1003:1125   */\n    tag_62:\n        /* \"#utility.yul\":1076:1100   */\n      tag_88\n        /* \"#utility.yul\":1094:1099   */\n      dup2\n        /* \"#utility.yul\":1076:1100   */\n      tag_61\n      jump\t// in\n    tag_88:\n        /* \"#utility.yul\":1069:1074   */\n      dup2\n        /* \"#utility.yul\":1066:1101   */\n      eq\n        /* \"#utility.yul\":1056:1119   */\n      tag_89\n      jumpi\n        /* \"#utility.yul\":1115:1116   */\n      0x00\n        /* \"#utility.yul\":1112:1113   */\n      dup1\n        /* \"#utility.yul\":1105:1117   */\n      revert\n        /* \"#utility.yul\":1056:1119   */\n    tag_89:\n        /* \"#utility.yul\":1003:1125   */\n      pop\n      jump\t// out\n        /* \"#utility.yul\":1131:1270   */\n    tag_63:\n        /* \"#utility.yul\":1177:1182   */\n      0x00\n        /* \"#utility.yul\":1215:1221   */\n      dup2\n        /* \"#utility.yul\":1202:1222   */\n      calldataload\n        /* \"#utility.yul\":1193:1222   */\n      swap1\n      pop\n        /* \"#utility.yul\":1231:1264   */\n      tag_91\n        /* \"#utility.yul\":1258:1263   */\n      dup2\n        /* \"#utility.yul\":1231:1264   */\n      tag_62\n      jump\t// in\n    tag_91:\n        /* \"#utility.yul\":1131:1270   */\n      swap3\n      swap2\n      pop\n      pop\n      jump\t// out\n        /* \"#utility.yul\":1276:1605   */\n    tag_24:\n        /* \"#utility.yul\":1335:1341   */\n      0x00\n        /* \"#utility.yul\":1384:1386   */\n      0x20\n        /* \"#utility.yul\":1372:1381   */\n      dup3\n        /* \"#utility.yul\":1363:1370   */\n      dup5\n        /* \"#utility.yul\":1359:1382   */\n      sub\n        /* \"#utility.yul\":1355:1387   */\n      slt\n        /* \"#utility.yul\":1352:1471   */\n      iszero\n      tag_93\n      jumpi\n        /* \"#utility.yul\":1390:1469   */\n      tag_94\n      tag_58\n      jump\t// in\n    tag_94:\n        /* \"#utility.yul\":1352:1471   */\n    tag_93:\n        /* \"#utility.yul\":1510:1511   */\n      0x00\n        /* \"#utility.yul\":1535:1588   */\n      tag_95\n        /* \"#utility.yul\":1580:1587   */\n      dup5\n        /* \"#utility.yul\":1571:1577   */\n      dup3\n        /* \"#utility.yul\":1560:1569   */\n      dup6\n        /* \"#utility.yul\":1556:1578   */\n      add\n        /* \"#utility.yul\":1535:1588   */\n      tag_63\n      jump\t// in\n    tag_95:\n        /* \"#utility.yul\":1525:1588   */\n      swap2\n      pop\n        /* \"#utility.yul\":1481:1598   */\n      pop\n        /* \"#utility.yul\":1276:1605   */\n      swap3\n      swap2\n      pop\n      pop\n      jump\t// out\n        /* \"#utility.yul\":1611:1791   */\n    tag_64:\n        /* \"#utility.yul\":1659:1736   */\n      0x4e487b7100000000000000000000000000000000000000000000000000000000\n        /* \"#utility.yul\":1656:1657   */\n      0x00\n        /* \"#utility.yul\":1649:1737   */\n      mstore\n        /* \"#utility.yul\":1756:1760   */\n      0x11\n        /* \"#utility.yul\":1753:1754   */\n      0x04\n        /* \"#utility.yul\":1746:1761   */\n      mstore\n        /* \"#utility.yul\":1780:1784   */\n      0x24\n        /* \"#utility.yul\":1777:1778   */\n      0x00\n        /* \"#utility.yul\":1770:1785   */\n      revert\n        /* \"#utility.yul\":1797:1988   */\n    tag_32:\n        /* \"#utility.yul\":1837:1840   */\n      0x00\n        /* \"#utility.yul\":1856:1876   */\n      tag_98\n        /* \"#utility.yul\":1874:1875   */\n      dup3\n        /* \"#utility.yul\":1856:1876   */\n      tag_55\n      jump\t// in\n    tag_98:\n        /* \"#utility.yul\":1851:1876   */\n      swap2\n      pop\n        /* \"#utility.yul\":1890:1910   */\n      tag_99\n        /* \"#utility.yul\":1908:1909   */\n      dup4\n        /* \"#utility.yul\":1890:1910   */\n      tag_55\n      jump\t// in\n    tag_99:\n        /* \"#utility.yul\":1885:1910   */\n      swap3\n      pop\n        /* \"#utility.yul\":1933:1934   */\n      dup3\n        /* \"#utility.yul\":1930:1931   */\n      dup3\n        /* \"#utility.yul\":1926:1935   */\n      add\n        /* \"#utility.yul\":1919:1935   */\n      swap1\n      pop\n        /* \"#utility.yul\":1954:1957   */\n      dup1\n        /* \"#utility.yul\":1951:1952   */\n      dup3\n        /* \"#utility.yul\":1948:1958   */\n      gt\n        /* \"#utility.yul\":1945:1981   */\n      iszero\n      tag_100\n      jumpi\n        /* \"#utility.yul\":1961:1979   */\n      tag_101\n      tag_64\n      jump\t// in\n    tag_101:\n        /* \"#utility.yul\":1945:1981   */\n    tag_100:\n        /* \"#utility.yul\":1797:1988   */\n      swap3\n      swap2\n      pop\n      pop\n      jump\t// out\n        /* \"#utility.yul\":1994:2163   */\n    tag_65:\n        /* \"#utility.yul\":2078:2089   */\n      0x00\n        /* \"#utility.yul\":2112:2118   */\n      dup3\n        /* \"#utility.yul\":2107:2110   */\n      dup3\n        /* \"#utility.yul\":2100:2119   */\n      mstore\n        /* \"#utility.yul\":2152:2156   */\n      0x20\n        /* \"#utility.yul\":2147:2150   */\n      dup3\n        /* \"#utility.yul\":2143:2157   */\n      add\n        /* \"#utility.yul\":2128:2157   */\n      swap1\n      pop\n        /* \"#utility.yul\":1994:2163   */\n      swap3\n      swap2\n      pop\n      pop\n      jump\t// out\n        /* \"#utility.yul\":2169:2330   */\n    tag_66:\n        /* \"#utility.yul\":2309:2322   */\n      0x6e6f742063616e206f7574000000000000000000000000000000000000000000\n        /* \"#utility.yul\":2305:2306   */\n      0x00\n        /* \"#utility.yul\":2297:2303   */\n      dup3\n        /* \"#utility.yul\":2293:2307   */\n      add\n        /* \"#utility.yul\":2286:2323   */\n      mstore\n        /* \"#utility.yul\":2169:2330   */\n      pop\n      jump\t// out\n        /* \"#utility.yul\":2336:2702   */\n    tag_67:\n        /* \"#utility.yul\":2478:2481   */\n      0x00\n        /* \"#utility.yul\":2499:2566   */\n      tag_105\n        /* \"#utility.yul\":2563:2565   */\n      0x0b\n        /* \"#utility.yul\":2558:2561   */\n      dup4\n        /* \"#utility.yul\":2499:2566   */\n      tag_65\n      jump\t// in\n    tag_105:\n        /* \"#utility.yul\":2492:2566   */\n      swap2\n      pop\n        /* \"#utility.yul\":2575:2668   */\n      tag_106\n        /* \"#utility.yul\":2664:2667   */\n      dup3\n        /* \"#utility.yul\":2575:2668   */\n      tag_66\n      jump\t// in\n    tag_106:\n        /* \"#utility.yul\":2693:2695   */\n      0x20\n        /* \"#utility.yul\":2688:2691   */\n      dup3\n        /* \"#utility.yul\":2684:2696   */\n      add\n        /* \"#utility.yul\":2677:2696   */\n      swap1\n      pop\n        /* \"#utility.yul\":2336:2702   */\n      swap2\n      swap1\n      pop\n      jump\t// out\n        /* \"#utility.yul\":2708:3127   */\n    tag_40:\n        /* \"#utility.yul\":2874:2878   */\n      0x00\n        /* \"#utility.yul\":2912:2914   */\n      0x20\n        /* \"#utility.yul\":2901:2910   */\n      dup3\n        /* \"#utility.yul\":2897:2915   */\n      add\n        /* \"#utility.yul\":2889:2915   */\n      swap1\n      pop\n        /* \"#utility.yul\":2961:2970   */\n      dup2\n        /* \"#utility.yul\":2955:2959   */\n      dup2\n        /* \"#utility.yul\":2951:2971   */\n      sub\n        /* \"#utility.yul\":2947:2948   */\n      0x00\n        /* \"#utility.yul\":2936:2945   */\n      dup4\n        /* \"#utility.yul\":2932:2949   */\n      add\n        /* \"#utility.yul\":2925:2972   */\n      mstore\n        /* \"#utility.yul\":2989:3120   */\n      tag_108\n        /* \"#utility.yul\":3115:3119   */\n      dup2\n        /* \"#utility.yul\":2989:3120   */\n      tag_67\n      jump\t// in\n    tag_108:\n        /* \"#utility.yul\":2981:3120   */\n      swap1\n      pop\n        /* \"#utility.yul\":2708:3127   */\n      swap2\n      swap1\n      pop\n      jump\t// out\n        /* \"#utility.yul\":3133:3298   */\n    tag_68:\n        /* \"#utility.yul\":3273:3290   */\n      0x6e6f742063616e206c74207a65726f0000000000000000000000000000000000\n        /* \"#utility.yul\":3269:3270   */\n      0x00\n        /* \"#utility.yul\":3261:3267   */\n      dup3\n        /* \"#utility.yul\":3257:3271   */\n      add\n        /* \"#utility.yul\":3250:3291   */\n      mstore\n        /* \"#utility.yul\":3133:3298   */\n      pop\n      jump\t// out\n        /* \"#utility.yul\":3304:3670   */\n    tag_69:\n        /* \"#utility.yul\":3446:3449   */\n      0x00\n        /* \"#utility.yul\":3467:3534   */\n      tag_111\n        /* \"#utility.yul\":3531:3533   */\n      0x0f\n        /* \"#utility.yul\":3526:3529   */\n      dup4\n        /* \"#utility.yul\":3467:3534   */\n      tag_65\n      jump\t// in\n    tag_111:\n        /* \"#utility.yul\":3460:3534   */\n      swap2\n      pop\n        /* \"#utility.yul\":3543:3636   */\n      tag_112\n        /* \"#utility.yul\":3632:3635   */\n      dup3\n        /* \"#utility.yul\":3543:3636   */\n      tag_68\n      jump\t// in\n    tag_112:\n        /* \"#utility.yul\":3661:3663   */\n      0x20\n        /* \"#utility.yul\":3656:3659   */\n      dup3\n        /* \"#utility.yul\":3652:3664   */\n      add\n        /* \"#utility.yul\":3645:3664   */\n      swap1\n      pop\n        /* \"#utility.yul\":3304:3670   */\n      swap2\n      swap1\n      pop\n      jump\t// out\n        /* \"#utility.yul\":3676:4095   */\n    tag_44:\n        /* \"#utility.yul\":3842:3846   */\n      0x00\n        /* \"#utility.yul\":3880:3882   */\n      0x20\n        /* \"#utility.yul\":3869:3878   */\n      dup3\n        /* \"#utility.yul\":3865:3883   */\n      add\n        /* \"#utility.yul\":3857:3883   */\n      swap1\n      pop\n        /* \"#utility.yul\":3929:3938   */\n      dup2\n        /* \"#utility.yul\":3923:3927   */\n      dup2\n        /* \"#utility.yul\":3919:3939   */\n      sub\n        /* \"#utility.yul\":3915:3916   */\n      0x00\n        /* \"#utility.yul\":3904:3913   */\n      dup4\n        /* \"#utility.yul\":3900:3917   */\n      add\n        /* \"#utility.yul\":3893:3940   */\n      mstore\n        /* \"#utility.yul\":3957:4088   */\n      tag_114\n        /* \"#utility.yul\":4083:4087   */\n      dup2\n        /* \"#utility.yul\":3957:4088   */\n      tag_69\n      jump\t// in\n    tag_114:\n        /* \"#utility.yul\":3949:4088   */\n      swap1\n      pop\n        /* \"#utility.yul\":3676:4095   */\n      swap2\n      swap1\n      pop\n      jump\t// out\n        /* \"#utility.yul\":4101:4295   */\n    tag_46:\n        /* \"#utility.yul\":4141:4145   */\n      0x00\n        /* \"#utility.yul\":4161:4181   */\n      tag_116\n        /* \"#utility.yul\":4179:4180   */\n      dup3\n        /* \"#utility.yul\":4161:4181   */\n      tag_55\n      jump\t// in\n    tag_116:\n        /* \"#utility.yul\":4156:4181   */\n      swap2\n      pop\n        /* \"#utility.yul\":4195:4215   */\n      tag_117\n        /* \"#utility.yul\":4213:4214   */\n      dup4\n        /* \"#utility.yul\":4195:4215   */\n      tag_55\n      jump\t// in\n    tag_117:\n        /* \"#utility.yul\":4190:4215   */\n      swap3\n      pop\n        /* \"#utility.yul\":4239:4240   */\n      dup3\n        /* \"#utility.yul\":4236:4237   */\n      dup3\n        /* \"#utility.yul\":4232:4241   */\n      sub\n        /* \"#utility.yul\":4224:4241   */\n      swap1\n      pop\n        /* \"#utility.yul\":4263:4264   */\n      dup2\n        /* \"#utility.yul\":4257:4261   */\n      dup2\n        /* \"#utility.yul\":4254:4265   */\n      gt\n        /* \"#utility.yul\":4251:4288   */\n      iszero\n      tag_118\n      jumpi\n        /* \"#utility.yul\":4268:4286   */\n      tag_119\n      tag_64\n      jump\t// in\n    tag_119:\n        /* \"#utility.yul\":4251:4288   */\n    tag_118:\n        /* \"#utility.yul\":4101:4295   */\n      swap3\n      swap2\n      pop\n      pop\n      jump\t// out\n        /* \"#utility.yul\":4301:4448   */\n    tag_70:\n        /* \"#utility.yul\":4402:4413   */\n      0x00\n        /* \"#utility.yul\":4439:4442   */\n      dup2\n        /* \"#utility.yul\":4424:4442   */\n      swap1\n      pop\n        /* \"#utility.yul\":4301:4448   */\n      swap3\n      swap2\n      pop\n      pop\n      jump\t// out\n        /* \"#utility.yul\":4454:4568   */\n    tag_71:\n      pop\n      jump\t// out\n        /* \"#utility.yul\":4574:4972   */\n    tag_72:\n        /* \"#utility.yul\":4733:4736   */\n      0x00\n        /* \"#utility.yul\":4754:4837   */\n      tag_123\n        /* \"#utility.yul\":4835:4836   */\n      0x00\n        /* \"#utility.yul\":4830:4833   */\n      dup4\n        /* \"#utility.yul\":4754:4837   */\n      tag_70\n      jump\t// in\n    tag_123:\n        /* \"#utility.yul\":4747:4837   */\n      swap2\n      pop\n        /* \"#utility.yul\":4846:4939   */\n      tag_124\n        /* \"#utility.yul\":4935:4938   */\n      dup3\n        /* \"#utility.yul\":4846:4939   */\n      tag_71\n      jump\t// in\n    tag_124:\n        /* \"#utility.yul\":4964:4965   */\n      0x00\n        /* \"#utility.yul\":4959:4962   */\n      dup3\n        /* \"#utility.yul\":4955:4966   */\n      add\n        /* \"#utility.yul\":4948:4966   */\n      swap1\n      pop\n        /* \"#utility.yul\":4574:4972   */\n      swap2\n      swap1\n      pop\n      jump\t// out\n        /* \"#utility.yul\":4978:5357   */\n    tag_48:\n        /* \"#utility.yul\":5162:5165   */\n      0x00\n        /* \"#utility.yul\":5184:5331   */\n      tag_126\n        /* \"#utility.yul\":5327:5330   */\n      dup3\n        /* \"#utility.yul\":5184:5331   */\n      tag_72\n      jump\t// in\n    tag_126:\n        /* \"#utility.yul\":5177:5331   */\n      swap2\n      pop\n        /* \"#utility.yul\":5348:5351   */\n      dup2\n        /* \"#utility.yul\":5341:5351   */\n      swap1\n      pop\n        /* \"#utility.yul\":4978:5357   */\n      swap2\n      swap1\n      pop\n      jump\t// out\n        /* \"#utility.yul\":5363:5527   */\n    tag_73:\n        /* \"#utility.yul\":5503:5519   */\n      0x6e6f74206f757420616d6f756e74000000000000000000000000000000000000\n        /* \"#utility.yul\":5499:5500   */\n      0x00\n        /* \"#utility.yul\":5491:5497   */\n      dup3\n        /* \"#utility.yul\":5487:5501   */\n      add\n        /* \"#utility.yul\":5480:5520   */\n      mstore\n        /* \"#utility.yul\":5363:5527   */\n      pop\n      jump\t// out\n        /* \"#utility.yul\":5533:5899   */\n    tag_74:\n        /* \"#utility.yul\":5675:5678   */\n      0x00\n        /* \"#utility.yul\":5696:5763   */\n      tag_129\n        /* \"#utility.yul\":5760:5762   */\n      0x0e\n        /* \"#utility.yul\":5755:5758   */\n      dup4\n        /* \"#utility.yul\":5696:5763   */\n      tag_65\n      jump\t// in\n    tag_129:\n        /* \"#utility.yul\":5689:5763   */\n      swap2\n      pop\n        /* \"#utility.yul\":5772:5865   */\n      tag_130\n        /* \"#utility.yul\":5861:5864   */\n      dup3\n        /* \"#utility.yul\":5772:5865   */\n      tag_73\n      jump\t// in\n    tag_130:\n        /* \"#utility.yul\":5890:5892   */\n      0x20\n        /* \"#utility.yul\":5885:5888   */\n      dup3\n        /* \"#utility.yul\":5881:5893   */\n      add\n        /* \"#utility.yul\":5874:5893   */\n      swap1\n      pop\n        /* \"#utility.yul\":5533:5899   */\n      swap2\n      swap1\n      pop\n      jump\t// out\n        /* \"#utility.yul\":5905:6324   */\n    tag_54:\n        /* \"#utility.yul\":6071:6075   */\n      0x00\n        /* \"#utility.yul\":6109:6111   */\n      0x20\n        /* \"#utility.yul\":6098:6107   */\n      dup3\n        /* \"#utility.yul\":6094:6112   */\n      add\n        /* \"#utility.yul\":6086:6112   */\n      swap1\n      pop\n        /* \"#utility.yul\":6158:6167   */\n      dup2\n        /* \"#utility.yul\":6152:6156   */\n      dup2\n        /* \"#utility.yul\":6148:6168   */\n      sub\n        /* \"#utility.yul\":6144:6145   */\n      0x00\n        /* \"#utility.yul\":6133:6142   */\n      dup4\n        /* \"#utility.yul\":6129:6146   */\n      add\n        /* \"#utility.yul\":6122:6169   */\n      mstore\n        /* \"#utility.yul\":6186:6317   */\n      tag_132\n        /* \"#utility.yul\":6312:6316   */\n      dup2\n        /* \"#utility.yul\":6186:6317   */\n      tag_74\n      jump\t// in\n    tag_132:\n        /* \"#utility.yul\":6178:6317   */\n      swap1\n      pop\n        /* \"#utility.yul\":5905:6324   */\n      swap2\n      swap1\n      pop\n      jump\t// out\n\n    auxdata: 0xa2646970667358221220a4958c670a6e7ed23e0994efbb37018c941d2d5a5456a720806bb708366cdb6264736f6c63430008130033\n}\n",
				"bytecode": {
					"linkReferences": {},
					"object": "608060405234801561001057600080fd5b50610695806100206000396000f3fe60806040526004361061004e5760003560e01c806318160ddd146100625780632e97766d1461008d57806370a08231146100b857806388ffe867146100f5578063e0b95720146100ff5761005d565b3661005d5761005b610109565b005b600080fd5b34801561006e57600080fd5b50610077610179565b6040516100849190610382565b60405180910390f35b34801561009957600080fd5b506100a2610182565b6040516100af9190610382565b60405180910390f35b3480156100c457600080fd5b506100df60048036038101906100da9190610400565b61018a565b6040516100ec9190610382565b60405180910390f35b6100fd610109565b005b6101076101d3565b005b34600160003373ffffffffffffffffffffffffffffffffffffffff1673ffffffffffffffffffffffffffffffffffffffff1681526020019081526020016000206000828254610158919061045c565b9250508190555034600080828254610170919061045c565b92505081905550565b60008054905090565b600042905090565b6000600160008373ffffffffffffffffffffffffffffffffffffffff1673ffffffffffffffffffffffffffffffffffffffff168152602001908152602001600020549050919050565b6364392fd842101561021a576040517f08c379a0000000000000000000000000000000000000000000000000000000008152600401610211906104ed565b60405180910390fd5b6000600160003373ffffffffffffffffffffffffffffffffffffffff1673ffffffffffffffffffffffffffffffffffffffff168152602001908152602001600020549050600081116102a1576040517f08c379a000000000000000000000000000000000000000000000000000000000815260040161029890610559565b60405180910390fd5b806000808282546102b29190610579565b9250508190555060003373ffffffffffffffffffffffffffffffffffffffff16826040516102df906105de565b60006040518083038185875af1925050503d806000811461031c576040519150601f19603f3d011682016040523d82523d6000602084013e610321565b606091505b5050905080610365576040517f08c379a000000000000000000000000000000000000000000000000000000000815260040161035c9061063f565b60405180910390fd5b5050565b6000819050919050565b61037c81610369565b82525050565b60006020820190506103976000830184610373565b92915050565b600080fd5b600073ffffffffffffffffffffffffffffffffffffffff82169050919050565b60006103cd826103a2565b9050919050565b6103dd816103c2565b81146103e857600080fd5b50565b6000813590506103fa816103d4565b92915050565b6000602082840312156104165761041561039d565b5b6000610424848285016103eb565b91505092915050565b7f4e487b7100000000000000000000000000000000000000000000000000000000600052601160045260246000fd5b600061046782610369565b915061047283610369565b925082820190508082111561048a5761048961042d565b5b92915050565b600082825260208201905092915050565b7f6e6f742063616e206f7574000000000000000000000000000000000000000000600082015250565b60006104d7600b83610490565b91506104e2826104a1565b602082019050919050565b60006020820190508181036000830152610506816104ca565b9050919050565b7f6e6f742063616e206c74207a65726f0000000000000000000000000000000000600082015250565b6000610543600f83610490565b915061054e8261050d565b602082019050919050565b6000602082019050818103600083015261057281610536565b9050919050565b600061058482610369565b915061058f83610369565b92508282039050818111156105a7576105a661042d565b5b92915050565b600081905092915050565b50565b60006105c86000836105ad565b91506105d3826105b8565b600082019050919050565b60006105e9826105bb565b9150819050919050565b7f6e6f74206f757420616d6f756e74000000000000000000000000000000000000600082015250565b6000610629600e83610490565b9150610634826105f3565b602082019050919050565b600060208201905081810360008301526106588161061c565b905091905056fea2646970667358221220a4958c670a6e7ed23e0994efbb37018c941d2d5a5456a720806bb708366cdb6264736f6c63430008130033",
					"opcodes": "PUSH1 0x80 PUSH1 0x40 MSTORE CALLVALUE DUP1 ISZERO PUSH2 0x10 JUMPI PUSH1 0x0 DUP1 REVERT JUMPDEST POP PUSH2 0x695 DUP1 PUSH2 0x20 PUSH1 0x0 CODECOPY PUSH1 0x0 RETURN INVALID PUSH1 0x80 PUSH1 0x40 MSTORE PUSH1 0x4 CALLDATASIZE LT PUSH2 0x4E JUMPI PUSH1 0x0 CALLDATALOAD PUSH1 0xE0 SHR DUP1 PUSH4 0x18160DDD EQ PUSH2 0x62 JUMPI DUP1 PUSH4 0x2E97766D EQ PUSH2 0x8D JUMPI DUP1 PUSH4 0x70A08231 EQ PUSH2 0xB8 JUMPI DUP1 PUSH4 0x88FFE867 EQ PUSH2 0xF5 JUMPI DUP1 PUSH4 0xE0B95720 EQ PUSH2 0xFF JUMPI PUSH2 0x5D JUMP JUMPDEST CALLDATASIZE PUSH2 0x5D JUMPI PUSH2 0x5B PUSH2 0x109 JUMP JUMPDEST STOP JUMPDEST PUSH1 0x0 DUP1 REVERT JUMPDEST CALLVALUE DUP1 ISZERO PUSH2 0x6E JUMPI PUSH1 0x0 DUP1 REVERT JUMPDEST POP PUSH2 0x77 PUSH2 0x179 JUMP JUMPDEST PUSH1 0x40 MLOAD PUSH2 0x84 SWAP2 SWAP1 PUSH2 0x382 JUMP JUMPDEST PUSH1 0x40 MLOAD DUP1 SWAP2 SUB SWAP1 RETURN JUMPDEST CALLVALUE DUP1 ISZERO PUSH2 0x99 JUMPI PUSH1 0x0 DUP1 REVERT JUMPDEST POP PUSH2 0xA2 PUSH2 0x182 JUMP JUMPDEST PUSH1 0x40 MLOAD PUSH2 0xAF SWAP2 SWAP1 PUSH2 0x382 JUMP JUMPDEST PUSH1 0x40 MLOAD DUP1 SWAP2 SUB SWAP1 RETURN JUMPDEST CALLVALUE DUP1 ISZERO PUSH2 0xC4 JUMPI PUSH1 0x0 DUP1 REVERT JUMPDEST POP PUSH2 0xDF PUSH1 0x4 DUP1 CALLDATASIZE SUB DUP2 ADD SWAP1 PUSH2 0xDA SWAP2 SWAP1 PUSH2 0x400 JUMP JUMPDEST PUSH2 0x18A JUMP JUMPDEST PUSH1 0x40 MLOAD PUSH2 0xEC SWAP2 SWAP1 PUSH2 0x382 JUMP JUMPDEST PUSH1 0x40 MLOAD DUP1 SWAP2 SUB SWAP1 RETURN JUMPDEST PUSH2 0xFD PUSH2 0x109 JUMP JUMPDEST STOP JUMPDEST PUSH2 0x107 PUSH2 0x1D3 JUMP JUMPDEST STOP JUMPDEST CALLVALUE PUSH1 0x1 PUSH1 0x0 CALLER PUSH20 0xFFFFFFFFFFFFFFFFFFFFFFFFFFFFFFFFFFFFFFFF AND PUSH20 0xFFFFFFFFFFFFFFFFFFFFFFFFFFFFFFFFFFFFFFFF AND DUP2 MSTORE PUSH1 0x20 ADD SWAP1 DUP2 MSTORE PUSH1 0x20 ADD PUSH1 0x0 KECCAK256 PUSH1 0x0 DUP3 DUP3 SLOAD PUSH2 0x158 SWAP2 SWAP1 PUSH2 0x45C JUMP JUMPDEST SWAP3 POP POP DUP2 SWAP1 SSTORE POP CALLVALUE PUSH1 0x0 DUP1 DUP3 DUP3 SLOAD PUSH2 0x170 SWAP2 SWAP1 PUSH2 0x45C JUMP JUMPDEST SWAP3 POP POP DUP2 SWAP1 SSTORE POP JUMP JUMPDEST PUSH1 0x0 DUP1 SLOAD SWAP1 POP SWAP1 JUMP JUMPDEST PUSH1 0x0 TIMESTAMP SWAP1 POP SWAP1 JUMP JUMPDEST PUSH1 0x0 PUSH1 0x1 PUSH1 0x0 DUP4 PUSH20 0xFFFFFFFFFFFFFFFFFFFFFFFFFFFFFFFFFFFFFFFF AND PUSH20 0xFFFFFFFFFFFFFFFFFFFFFFFFFFFFFFFFFFFFFFFF AND DUP2 MSTORE PUSH1 0x20 ADD SWAP1 DUP2 MSTORE PUSH1 0x20 ADD PUSH1 0x0 KECCAK256 SLOAD SWAP1 POP SWAP2 SWAP1 POP JUMP JUMPDEST PUSH4 0x64392FD8 TIMESTAMP LT ISZERO PUSH2 0x21A JUMPI PUSH1 0x40 MLOAD PUSH32 0x8C379A000000000000000000000000000000000000000000000000000000000 DUP2 MSTORE PUSH1 0x4 ADD PUSH2 0x211 SWAP1 PUSH2 0x4ED JUMP JUMPDEST PUSH1 0x40 MLOAD DUP1 SWAP2 SUB SWAP1 REVERT JUMPDEST PUSH1 0x0 PUSH1 0x1 PUSH1 0x0 CALLER PUSH20 0xFFFFFFFFFFFFFFFFFFFFFFFFFFFFFFFFFFFFFFFF AND PUSH20 0xFFFFFFFFFFFFFFFFFFFFFFFFFFFFFFFFFFFFFFFF AND DUP2 MSTORE PUSH1 0x20 ADD SWAP1 DUP2 MSTORE PUSH1 0x20 ADD PUSH1 0x0 KECCAK256 SLOAD SWAP1 POP PUSH1 0x0 DUP2 GT PUSH2 0x2A1 JUMPI PUSH1 0x40 MLOAD PUSH32 0x8C379A000000000000000000000000000000000000000000000000000000000 DUP2 MSTORE PUSH1 0x4 ADD PUSH2 0x298 SWAP1 PUSH2 0x559 JUMP JUMPDEST PUSH1 0x40 MLOAD DUP1 SWAP2 SUB SWAP1 REVERT JUMPDEST DUP1 PUSH1 0x0 DUP1 DUP3 DUP3 SLOAD PUSH2 0x2B2 SWAP2 SWAP1 PUSH2 0x579 JUMP JUMPDEST SWAP3 POP POP DUP2 SWAP1 SSTORE POP PUSH1 0x0 CALLER PUSH20 0xFFFFFFFFFFFFFFFFFFFFFFFFFFFFFFFFFFFFFFFF AND DUP3 PUSH1 0x40 MLOAD PUSH2 0x2DF SWAP1 PUSH2 0x5DE JUMP JUMPDEST PUSH1 0x0 PUSH1 0x40 MLOAD DUP1 DUP4 SUB DUP2 DUP6 DUP8 GAS CALL SWAP3 POP POP POP RETURNDATASIZE DUP1 PUSH1 0x0 DUP2 EQ PUSH2 0x31C JUMPI PUSH1 0x40 MLOAD SWAP2 POP PUSH1 0x1F NOT PUSH1 0x3F RETURNDATASIZE ADD AND DUP3 ADD PUSH1 0x40 MSTORE RETURNDATASIZE DUP3 MSTORE RETURNDATASIZE PUSH1 0x0 PUSH1 0x20 DUP5 ADD RETURNDATACOPY PUSH2 0x321 JUMP JUMPDEST PUSH1 0x60 SWAP2 POP JUMPDEST POP POP SWAP1 POP DUP1 PUSH2 0x365 JUMPI PUSH1 0x40 MLOAD PUSH32 0x8C379A000000000000000000000000000000000000000000000000000000000 DUP2 MSTORE PUSH1 0x4 ADD PUSH2 0x35C SWAP1 PUSH2 0x63F JUMP JUMPDEST PUSH1 0x40 MLOAD DUP1 SWAP2 SUB SWAP1 REVERT JUMPDEST POP POP JUMP JUMPDEST PUSH1 0x0 DUP2 SWAP1 POP SWAP2 SWAP1 POP JUMP JUMPDEST PUSH2 0x37C DUP2 PUSH2 0x369 JUMP JUMPDEST DUP3 MSTORE POP POP JUMP JUMPDEST PUSH1 0x0 PUSH1 0x20 DUP3 ADD SWAP1 POP PUSH2 0x397 PUSH1 0x0 DUP4 ADD DUP5 PUSH2 0x373 JUMP JUMPDEST SWAP3 SWAP2 POP POP JUMP JUMPDEST PUSH1 0x0 DUP1 REVERT JUMPDEST PUSH1 0x0 PUSH20 0xFFFFFFFFFFFFFFFFFFFFFFFFFFFFFFFFFFFFFFFF DUP3 AND SWAP1 POP SWAP2 SWAP1 POP JUMP JUMPDEST PUSH1 0x0 PUSH2 0x3CD DUP3 PUSH2 0x3A2 JUMP JUMPDEST SWAP1 POP SWAP2 SWAP1 POP JUMP JUMPDEST PUSH2 0x3DD DUP2 PUSH2 0x3C2 JUMP JUMPDEST DUP2 EQ PUSH2 0x3E8 JUMPI PUSH1 0x0 DUP1 REVERT JUMPDEST POP JUMP JUMPDEST PUSH1 0x0 DUP2 CALLDATALOAD SWAP1 POP PUSH2 0x3FA DUP2 PUSH2 0x3D4 JUMP JUMPDEST SWAP3 SWAP2 POP POP JUMP JUMPDEST PUSH1 0x0 PUSH1 0x20 DUP3 DUP5 SUB SLT ISZERO PUSH2 0x416 JUMPI PUSH2 0x415 PUSH2 0x39D JUMP JUMPDEST JUMPDEST PUSH1 0x0 PUSH2 0x424 DUP5 DUP3 DUP6 ADD PUSH2 0x3EB JUMP JUMPDEST SWAP2 POP POP SWAP3 SWAP2 POP POP JUMP JUMPDEST PUSH32 0x4E487B7100000000000000000000000000000000000000000000000000000000 PUSH1 0x0 MSTORE PUSH1 0x11 PUSH1 0x4 MSTORE PUSH1 0x24 PUSH1 0x0 REVERT JUMPDEST PUSH1 0x0 PUSH2 0x467 DUP3 PUSH2 0x369 JUMP JUMPDEST SWAP2 POP PUSH2 0x472 DUP4 PUSH2 0x369 JUMP JUMPDEST SWAP3 POP DUP3 DUP3 ADD SWAP1 POP DUP1 DUP3 GT ISZERO PUSH2 0x48A JUMPI PUSH2 0x489 PUSH2 0x42D JUMP JUMPDEST JUMPDEST SWAP3 SWAP2 POP POP JUMP JUMPDEST PUSH1 0x0 DUP3 DUP3 MSTORE PUSH1 0x20 DUP3 ADD SWAP1 POP SWAP3 SWAP2 POP POP JUMP JUMPDEST PUSH32 0x6E6F742063616E206F7574000000000000000000000000000000000000000000 PUSH1 0x0 DUP3 ADD MSTORE POP JUMP JUMPDEST PUSH1 0x0 PUSH2 0x4D7 PUSH1 0xB DUP4 PUSH2 0x490 JUMP JUMPDEST SWAP2 POP PUSH2 0x4E2 DUP3 PUSH2 0x4A1 JUMP JUMPDEST PUSH1 0x20 DUP3 ADD SWAP1 POP SWAP2 SWAP1 POP JUMP JUMPDEST PUSH1 0x0 PUSH1 0x20 DUP3 ADD SWAP1 POP DUP2 DUP2 SUB PUSH1 0x0 DUP4 ADD MSTORE PUSH2 0x506 DUP2 PUSH2 0x4CA JUMP JUMPDEST SWAP1 POP SWAP2 SWAP1 POP JUMP JUMPDEST PUSH32 0x6E6F742063616E206C74207A65726F0000000000000000000000000000000000 PUSH1 0x0 DUP3 ADD MSTORE POP JUMP JUMPDEST PUSH1 0x0 PUSH2 0x543 PUSH1 0xF DUP4 PUSH2 0x490 JUMP JUMPDEST SWAP2 POP PUSH2 0x54E DUP3 PUSH2 0x50D JUMP JUMPDEST PUSH1 0x20 DUP3 ADD SWAP1 POP SWAP2 SWAP1 POP JUMP JUMPDEST PUSH1 0x0 PUSH1 0x20 DUP3 ADD SWAP1 POP DUP2 DUP2 SUB PUSH1 0x0 DUP4 ADD MSTORE PUSH2 0x572 DUP2 PUSH2 0x536 JUMP JUMPDEST SWAP1 POP SWAP2 SWAP1 POP JUMP JUMPDEST PUSH1 0x0 PUSH2 0x584 DUP3 PUSH2 0x369 JUMP JUMPDEST SWAP2 POP PUSH2 0x58F DUP4 PUSH2 0x369 JUMP JUMPDEST SWAP3 POP DUP3 DUP3 SUB SWAP1 POP DUP2 DUP2 GT ISZERO PUSH2 0x5A7 JUMPI PUSH2 0x5A6 PUSH2 0x42D JUMP JUMPDEST JUMPDEST SWAP3 SWAP2 POP POP JUMP JUMPDEST PUSH1 0x0 DUP2 SWAP1 POP SWAP3 SWAP2 POP POP JUMP JUMPDEST POP JUMP JUMPDEST PUSH1 0x0 PUSH2 0x5C8 PUSH1 0x0 DUP4 PUSH2 0x5AD JUMP JUMPDEST SWAP2 POP PUSH2 0x5D3 DUP3 PUSH2 0x5B8 JUMP JUMPDEST PUSH1 0x0 DUP3 ADD SWAP1 POP SWAP2 SWAP1 POP JUMP JUMPDEST PUSH1 0x0 PUSH2 0x5E9 DUP3 PUSH2 0x5BB JUMP JUMPDEST SWAP2 POP DUP2 SWAP1 POP SWAP2 SWAP1 POP JUMP JUMPDEST PUSH32 0x6E6F74206F757420616D6F756E74000000000000000000000000000000000000 PUSH1 0x0 DUP3 ADD MSTORE POP JUMP JUMPDEST PUSH1 0x0 PUSH2 0x629 PUSH1 0xE DUP4 PUSH2 0x490 JUMP JUMPDEST SWAP2 POP PUSH2 0x634 DUP3 PUSH2 0x5F3 JUMP JUMPDEST PUSH1 0x20 DUP3 ADD SWAP1 POP SWAP2 SWAP1 POP JUMP JUMPDEST PUSH1 0x0 PUSH1 0x20 DUP3 ADD SWAP1 POP DUP2 DUP2 SUB PUSH1 0x0 DUP4 ADD MSTORE PUSH2 0x658 DUP2 PUSH2 0x61C JUMP JUMPDEST SWAP1 POP SWAP2 SWAP1 POP JUMP INVALID LOG2 PUSH5 0x6970667358 0x22 SLT KECCAK256 LOG4 SWAP6 DUP13 PUSH8 0xA6E7ED23E0994EF 0xBB CALLDATACOPY ADD DUP13 SWAP5 SAR 0x2D GAS SLOAD JUMP 0xA7 KECCAK256 DUP1 PUSH12 0xB708366CDB6264736F6C6343 STOP ADDMOD SGT STOP CALLER "
				},
				"gasEstimates": {
					"creation": {
						"codeDepositCost": "337000",
						"executionCost": "374",
						"totalCost": "337374"
					},
					"external": {
						"balanceOf(address)": "2863",
						"getBlock()": "336",
						"outAmount()": "infinite",
						"pledge()": "infinite",
						"totalSupply()": "2415"
					}
				},
				"methodIdentifiers": {
					"balanceOf(address)": "70a08231",
					"getBlock()": "2e97766d",
					"outAmount()": "e0b95720",
					"pledge()": "88ffe867",
					"totalSupply()": "18160ddd"
				}
			},
			"storageLayout": {
				"storage": [
					{
						"astId": 3,
						"contract": "contract/base/PledgeContract.sol:PledgeContract",
						"label": "_totalSupply",
						"offset": 0,
						"slot": "0",
						"type": "t_uint256"
					},
					{
						"astId": 7,
						"contract": "contract/base/PledgeContract.sol:PledgeContract",
						"label": "_balances",
						"offset": 0,
						"slot": "1",
						"type": "t_mapping(t_address,t_uint256)"
					}
				],
				"types": {
					"t_address": {
						"encoding": "inplace",
						"label": "address",
						"numberOfBytes": "20"
					},
					"t_mapping(t_address,t_uint256)": {
						"encoding": "mapping",
						"key": "t_address",
						"label": "mapping(address => uint256)",
						"numberOfBytes": "32",
						"value": "t_uint256"
					},
					"t_uint256": {
						"encoding": "inplace",
						"label": "uint256",
						"numberOfBytes": "32"
					}
				}
			},
			"userdoc": {
				"kind": "user",
				"methods": {},
				"version": 1
			}
		}
	}
}